:020000040800F2
:1000000000900020211E0008551C00085D1C0008FF
:1000100000000000000000000000000000000000E0
:10002000000000000000000000000000651C000847
:1000300000000000000000006F1C0008791C000890
:10004000711E0008711E0008711E0008711E000854
:10005000711E0008711E0008711E0008711E000844
:10006000711E0008891C0008711E0008711E00081E
:10007000F91C0008711E0008711E0008711E00089E
:10008000111D0008291D0008711E0008711E0008BE
:10009000711E0008911D0008711E0008711E0008E5
:1000A000711E0008711E0008711E0008711E0008F4
:0C00B000711E0008711E0008711E00087F
:1000BC0010B5064C2378002B07D1054B002B02D032
:1000CC00044800E000BF0123237010BD780000201D
:1000DC000000000068830008044B10B5002B03D00F
:1000EC000349044800E000BF10BDC04600000000FA
:1000FC007C0000206883000803B471464908400066
:10010C004900095E49008E4403BC70470022430835
:10011C008B4274D303098B425FD3030A8B4244D3C3
:10012C00030B8B4228D3030C8B420DD3FF22090205
:10013C0012BA030C8B4202D31212090265D0030BC4
:10014C008B4219D300E0090AC30B8B4201D3CB03BA
:10015C00C01A5241830B8B4201D38B03C01A5241FC
:10016C00430B8B4201D34B03C01A5241030B8B42FE
:10017C0001D30B03C01A5241C30A8B4201D3CB02E9
:10018C00C01A5241830A8B4201D38B02C01A5241CE
:10019C00430A8B4201D34B02C01A5241030A8B42D1
:1001AC0001D30B02C01A5241CDD2C3098B4201D3E9
:1001BC00CB01C01A524183098B4201D38B01C01A67
:1001CC00524143098B4201D34B01C01A52410309DE
:1001DC008B4201D30B01C01A5241C3088B4201D38D
:1001EC00CB00C01A524183088B4201D38B00C01A3A
:1001FC00524143088B4201D34B00C01A5241411A61
:10020C0000D20146524110467047FFE701B500206D
:10021C0000F0F0F802BDC0460029F7D076E7704731
:10022C0003460B437FD4002243088B4274D303094B
:10023C008B425FD3030A8B4244D3030B8B4228D3EC
:10024C00030C8B420DD3FF22090212BA030C8B4212
:10025C0002D31212090265D0030B8B4219D300E0B2
:10026C00090AC30B8B4201D3CB03C01A5241830B37
:10027C008B4201D38B03C01A5241430B8B4201D3E7
:10028C004B03C01A5241030B8B4201D30B03C01A10
:10029C005241C30A8B4201D3CB02C01A5241830A8A
:1002AC008B4201D38B02C01A5241430A8B4201D3B9
:1002BC004B02C01A5241030A8B4201D30B02C01AE3
:1002CC005241CDD2C3098B4201D3CB01C01A52414A
:1002DC0083098B4201D38B01C01A524143098B42D3
:1002EC0001D34B01C01A524103098B4201D30B01BC
:1002FC00C01A5241C3088B4201D3CB00C01A5241E1
:10030C0083088B4201D38B00C01A524143088B42A5
:10031C0001D34B00C01A5241411A00D2014652413E
:10032C00104670475DE0CA0F00D04942031000D35D
:10033C004042534000229C4603098B422DD3030AB2
:10034C008B4212D3FC22890112BA030A8B420CD3C2
:10035C00890192118B4208D3890192118B4204D3EB
:10036C0089013AD0921100E08909C3098B4201D36B
:10037C00CB01C01A524183098B4201D38B01C01AA5
:10038C00524143098B4201D34B01C01A524103091C
:10039C008B4201D30B01C01A5241C3088B4201D3CB
:1003AC00CB00C01A524183088B4201D38B00C01A78
:1003BC005241D9D243088B4201D34B00C01A52414F
:1003CC00411A00D20146634652415B10104601D3DC
:1003DC004042002B00D54942704763465B1000D366
:1003EC00404201B5002000F005F802BD0029F8D00C
:1003FC0016E770477047C046002B11D1002A0FD169
:10040C00002900D1002802D00021C943080007B4FC
:10041C00024802A14018029003BDC046D9FFFFFF5D
:10042C0003B4684601B5029800F006F8019B9E469D
:10043C0002B00CBC7047C046F0B557464E46454618
:10044C00DE46E0B504000D009246994683B08B421F
:10045C0030D82DD04946504600F0BAF82900060095
:10046C00200000F0B5F8331A9846203B34D49B4654
:10047C0053465A46934042461F00534693401E0033
:10048C00AF423BD8AF4200D179E05B46A41BBD41E3
:10049C00002B00DA76E00022002300920193012366
:1004AC005A4693400193012342469340009329E01E
:1004BC008242CFD900220023009201930C9B002B87
:1004CC0001D01C605D600098019903B0F0BCBB4684
:1004DC00B246A946A046F0BD42469B4620239B1A35
:1004EC005246DA40414613004A468A4017004246BB
:1004FC001F43534693401E00AF42C3D90022002332
:10050C00009201934346002BD8D0FB0772081A4384
:10051C0046467B080EE0AB4201D1A2420CD8A41A8D
:10052C009D41012024196D410021013E24184D41AB
:10053C00002E06D0AB42EED9013E24196D41002E9F
:10054C00F8D1009801995B4600196941002B24DB16
:10055C002B005A464446D3402A00E2401C005B461E
:10056C001500002B2ADB26009E4033002600474650
:10057C00BE403200801A9941009001919EE7A3423F
:10058C00BCD882E74246202300219B1A002200910E
:10059C0001920122DA40019285E7424620239B1A00
:1005AC002A0046469A402300F340444613432A004F
:1005BC00E2401C005B461500002BD4DA42462F00AB
:1005CC002023260097409B1ADE403B003343CDE7A7
:1005DC0010B5002903D100F007F8203002E0080024
:1005EC0000F002F810BDC0461C2101231B049842E8
:1005FC0001D3000C10391B0A984201D3000A0839A8
:10060C001B09984201D30009043902A2105C40185E
:10061C007047C04604030202010101010000000002
:10062C0000000000F0B58FB004AF154B1B889BB2D7
:10063C001E00134B5B889BB29C46114B9B889BB254
:10064C001A000F4BDB889BB21C000D4B1B899BB215
:10065C001D000B4B5B899BB20A49381D0393029515
:10066C00019400926346320007F0DCF9391D06480C
:10067C000A23242206F026FBC046BD460BB0F0BD73
:10068C009C000020808300083403002080B582B0D9
:10069C0000AF01F0E9FB642001F06CFC00F07AFA89
:1006AC00642001F067FC00F0DBFE00F0C3FE00F0FC
:1006BC00DFFA00F0A1FB00F0CFFB00F011FC00F022
:1006CC00F1FC00F04FFD00F017FE00F065FE00F0AD
:1006DC00D9FD00F0A7FAD44BFA229200DA62D34B80
:1006EC00180004F0E1FCD24B9A69D14B80210A43EB
:1006FC009A61CF4B1A68CE4B80210A431A60CD4BBE
:10070C000021180004F084FDCA4B1B685A6CC94BBD
:10071C001B68802109020A435A64C74B0021180048
:10072C0002F07BFFC54BC4480022002103F028F8DF
:10073C00C34B180002F01EFEC24B1B781A00C249B4
:10074C00C24B180001F036FFFB1D00221A708023EB
:10075C001B02BF4A1900100003F06AFDFA235B006C
:10076C00180001F007FC80231B02B94A1900100085
:10077C0003F05EFDFA235B00180001F0FBFB802305
:10078C001B02B34A1900100003F052FDFA235B0060
:10079C00180001F0EFFB80231B02AD4A190010007A
:1007AC0003F046FDAB4B1B78DBB2002B04D0A94BFE
:1007BC0000221A70FFF736FFA74B1B78DBB2002B19
:1007CC0062D0A54B00221A7080239B00A34A19000B
:1007DC00100003F0F3FC03005A425341DBB21A0041
:1007EC009F4B1A709E4B1B78DBB2002B09D09D4B94
:1007FC001B78002B05D19C4B1B8801339AB29A4B6A
:10080C001A809A4B1B889AB2994B1B889A4203D92F
:10081C00984B01221A7002E0964B00221A70964BEC
:10082C001B889AB2954B1B889BB29A420BD2924B67
:10083C001B889AB2924B1B889BB29A4203D9914B5C
:10084C0001221A7002E08F4B00221A708E4B1B880B
:10085C009AB28E4B1B889BB29A4203D98C4B0122C5
:10086C001A7002E08A4B00221A708A4B1B889AB2CB
:10087C00894B1B889BB29A4203D9884B01221A7070
:10088C0002E0864B00221A70FB1D1B78042B00D94A
:10089C0088E79A00824BD3181B689F46714B002245
:1008AC001A70714B00221A8080231B0268480022A8
:1008BC00190003F0A0FC694B00224021180003F042
:1008CC009AFC5C4B1B6800225A63764B1B78DBB29C
:1008DC00002B02D0FB1D04221A70614B1B78DBB27B
:1008EC00002B00D13BE1674B1B78DBB2002B00D116
:1008FC0035E1FB1D02221A7031E16B4B1A786B4B00
:10090C001B789A4203D9FB1D04221A7040E0554B08
:10091C001B78002B3CD1544B1A88654B1B889A4290
:10092C002DD280231B024A480022190003F063FCDD
:10093C00604B1B889AB23F4B1B685A63474B012292
:10094C004021180003F057FC5B4B1B889AB25B4BA1
:10095C001B889A421CD9454B1B889AB2584B1B8852
:10096C009A4215D23D4B00224021180003F043FC63
:10097C003C4B01221A70FB1D01221A7008E04C4BF3
:10098C001A88394B1B889A4202D8FB1D03221A7015
:10099C00334B1B78DBB2002B00D0E2E0FB1D0022B6
:1009AC001A70DEE02F4B00221A702C4B00224021D3
:1009BC00180003F020FC1F4B1B6800225A63802395
:1009CC001B02234A1900100003F032FC642001F0D2
:1009DC00D1FA80231B021E4A1900100003F028FCD8
:1009EC00642001F0C7FA80231B02194A1900100079
:1009FC0003F01EFC642001F0BDFA80231B02144A94
:100A0C001900100003F014FC2E4B1B88180001F089
:100A1C00B1FA254B1B780133DAB2234B1A70FB1D4C
:100A2C0000221A70A0E0C046001000409C0200207A
:100A3C00002C0140B8010020A4010020FF0F000091
:100A4C0074010020120000209C000020B400002043
:100A5C00000800509A00002099000020000400506B
:100A6C0094000020CA030020C8030020AC00002022
:100A7C0010000020CC030020A8000020140000204F
:100A8C001600002095000020AA000020180000206D
:100A9C0097000020B20000201A00002098000020CF
:100AAC00A883000896000020CB0300200E00002035
:100ABC000A00002002000020AE00002006000020EA
:100ACC00080000200C00002080231B022748012274
:100ADC00190003F090FB264B1B889AB2254B1B6820
:100AEC005A63254B1B889BB224480022002102F03C
:100AFC0047FE234B1B78DBB2012B02D1FB1D0422DA
:100B0C001A70204B1B78DBB2002B04D01E4B1B78C9
:100B1C00DBB2002B02D1FB1D00221A701B4B1B7881
:100B2C00DBB2002B08D1164B1B78DBB2002B03D1A8
:100B3C00174B1B78002B16D0FB1D04221A7012E0E9
:100B4C000C4B1B6800225A6380231B02074A1900B6
:100B5C00100003F06DFBC82001F00CFA04E0C04655
:100B6C0020E6C0461EE6C0461CE6C0460008005003
:100B7C0004000020B801002000000020A401002087
:100B8C009600002094000020950000209700002083
:100B9C00CC03002090B593B000AF10243B19180083
:100BAC0038231A00002106F05FFF3B0018001023C9
:100BBC001A00002106F058FF80239B00180003F058
:100BCC0053FB3B1902221A603B1980225200DA6057
:100BDC003B1900221A613B1940225A613B19002231
:100BEC00DA613B19180003F08BFB031E01D000F0F7
:100BFC00E1FC3B0007221A603B0000225A603B00DC
:100C0C0000229A603B000022DA603B0000211800B1
:100C1C0003F090FE031E01D000F0CCFCC046BD4694
:100C2C0013B090BD80B500AF00220021112002F05E
:100C3C009FFC112002F0B1FC002200210C2002F0DC
:100C4C0097FC0C2002F0A9FC00220021092002F0E4
:100C5C008FFC092002F0A1FC00220021102002F0E0
:100C6C0087FC102002F099FCC046BD4680BD0000F8
:100C7C0080B584B000AF3B1D18000C231A00002176
:100C8C0006F0F2FE554B564A1A60544BA022520302
:100C9C005A60524B00229A60504B0022DA604F4B44
:100CAC00802292031A614D4B04225A614B4B002255
:100CBC001A764A4B00225A76484B01229A76474BB9
:100CCC000622DA61454BA822D2005A62434B80229D
:100CDC00D2009A62414B2C22012199543F4B0022A5
:100CEC001A633E4B02225A633C4B02229A633B4BE3
:100CFC003C2200219954394B0022DA64374B1800FE
:100D0C0001F0B0FA031E01D000F054FC3B1D01228F
:100D1C001A603B1D00225A603B1D00229A603A1D4E
:100D2C002E4B1100180001F00BFE031E01D000F039
:100D3C0041FC3B1D2B4A1A603B1D04225A603A1D94
:100D4C00264B1100180001F0FBFD031E01D000F032
:100D5C0031FC3B1D244A1A603B1D08225A603A1D87
:100D6C001E4B1100180001F0EBFD031E01D000F02A
:100D7C0021FC3B1D1D4A1A603B1D0C225A603A1D7A
:100D8C00164B1100180001F0DBFD031E01D000F022
:100D9C0011FC3B1D164A1A603B1D10225A603A1D6D
:100DAC000E4B1100180001F0CBFD031E01D000F01A
:100DBC0001FC3B1D0F4A1A603B1D14225A603A1D60
:100DCC00064B1100180001F0BBFD031E01D000F012
:100DDC00F1FBC046BD4604B080BDC046B400002047
:100DEC0000240140020000040800000C0001002057
:100DFC00000200240004002880B500AF144B154AF3
:100E0C001A60134B00221A61114B40225A61104B8D
:100E1C000022DA610E4B00229A600D4B00229A617F
:100E2C000B4B00221A620A4B0022DA60084B00229C
:100E3C005A60074B00225A62054B180002F038F931
:100E4C00031E01D000F0B6FBC046BD4680BDC046B7
:100E5C00740100200402014080B58AB000AF3B1D34
:100E6C00180024231A00002106F0FEFD1A4B1B4A21
:100E7C001A60194B180002F0ADFB031E01D000F0F4
:100E8C0099FB3B1D00221A603B1D00225A603B1D42
:100E9C0000229A603B1D0122DA603B1D00221A6180
:100EAC00391D0D4B0022180002F09AFC031E01D0D4
:100EBC0000F080FB3B1D0022DA60391D064B10222E
:100ECC00180002F08DFC031E01D000F073FBC0462D
:100EDC00BD460AB080BDC046A4010020007400408D
:100EEC0080B5A0B000AF6C23FB18180014231A00B7
:100EFC00002106F0B9FD6023FB1818000C231A0022
:100F0C00002106F0B1FD5423FB1818000C231A0025
:100F1C00002106F0A9FD3823FB1818001C231A0029
:100F2C00002106F0A1FD3B1D180034231A000021FE
:100F3C0006F09AFD594B5A4A1A60584B00225A60D7
:100F4C00564B00229A60554BA0225200DA60534B4C
:100F5C0000221A61514B00225A61504B80229A6137
:100F6C004E4B180004F0FCF8031E01D000F022FBDD
:100F7C006C217B1801221A607B1801225A607918A7
:100F8C00464B0022180004F031FD031E01D000F086
:100F9C0011FB60217B1800221A607B1800225A601A
:100FAC007B1800229A607A183C4B1100180005F04F
:100FBC0065FC031E01D000F0FDFA54217B180122C0
:100FCC001A607B1800225A607B1800229A607A18EB
:100FDC00324B0121180005F05BFD031E01D000F01F
:100FEC00E9FA38217B1860221A607B1800225A60BB
:100FFC007B1800229A607B180022DA607B18002292
:10100C001A617B1800225A617B1800229A617918A8
:10101C00224B0022180004F0E9FB031E01D000F063
:10102C00C9FA3B1D00221A603B1D00225A603B1D71
:10103C0000229A603B1D0022DA603B1D8022520187
:10104C001A613B1D802292015A613B1D00229A615C
:10105C003B1D0022DA613B1D00221A623B1D8022DF
:10106C0092045A623B1D00229A623B1D0022DA62F6
:10107C003B1D00221A633A1D084B1100180005F0A5
:10108C006BFC031E01D000F095FA044B180000F025
:10109C0011FDC046BD4620B080BDC046B801002041
:1010AC00002C014080B58AB000AF1C23FB1818003F
:1010BC000C231A00002106F0D7FC3B0018001C235F
:1010CC001A00002106F0D0FC254B8022D2051A60B4
:1010DC00234B10225A60224B00229A60204BFA229A
:1010EC009200DA601E4B00221A611D4B00229A619D
:1010FC001B4B180004F034F8031E01D000F05AFA10
:10110C001C217B1800221A607B1800229A607A1826
:10111C00134B1100180005F0B1FB031E01D000F0B9
:10112C0049FA3B0060221A603B00FA2252005A60D6
:10113C003B0000229A603B0000221A613900084BE8
:10114C000822180004F052FB031E01D000F032FA02
:10115C00034B180000F0AEFCC046BD460AB080BD83
:10116C000402002080B58CB000AF1C23FB181800C3
:10117C0014231A00002106F077FC0C23FB1818002E
:10118C0010231A00002106F06FFC3B0018000C2302
:10119C001A00002106F068FC374B384A1A60364BAF
:1011AC0000225A60344B00229A60334B344ADA6086
:1011BC00314B00221A61304B00229A612E4B1800E1
:1011CC0004F010F9031E01D000F0F4F91C217B1877
:1011DC0004221A607B1860225A607B1800229A60E5
:1011EC007B180022DA607B1800221A617A18224BD5
:1011FC001100180004F024FD031E01D000F0DAF9F0
:10120C000C217B1802221A607B1802225A607B1870
:10121C0000229A607B180022DA607918164B0022A3
:10122C00180004F03FFA031E01D000F0C3F90C21A2
:10123C007B1800221A607B1801225A6079180E4B19
:10124C000422180004F02EFA031E01D000F0B2F9AB
:10125C003B0000221A603B0000229A603A00064BC9
:10126C001100180005F00AFB031E01D000F0A2F9D2
:10127C00C046BD460CB080BD5002002000040040AA
:10128C00FFFF000080B584B000AF3B1D18000C239D
:10129C001A00002106F0E8FB154B164A1A60144B95
:1012AC0010225A60124B00229A60114BFA229200C3
:1012BC00DA600F4B00229A610D4B180003F09CFE74
:1012CC00031E01D000F076F93B1D20221A603B1D55
:1012DC0000229A603A1D064B1100180005F0CEFA58
:1012EC00031E01D000F066F9C046BD4604B080BDB7
:1012FC009C0200200010004080B584B000AF3B0081
:10130C00180010231A00002106F0AEFB1F4B204AD8
:10131C001A601E4B00225A601C4B00229A601B4B19
:10132C001C4ADA60194B00221A61184B00225A61D0
:10133C00164B00229A61154B180003F05DFE031E3C
:10134C0001D000F037F9114B180004F04BF8031ED4
:10135C0001D000F02FF93B000A221A603B00012259
:10136C005A603B0000229A603B000022DA60390090
:10137C00064B0022180004F095F9031E01D000F072
:10138C0019F9C046BD4604B080BDC046E802002035
:10139C0000440140FFFF000080B500AF234B244AFE
:1013AC001A60224BE12252025A60204B00229A60B2
:1013BC001E4B0022DA601D4B00221A611B4B0C22C3
:1013CC005A611A4B00229A61184B0022DA61174BB2
:1013DC0000221A62154B00225A62144B00229A62A8
:1013EC00124B180005F018FC031E01D000F0E2F8B7
:1013FC000E4B0021180006F035FA031E01D000F048
:10140C00D9F80A4B0021180006F06CFA031E01D023
:10141C0000F0D0F8054B180006F0EAF9031E01D0D5
:10142C0000F0C8F8C046BD4680BDC046340300205D
:10143C000044004080B582B000AF084B9A6B074B5C
:10144C0001210A439A63054B9B6B012213407B607D
:10145C007B68C046BD4602B080BDC046001002404D
:10146C0090B589B000AF0C243B19180014231A0056
:10147C00002106F0F9FA4C4B5A6B4B4B02210A43F4
:10148C005A63494B5B6B02221340BB60BB68464BF3
:10149C005A6B454B04210A435A63434B5B6B042242
:1014AC0013407B607B68404B5A6B3F4B01210A43D6
:1014BC005A633D4B5B6B012213403B603B688023BE
:1014CC001B023A480022190002F095FEA023DB050E
:1014DC0000228021180002F08EFE354B00224021A4
:1014EC00180002F088FE3B19802292001A603B190A
:1014FC0000225A603B1901229A603B192C4A1900B0
:10150C00100002F0F7FC21007B18802212021A60F6
:10151C000C003B1901225A603B1900229A603B19BE
:10152C000022DA603B19214A1900100002F0E2FC9B
:10153C003B1980221A603B1901225A603B19002288
:10154C009A603B190022DA603A19A023DB051100DE
:10155C00180002F0CFFC3B19802292001A603B1954
:10156C0000225A603B1900229A603A19A023DB052D
:10157C001100180002F0BEFC21007B1840221A60FA
:10158C007B1801225A607B1800229A607B1800227B
:10159C00DA607B18064A1900100002F0ABFCC0465A
:1015AC00BD4609B090BDC046001002400008005076
:1015BC000004005080B500AF72B6C04680231B02F9
:1015CC00054A1900100002F033FEFA235B001800E4
:1015DC0000F0D0FCC046F1E70008005080B582B0A6
:1015EC0000AF0F4B1A6C0E4B01210A431A640C4BC3
:1015FC001B6C012213407B607B68094BDA6B084B38
:10160C00802149050A43DA63054BDA6B80235B05BD
:10161C0013403B603B68C046BD4602B080BDC0462F
:10162C000010024090B599B000AF78604C23FB18C5
:10163C00180014231A00002106F016FA18243B197E
:10164C00180034231A00002106F00EFA7B681B6880
:10165C00434A934200D07FE03B198022D2011A60AA
:10166C003B1900221A623B19180003F00DFB031EF4
:10167C0001D0FFF79FFF3B4B1A6C3A4B802149037B
:10168C000A431A64374B1A6C80235B0313407B614B
:10169C007B69344B5A6B334B01210A435A63314BF0
:1016AC005B6B012213403B613B692E4B5A6B2D4BFC
:1016BC0002210A435A632B4B5B6B02221340FB60E3
:1016CC00FB684C243B190B221A603B1903225A600D
:1016DC003B1900229A603A19A023DB05110018006F
:1016EC0002F008FC3B1907221A603B1903225A60CE
:1016FC003B1900229A603B191B4A1900100002F09A
:10170C00F9FB1A4B1A4A1A60184B05225A60174BF0
:10171C0000229A60154B0022DA60144B80221A6169
:10172C00124B802252005A61104B8022D2009A61D7
:10173C000E4B2022DA610D4B00221A620B4B180063
:10174C0002F086F9031E01D0FFF734FF7B68074ACD
:10175C001A65064B7A689A62C046BD4619B090BDB0
:10176C000024014000100240000400501801002029
:10177C000800024090B589B000AF78600C243B198A
:10178C00180014231A00002106F06EF97B681B6800
:10179C00104A93421AD1104B5A6B0F4B02210A4339
:1017AC005A630D4B5B6B02221340BB60BB683B1949
:1017BC0010221A603B1903225A603B1900229A60CE
:1017CC003B19064A1900100002F094FBC046BD46B6
:1017DC0009B090BD0402014000100240000400500A
:1017EC0090B58BB000AF786014243B19180014230B
:1017FC001A00002106F038F97B681B68184A9342DE
:10180C0029D1184BDA6B174B802189050A43DA630F
:10181C00144BDA6B80239B0513403B613B69114BE6
:10182C005A6B104B01210A435A630E4B5B6B01221E
:10183C001340FB60FB683B1930221A603B190322F2
:10184C005A603B1900229A603A19A023DB0511005B
:10185C00180002F04FFBC046BD460BB090BDC04611
:10186C00007400400010024090B599B000AF786051
:10187C004C23FB18180014231A00002106F0F4F86E
:10188C0018243B19180034231A00002106F0ECF838
:10189C007B681B682C4A934240D13B1980229203EF
:1018AC001A603B1900229A623B19180003F0ECF9FC
:1018BC00031E01D0FFF77EFE244B1A6C234B8021B4
:1018CC0009010A431A64214B1A6C80231B01134033
:1018DC007B617B691D4B5A6B1C4B01210A435A637C
:1018EC001A4B5B6B012213403B613B694C217B180B
:1018FC0040221A607B1812225A607B1801229A60CF
:10190C007B180022DA607B1802221A617A18A02355
:10191C00DB051100180002F0EDFA11E07B681A6883
:10192C008023DB059A420BD1084BDA6B074B012164
:10193C000A43DA63054BDB6B01221340FB60FB6847
:10194C00C046BD4619B090BD002C014000100240AD
:10195C0090B58BB000AF786014243B191800142399
:10196C001A00002106F080F87B681B681A4A934223
:10197C002DD11A4BDA6B194B02210A43DA63174B40
:10198C00DB6B022213403B613B69144B5A6B134BCC
:10199C0002210A435A63114B5B6B02221340FB601A
:1019AC00FB6821007B1820221A607B1802225A60E7
:1019BC007B1800229A607B180022DA607B180122C7
:1019CC001A617B18064A1900100002F093FAC046FF
:1019DC00BD460BB090BDC046000400400010024054
:1019EC000004005080B58AB000AF78601423FB1857
:1019FC00180014231A00002106F036F87B681B68C7
:101A0C00284A93420CD1284BDA6B274B10210A43FE
:101A1C00DA63254BDB6B102213403B613B693DE0E5
:101A2C007B681B68214A934238D11F4B1A6C1E4BA2
:101A3C00802189020A431A641B4B1A6C80239B0277
:101A4C001340FB60FB68184B5A6B174B02210A437F
:101A5C005A63154B5B6B02221340BB60BB681421AD
:101A6C007B18802252001A607B1802225A607B1865
:101A7C0000229A607B180022DA607B1802221A611D
:101A8C007B180B4A1900100002F034FA00220021D6
:101A9C00152001F06DFD152001F07FFDC046BD46FF
:101AAC000AB080BD0010004000100240004401400C
:101ABC000004005090B58BB000AF786014243B1933
:101ACC00180014231A00002105F0CEFF7B681B6858
:101ADC00294A934224D1294B5A6B284B01210A43A2
:101AEC005A63264B5B6B012213403B613B693B19EC
:101AFC00802252001A6021007B1802225A607B1847
:101B0C0000229A607B180322DA607B1802221A6189
:101B1C007A18A023DB051100180002F0EBF927E07E
:101B2C007B681A688023DB059A4221D1134B5A6BD0
:101B3C00124B04210A435A63104B5B6B0422134073
:101B4C00FB60FB6814217B1840221A607B18022270
:101B5C005A607B1800229A607B180022DA607B188E
:101B6C0002221A617B18064A1900100002F0C2F911
:101B7C00C046BD460BB090BD002C01400010024089
:101B8C000008005090B597B000AF78604423FB1864
:101B9C00180014231A00002105F066FF10243B19CD
:101BAC00180034231A00002105F05EFF7B681B68C7
:101BBC00224A93423ED13B1902221A603B19002261
:101BCC009A603B19180003F05FF8031E01D0FFF771
:101BDC00F1FC1B4BDA6B1A4B802189020A43DA6346
:101BEC00174BDA6B80239B021340FB60FB68144B92
:101BFC005A6B134B01210A435A63114B5B6B012245
:101C0C001340BB60BB6844217B180E4A1A607B18DA
:101C1C0002225A607B1800229A607B180022DA603C
:101C2C007B1801221A617A18A023DB051100180019
:101C3C0002F060F9C046BD4617B090BD00440040AC
:101C4C00001002400480000080B500AFC046FDE7E4
:101C5C0080B500AFC046FDE780B500AFC046BD46BD
:101C6C0080BD80B500AFC046BD4680BD80B500AF1D
:101C7C0000F064F9C046BD4680BD000080B500AFE1
:101C8C00124B180001F0F4FF114B1B889AB2114B48
:101C9C001A800F4B5B889AB20F4B1A800C4B9B88A7
:101CAC009AB20E4B1A800A4BDB889AB20C4B1A80F4
:101CBC00074B1B899AB20B4B1A80054B5B899AB266
:101CCC00094B1A80C046BD4680BDC0461801002095
:101CDC009C000020A8000020AA000020AC000020DE
:101CEC00AE000020B0000020B200002080B500AF94
:101CFC00034B180000F0ECFCC046BD4680BDC0464E
:101D0C00B400002080B500AF034B180003F0C2FBF9
:101D1C00C046BD4680BDC0465002002080B500AF15
:101D2C00134B180003F0B6FB124B180001F0CCFC5F
:101D3C00114B01221A70114B1A88FA239B009A42FC
:101D4C0006D20E4B1B8801339AB20C4B1A800BE057
:101D5C000A4B1A88FA239B009A4205D3074B0022A0
:101D6C001A80074B01221A70C046BD4680BDC04682
:101D7C009C020020A401002099000020CE0300202A
:101D8C009A00002080B500AF034B180003F082FBD3
:101D9C00C046BD4680BDC046E802002080B586B076
:101DAC0000AF7860144A154BD31A7B617B693B6199
:101DBC00134B1B68002B02D1114B124A1A60104BAB
:101DCC001A687B68D3183A699A4207D205F054FE18
:101DDC0003000C221A6001235B4209E0084B1B68CC
:101DEC00FB60074B1A687B68D218054B1A60FB68BE
:101DFC001800BD4606B080BD009000200004000015
:101E0C00D00300202005002080B500AFC046BD46A1
:101E1C0080BD00000D488546FFF7F6FF0C480D49C4
:101E2C000D4A002302E0D458C4500433C4188C4229
:101E3C00F9D30A4A0A4C002301E013600432A2428F
:101E4C00FBD305F01FFEFEF721FCFEE700900020FF
:101E5C000000002078000020308500087800002069
:101E6C0020050020FEE7000080B582B000AFFB1D0E
:101E7C0000221A700B4B1A680A4B802149000A4346
:101E8C001A60032000F010F8031E03D0FB1D012282
:101E9C001A7001E0FFF7A2FBFB1D1B781800BD4672
:101EAC0002B080BD0020024090B585B000AF7860D4
:101EBC000F23FB1800221A701D4B1B78002B2BD004
:101ECC001C4B1C681A4B1B781900FA239800FEF760
:101EDC001DF9030019002000FEF718F90300180083
:101EEC0001F06BFB031E12D17B68032B0AD87968B7
:101EFC0001235B420022180001F03AFB0E4B7A687A
:101F0C001A600DE00F23FB1801221A7008E00F2352
:101F1C00FB1801221A7003E00F23FB1801221A7020
:101F2C000F23FB181B781800BD4605B090BDC046AA
:101F3C00240000201C0000202000002080B500AFF1
:101F4C00054B1B781A00054B1B68D218034B1A6003
:101F5C00C046BD4680BDC04624000020D4030020EE
:101F6C0080B500AF024B1B681800BD4680BDC04653
:101F7C00D403002080B584B000AF7860FFF7F0FF89
:101F8C000300BB607B68FB60FB68013305D00A4B28
:101F9C001B781A00FB689B18FB60C046FFF7E0FF3C
:101FAC000200BB68D31AFA689A42F7D8C046C046FA
:101FBC00BD4604B080BDC0462400002080B582B070
:101FCC0000AF786039607B681B68054A1A403B6833
:101FDC001A437B681A60C046BD4602B080BDC0463D
:101FEC00FFFF3FFE80B582B000AF78607B681A6857
:101FFC00E0235B0413401800BD4602B080BD80B5E1
:10200C0084B000AFF860B9607A60FB685B69BA684D
:10201C0004210A40072191400A00D2431A40BB68B0
:10202C0004210B40796899400B001A43FB685A61F4
:10203C00C046BD4604B080BD80B582B000AF7860AC
:10204C0039607B685B693A6804210A40072191403A
:10205C000A001A403B6804210B40DA4013001800B8
:10206C00BD4602B080BD80B582B000AF78607B68A1
:10207C00DA68C0231B01134001D1012300E00023C7
:10208C001800BD4602B080BD80B584B000AFF860CA
:10209C00B9607A60FB689B6ABA681F210A400F21FD
:1020AC0091400A00D2431A407B689B0E0F211940C5
:1020BC00BB681F20034099400B001A43FB689A62CF
:1020CC00C046BD4604B080BD80B582B000AF78601C
:1020DC0039607B689A6A3B685B035B0B1A437B68CD
:1020EC009A62C046BD4602B080BD80B582B000AFDA
:1020FC00786039607B689B6A3A685203520BD24312
:10210C001A407B689A62C046BD4602B080BD80B55D
:10211C0082B000AF78607B68DB6803221340180044
:10212C00BD4602B080BD000080B584B000AFF86041
:10213C00B9607A60FB685B69BA681202D2431A40D4
:10214C00BB681B0279680B4004490B401A43FB68BF
:10215C005A61C046BD4604B080BDC04600FFFF07B3
:10216C0080B582B000AF78607B689B68054A1340ED
:10217C00802252051A437B689A60C046BD4602B065
:10218C0080BDC046E8FFFF6F80B582B000AF7860BD
:10219C007B689A6880235B051A4080235B059A4212
:1021AC0001D1012300E000231800BD4602B080BD20
:1021BC0080B582B000AF78607B689B68044A13409E
:1021CC0001221A437B689A60C046BD4602B080BDAE
:1021DC00E8FFFF7F80B582B000AF78607B689B68BA
:1021EC00044A134002221A437B689A60C046BD46DB
:1021FC0002B080BDE8FFFF7F80B582B000AF786091
:10220C007B689B6801221340012B01D1012300E064
:10221C0000231800BD4602B080BD000080B582B01E
:10222C0000AF78607B689B68044A134004221A4311
:10223C007B689A60C046BD4602B080BDE8FFFF7F58
:10224C0080B582B000AF78607B689B680422134035
:10225C00042B01D1012300E000231800BD4602B07D
:10226C0080BD000080B588B000AF78601F23FB18DC
:10227C0000221A700023BB6100237B610023FB60EA
:10228C007B68002B01D101237FE17B689B6D002BC8
:10229C000AD17B681800FFF7C5F97B680022DA6564
:1022AC007B685422002199547B681B681800FFF747
:1022BC006BFF031E15D17B681B681800FFF750FFDE
:1022CC00B44B1B68B4491800FDF720FF0300013321
:1022DC005B00FB6002E0FB68013BFB60FB68002BD2
:1022EC00F9D17B681B681800FFF74EFF031E0FD156
:1022FC007B689B6D10221A437B689A657B68DB6D4B
:10230C0001221A437B68DA651F23FB1801221A701D
:10231C007B681B681800FFF793FF03003B617B6829
:10232C009B6D1022134000D022E13B69002B00D0A2
:10233C001EE17B689B6D994A134002221A437B680D
:10234C009A657B681B681800FFF756FF031E00D0C8
:10235C00ADE07B689A687B681B7E9B031A437B68A5
:10236C005B7EDB031A437B689B7E5B031A437B68B3
:10237C001B6B002B02D080235B0100E000231A436F
:10238C007B68DB681A437B681B69002B04DA7B686B
:10239C001B695B005B0801E080239B031A437B688D
:1023AC002C215B5C5B001343BA691343BB617B68F4
:1023BC0020229B5C012B15D17B689B7E002B05D1C9
:1023CC00BB69802252021343BB610BE07B689B6D9F
:1023DC0020221A437B689A657B68DB6D01221A43C5
:1023EC007B68DA657B685B6A002B0AD07B685A6A6B
:1023FC00E0235B001A407B689B6A1343BA69134362
:10240C00BB617B681B68DB68654A134019007B68FD
:10241C001B68BA690A43DA607B685B689B0F9A0792
:10242C007B68DB6C13437A6913437B617B683C22CA
:10243C009B5C012B11D17B685B689B0F9A077B68B7
:10244C001B6C1A437B685B6C1A437B689B6C1A434E
:10245C007B691343012213437B617B681B681B69F7
:10246C00504A134019007B681B687A690A431A6149
:10247C007B685A68C0231B069A4218D07B685A683E
:10248C008023DB059A4212D07B685A6880231B0696
:10249C009A420CD0444B1B68444A134019007B6889
:1024AC005A68F0239B031A403F4B0A431A607B681F
:1024BC0018687B685B6B1A000021FFF7A0FD7B6836
:1024CC0018687B689B6B3A491A00FFF798FD7B688C
:1024DC001B69002B09D17B681B689A6A7B681B6897
:1024EC00102149420A439A6218E07B681A698023DA
:1024FC009B039A4212D17B681B689B6A7B68DB69E1
:10250C00013B9B001C221340102252429A401100A6
:10251C007B681A6E7B681B680A439A627B681B682F
:10252C0000211800FFF788FD02007B685B6B9A4264
:10253C000BD17B680022DA657B689B6D0322934389
:10254C0001221A437B689A651CE07B689B6D122202
:10255C00934310221A437B689A657B68DB6D0122DA
:10256C001A437B68DA651F23FB1801221A7009E0F5
:10257C007B689B6D10221A437B689A651F23FB189E
:10258C0001221A701F23FB181B781800BD4608B0D7
:10259C0080BDC0461C000020400D0300FDFEFFFF67
:1025AC000102DEFF02FCFF1F08270140FFFFC3FFF3
:1025BC0004FFFF07B0B586B000AFF860B9607A6071
:1025CC00FB681B681800FFF73BFE031E6CD1FB6811
:1025DC0054229B5C012B01D102236CE0FB6854223A
:1025EC0001219954FB681B68DB680122134013D14D
:1025FC00FB681B681800FFF7FFFD031E04D0FB6887
:10260C001B681800FFF7E6FDFB681B68DA68FB68BF
:10261C001B6801210A43DA6017257C19FB68180036
:10262C0000F066FB030023702C003B191B78002B79
:10263C003ED1FB689B6D224A1340802252001A4304
:10264C00FB689A65FB680022DA65FB681B6D1D4A06
:10265C00DA62FB681B6D1C4A1A63FB681B6D1B4A14
:10266C005A63FB681B681C221A60FB685422002109
:10267C009954FB681B685A68FB681B6810210A4355
:10268C005A60FB68186DFB681B6840331900BA6808
:10269C003C197B6801F066FA03002370FB681B6829
:1026AC001800FFF7BBFD03E01723FB1802221A707A
:1026BC001723FB181B781800BD4606B0B0BDC046EA
:1026CC00FEF0FFFF092E0008D12E0008EF2E0008A7
:1026DC0080B586B000AF786000237B617B681B6897
:1026EC001B683B617B681B685B68FB603B69022273
:1026FC00134017D0FB680222134013D07B689B6DEC
:10270C001022134006D17B689B6D802212011A4364
:10271C007B689A657B68180000F00EFC7B681B6870
:10272C0002221A603B690422134003D0FB68042286
:10273C00134007D13B69082213404DD0FB68082297
:10274C00134049D07B689B6D1022134006D17B68E7
:10275C009B6D802292001A437B689A657B681B688C
:10276C001800FFF780FC031E2ED07B689B7E002B8D
:10277C002AD17B681B681B6808221340082B23D1C5
:10278C007B681B681800FFF75BFD031E10D17B688C
:10279C001B685A687B681B680C218A435A607B68EB
:1027AC009B6D564A134001221A437B689A650BE0D5
:1027BC007B689B6D20221A437B689A657B68DB6D76
:1027CC0001221A437B68DA657B68180000F098F8E0
:1027DC007B681B680C221A603B698022134012D064
:1027EC00FB68802213400ED07B689B6D80225202C6
:1027FC001A437B689A657B68180000F091F87B6837
:10280C001B6880221A603A6980235B00134014D045
:10281C00FA6880235B0013400FD07B689B6D80228D
:10282C0092021A437B689A657B68180000F074FB6F
:10283C007B681B68802252001A603A6980239B00D7
:10284C00134014D0FA6880239B0013400FD07B6890
:10285C009B6D8022D2021A437B689A657B681800B4
:10286C0000F062FB7B681B68802292001A603B6957
:10287C00102213402BD0FB681022134027D07B680A
:10288C001B6B002B02D101237B6108E07B681B686A
:10289C001800FFF73CFC031E01D001237B617B6910
:1028AC00012B10D17B689B6D8022D2001A437B6870
:1028BC009A657B68DB6D02221A437B68DA657B685C
:1028CC00180000F035F87B681B6810221A603A6912
:1028DC0080239B0113400DD0FA6880239B01134089
:1028EC0008D07B68180000F02FFB7B681B688022E7
:1028FC0092011A60C046BD4606B080BDFEFEFFFFC9
:10290C0080B582B000AF7860C046BD4602B080BDD5
:10291C0080B582B000AF7860C046BD4602B080BDC5
:10292C0080B582B000AF7860C046BD4602B080BDB5
:10293C0080B582B000AF7860C046BD4602B080BDA5
:10294C0080B586B000AF786039601723FB18002281
:10295C001A700023FB607B6854229B5C012B01D115
:10296C000223C0E17B685422012199547B681B68C7
:10297C001800FFF765FC031E00D0A3E13B685B6801
:10298C00022B00D143E17B681A6980231B069A4213
:10299C0004D07B681B69C14A934208D17B681A68D2
:1029AC003B681B6819001000FFF78EFBC9E07B68C1
:1029BC001A6E3B685B681F210B400F2199400B007E
:1029CC00DB43134019003B681B685B035B0B05D1B1
:1029DC003B681B689B0E1F22134098E03B681B68EA
:1029EC000122134000D091E03B681B680222134087
:1029FC0000D089E03B681B680422134000D081E0C2
:102A0C003B681B680822134000D079E03B681B68C8
:102A1C001022134000D071E03B681B682022134049
:102A2C0000D069E03B681B684022134000D061E095
:102A3C003B681B688022134000D059E03B681A6841
:102A4C0080235B00134051D13B681A6880239B00A4
:102A5C00134049D13B681A688023DB00134041D1F5
:102A6C003B681A6880231B01134039D13B681A68F4
:102A7C0080235B01134031D13B681A6880239B0192
:102A8C00134029D13B681A688023DB01134021D104
:102A9C003B681A6880231B02134019D13B681A68E3
:102AAC0080235B02134011D13B681A6880239B0280
:102ABC00134009D13B681A688023DB02134001D014
:102ACC00122324E0002322E0112320E010231EE037
:102ADC000F231CE00E231AE00D2318E00C2316E044
:102AEC000B2314E00A2312E0092310E008230EE064
:102AFC0007230CE006230AE0052308E0042306E084
:102B0C00032304E0022302E0012300E000233A68DF
:102B1C0052681F20024093400A001A437B681A66D1
:102B2C003B685B689B085A1C7B68DB699A4208D837
:102B3C007B6818683B6859683B681B681A00FFF78C
:102B4C00A3FA7B6818683B6819683B689B681A0095
:102B5C00FFF7EAFA3B681B68002B00DBBCE0504B2C
:102B6C001800FFF73FFA03003B613B681B684D4AB6
:102B7C00934222D13A6980231B0413401DD13B6937
:102B8C00802212041343464A19001000FFF716FA6C
:102B9C00454B1B6845491800FDF7B8FA03005A1C51
:102BAC0013005B009B189B00FB6002E0FB68013B81
:102BBC00FB60FB68002BF9D18EE03B681B683C4A3C
:102BCC0093420ED13A6980235B04134009D13B69CF
:102BDC00802252041343324A19001000FFF7EEF919
:102BEC007AE03B681B68334A934200D074E03A6940
:102BFC008023DB03134000D06EE03B698022D203BC
:102C0C001343274A19001000FFF7D8F964E07B68DA
:102C1C001A6980231B069A4204D07B681B691F4AE1
:102C2C00934207D17B681A683B681B681900100037
:102C3C00FFF75BFA3B681B68002B4DDA184B18004A
:102C4C00FFF7D0F903003B613B681B68154A9342C0
:102C5C0008D13B69184A1340114A19001000FFF7BC
:102C6C00ADF939E03B681B68114A934208D13B69C6
:102C7C00124A13400A4A19001000FFF79FF92BE083
:102C8C003B681B680B4A934226D13B690C4A1340A4
:102C9C00034A19001000FFF791F91DE004000080B1
:102CAC0008270140001000B01C000020400D03005C
:102CBC00004000B8002000B4FFFF7FFFFFFFFFFEC5
:102CCC00FFFFBFFF7B689B6D20221A437B689A65D0
:102CDC001723FB1801221A707B6854220021995487
:102CEC001723FB181B781800BD4606B080BDC046E4
:102CFC0080B584B000AF78600023BB607B681B6834
:102D0C001800FFF779FA031E00D069E07B681B6896
:102D1C009B68364A13400DD07B689B6D10221A437A
:102D2C007B689A657B68DB6D01221A437B68DA65E8
:102D3C00012356E07B681B681800FFF739FA2C4B0F
:102D4C001800FFF74FF9020080231B0413400FD02B
:102D5C00284B1B6828491800FDF7D8F903000133EC
:102D6C00BB6002E0BB68013BBB60BB68002BF9D1C8
:102D7C007B685B7E012B33D0FFF7F2F80300FB601E
:102D8C0027E07B681B681800FFF736FA031E04D196
:102D9C007B681B681800FFF70BFAFFF7E1F80200DD
:102DAC00FB68D31A022B14D97B681B681B680122A1
:102DBC001340012B0DD07B689B6D10221A437B684E
:102DCC009A657B68DB6D01221A437B68DA65012307
:102DDC0007E07B681B681B6801221340012BD0D1D4
:102DEC0000231800BD4604B080BDC046170000800B
:102DFC00082701401C000020400D030080B584B062
:102E0C0000AF78607B689B6AFB60FB689B6D50220F
:102E1C00134041D1FB689B6D802292001A43FB68E2
:102E2C009A65FB681B681800FFF71DF9031E2ED06E
:102E3C00FB689B7E002B2AD1FB681B681B68082251
:102E4C001340082B23D1FB681B681800FFF7F8F917
:102E5C00031E10D1FB681B685A68FB681B680C21A9
:102E6C008A435A60FB689B6D154A134001221A4332
:102E7C00FB689A650BE0FB689B6D20221A43FB688C
:102E8C009A65FB68DB6D01221A43FB68DA65FB6807
:102E9C001800FFF735FD0FE0FB689B6D1022134007
:102EAC0004D0FB681800FFF743FD05E0FB681B6DC1
:102EBC005B6B7A6810009847C046BD4604B080BD75
:102ECC00FEFEFFFF80B584B000AF78607B689B6A24
:102EDC00FB60FB681800FFF71BFDC046BD4604B045
:102EEC0080BD80B584B000AF78607B689B6AFB6066
:102EFC00FB689B6D40221A43FB689A65FB68DB6D8F
:102F0C0004221A43FB68DA65FB681800FFF710FD12
:102F1C00C046BD4604B080BD80B582B000AF7860BD
:102F2C00C046BD4602B080BD80B582B000AF7860AF
:102F3C00C046BD4602B080BD80B582B000AF78609F
:102F4C00C046BD4602B080BD80B582B000AF78608F
:102F5C00C046BD4602B080BD80B582B000AF78607F
:102F6C00054A8023D25804497B68134380228B5036
:102F7C00C046BD4602B080BD0018024080B582B08C
:102F8C0000AF7860064A8023D3587A68D24304494C
:102F9C00134080228B50C046BD4602B080BDC04657
:102FAC000018024080B582B000AF7860054A8423D7
:102FBC00D25804497B68134384228B50C046BD46CB
:102FCC0002B080BD0018024080B582B000AF7860BE
:102FDC00064A8423D3587A68D24304491340842286
:102FEC008B50C046BD4602B080BDC04600180240A2
:102FFC0080B582B000AF7860044B1968034B7A68D7
:10300C000A431A60C046BD4602B080BD001802409B
:10301C0080B582B000AF7860054B1A687B68D943E5
:10302C00034B0A401A60C046BD4602B080BDC04684
:10303C000018024080B582B000AF7860044B59682C
:10304C00034B7A680A435A60C046BD4602B080BD45
:10305C000018024080B582B000AF7860054B5A680A
:10306C007B68D943034B0A405A60C046BD4602B048
:10307C0080BDC0460018024080B582B000AF7860B9
:10308C00034B7A681A61C046BD4602B080BDC0468B
:10309C000018024080B582B000AF7860034B7A68AC
:1030AC00DA60C046BD4602B080BDC0460018024082
:1030BC0080B588B000AF78600023FB601F217B18BF
:1030CC0000221A707B68002B03D17B1801221A7026
:1030DC003DE17B681B681B68DB0FDA0780231B064E
:1030EC009A4204D11F23FB1801221A702FE17B682E
:1030FC0029229B5CDBB2002B0AD17B6828220021A1
:10310C0099547B680022DA627B681800FEF732FB68
:10311C007B681B681B6830221340BB617B685A6953
:10312C007B681B691A437B681B6A1A437B689B6923
:10313C001A437B68DB691A437B68DB6813437B614A
:10314C007B681B681B68854A134019007B681B68E9
:10315C007A690A431A607B685A6880231B019A4279
:10316C000DD17F4B1A687E4B7E490A401A607C4B0E
:10317C005A687B4B802109010A435A601FE07B6827
:10318C005A68C0235B019A420DD1754B1A68744B77
:10319C00802109010A431A60714B5A68704B7149BE
:1031AC000A405A600BE06E4B1A686D4B6D490A4031
:1031BC001A606B4B5A686A4B6A490A405A607B68C2
:1031CC009B68A022D201934217D0A022D201934235
:1031DC0030D8012B1FD08022D20193422AD1604BD0
:1031EC001A685F4B8021C9010A431A605C4B5A680C
:1031FC005B4B5D490A405A6029E0594B1A68584BA1
:10320C0059490A401A60564B5A68554B8021C901DE
:10321C000A435A601BE0524B1A68514B8021C9017A
:10322C000A431A604E4B5A684D4B8021C9010A4320
:10323C005A600CE04A4B1A68494B4B490A401A60D9
:10324C00474B5A68464B48490A405A60C0467B680F
:10325C001B681B683022134016D0BB69002B13D19E
:10326C00424B1B6842491800FCF750FF03005A1CE4
:10327C0013009B009B189B00FB6002E0FB68013B6A
:10328C00FB60FB68002BF9D17B681B68344A9342C6
:10329C0002D180239B0201E08023DB023B617B682F
:1032AC005B6A0322134040D07B685B6A1022134098
:1032BC0004D03B691800FFF79BFE03E03B69180044
:1032CC00FFF7A6FE7B685B6A2022134004D03B69A3
:1032DC001800FFF7AFFE03E03B691800FFF7BAFEDA
:1032EC003B691800FFF7D6FE3B691800FFF7C4FED8
:1032FC007B685B6A0222134004D03B691800FFF71D
:10330C0051FE03E03B691800FFF75EFE7B685B6AC9
:10331C000122134004D03B691800FFF71DFE0CE09E
:10332C003B691800FFF72AFE07E03B691800FFF71E
:10333C004BFE3B691800FFF721FE7B6829229B5C42
:10334C00DBB2002B03D17B682922012199541F2366
:10335C00FB181B781800BD4608B080BD0F7400FE2A
:10336C0000020140FFF7FFFFFFBFFFFF1C00002022
:10337C00400D030080B584B000AF78600023BB60C3
:10338C000F217B1800221A707B68002B03D17B184D
:10339C0001221A7035E07B681B681B68DB0FDA07AB
:1033AC0080231B069A4204D10F23FB1801221A70AA
:1033BC0027E07B6829229B5CDBB2012B1DD17B684B
:1033CC001B681A687B681B6801210A431A607B68BA
:1033DC002922022199540E4B1B680E491800FCF748
:1033EC0095FE03000133DB00BB6002E0BB68013BD0
:1033FC00BB60BB68002BF9D103E00F23FB18012243
:10340C001A700F23FB181B781800BD4604B080BD42
:10341C001C000020400D030080B582B000AF0200FC
:10342C00FB1D1A70FB1D1B787F2B09D8FB1D1B780D
:10343C001A001F231A40044B012191400A001A6004
:10344C00C046BD4602B080BD00E100E090B583B03F
:10345C0000AF02003960FB1D1A70FB1D1B787F2B1F
:10346C0028D82F4AFB1D1B785BB29B08C0339B00EE
:10347C009B58FA1D1278110003220A40D200FF213A
:10348C0091400A00D2431A4011003B689B01FF2275
:10349C001A40FB1D1B78180003230340DB009A40E5
:1034AC001F48FB1D1B785BB29B080A43C0339B0073
:1034BC001A5031E01B4AFB1D1B7819000F230B40DF
:1034CC00083B9B0806339B00D31804331B68FA1D7A
:1034DC001278110003220A40D200FF2191400A0009
:1034EC00D2431A4011003B689B01FF221A40FB1D7E
:1034FC001B78180003230340DB009A400948FB1D8E
:10350C001B781C000F232340083B9B080A430633FF
:10351C009B00C31804331A60C046BD4603B090BD6F
:10352C0000E100E000ED00E080B582B000AF786013
:10353C007B685A1E80235B049A4201D3012310E05E
:10354C000A4B7A68013A5A6001235B420321180046
:10355C00FFF77CFF054B00229A60044B07221A6090
:10356C0000231800BD4602B080BDC04610E000E04C
:10357C0080B584B000AFB9607A600F217B18021C53
:10358C001A70BA687B181B785BB211001800FFF731
:10359C005DFFC046BD4604B080BD80B582B000AFB3
:1035AC000200FB1D1A70FB1D1B785BB21800FFF7A5
:1035BC0033FFC046BD4602B080BD80B582B000AFBF
:1035CC0078607B681800FFF7AFFF03001800BD465A
:1035DC0002B080BD80B582B000AF78607B68002BF4
:1035EC0001D1012315E07B681B79DBB2002B06D1DE
:1035FC007B6800225A717B681800FEF7F1F87B6833
:10360C0002221A717B6800221A617B6801221A71EE
:10361C0000231800BD4602B080BD80B582B000AF5B
:10362C00786039607B68002B01D1012347E07B680F
:10363C005B79012B01D1022341E07B6801225A7195
:10364C007B6802221A717B681B6819683B68102220
:10365C00134001229A407B681B680A431A603B683E
:10366C00002B0FD17B681B681B683E221340022B7A
:10367C001ED17B681B685A687B681B6801210A4352
:10368C005A6015E07B681B681A68F8239B031A4084
:10369C003B6810210B40022199400B009A4207D144
:1036AC007B681B685A687B681B6802210A435A6056
:1036BC007B6801221A717B6800225A710023180062
:1036CC00BD4602B080BD000080B584B000AF78600C
:1036DC007B681B681B68FB607B681B685B6BBB6053
:1036EC00FA6880239B0113401ED0BA6880239B018B
:1036FC00134019D07B6804221A717B681B69012264
:10370C001A437B681A617B681B68802292015A639A
:10371C007B681B681A687B681B6817490A401A602B
:10372C007B68180000F053F8FA6880239B0513405F
:10373C001ED0BA6880239B05134019D07B680422E5
:10374C001A717B681B6902221A437B681A617B68B9
:10375C001B68802292055A637B681B681A687B6819
:10376C001B6806490A401A607B68180000F068F96B
:10377C00C046BD4604B080BDFFEFFFFFFFFFFFEF6B
:10378C0080B586B000AFF860B9607A603B6000230A
:10379C007B61FB68002B01D1012314E0FB681B68E3
:1037AC007B61BB68002B05D17A697B68D318083321
:1037BC007B6104E07A697B68D31814337B617B6985
:1037CC003A681A6000231800BD4606B080BD80B56B
:1037DC0082B000AF7860C046BD4602B080BD00002C
:1037EC0080B588B000AFF860B9607A601F23FB1811
:1037FC0000221A70FB68002B02D0BB68002B01D191
:10380C00012315E1FB685B79012B01D102230FE148
:10381C00FB6801225A71FB6802221A71BB681B6893
:10382C00042B00D07AE0FEF79BFB0300BB617B68A6
:10383C00002B3DD118E0FEF793FB0200BB69D31AB5
:10384C00012B11D9FB681B685A6B80231B02134098
:10385C000AD0FB681B6908221A43FB681A61FB68D3
:10386C0003221A710323E3E0FB681B685A6B802365
:10387C001B021340DFD1FB681B68BA6892691A649B
:10388C0020E0FEF76DFB0200BB69D31A012B0FD9A8
:10389C00FB681B685B6B002B0ADAFB681B69082250
:1038AC001A43FB681A61FB6803221A710323BFE0F9
:1038BC00FB681B685B6B002BE3DBFB681B68BA685F
:1038CC0092695A64FB681B689B6C7A6810210A40E9
:1038DC00594991400A00D2431A401100BB68DA6979
:1038EC007B68102003409A40FB681B680A439A646B
:1038FC00FB681B68DB6C7A6810210A40FF21914041
:10390C000A00D2431A401100BB681A6A7B68102067
:10391C0003409A40FB681B680A43DA64BB681B6966
:10392C00012B1DD1FB681B689B6B7B617B68102294
:10393C0013401F229A401300DA437B6913407B61CA
:10394C00BB685B693B617B68102213403A699A4003
:10395C0013007A6913437B61FB681B687A699A636D
:10396C00FB681B68DB6B7B617B68102213400722B2
:10397C009A401300DA437B6913407B61BB681A6879
:10398C00BB689B681A43BB68DB6813433B617B686D
:10399C00102213403A699A4013007A6913437B61F1
:1039AC00FB681B687A69DA63FB681B681A687B68BA
:1039BC0010210B408021C90199400B00D943FB68B1
:1039CC001B680A401A60FB681B681B687B617B687C
:1039DC0010221340194A9A401300DA437B691340B2
:1039EC007B61BB685B683B617B68102213403A6962
:1039FC009A4013007A6913437B61FB681B687A69F0
:103A0C001A60FB681B681A687B6810210B40C02188
:103A1C0099400B00D943FB681B680A401A60FB688D
:103A2C0001221A71FB6800225A711F23FB181B78A4
:103A3C001800BD4608B080BDFF030000FE0F00005B
:103A4C0080B582B000AF7860C046BD4602B080BD84
:103A5C0080B582B000AF78607B68002B01D1012368
:103A6C0077E07B681B683D4A944663441421180038
:103A7C00FCF74CFB03009A007B681A647B682522D8
:103A8C00022199547B681B681A687B681B6834494F
:103A9C000A401A607B681B6819687B689A687B68A7
:103AAC00DB681A437B681B691A437B685B691A43A2
:103ABC007B689B691A437B68DB691A437B681B6ACA
:103ACC001A437B681B680A431A607B68180000F075
:103ADC00C1F97B689A688023DB019A4202D17B682A
:103AEC0000225A607B685A687B685B6C3F210A40F5
:103AFC001A607B689B6C7A68D26C5A607B685B68D6
:103B0C00002B11D07B685B68042B0DD87B681800E8
:103B1C0000F0CCF97B681B6D00221A607B685B6D32
:103B2C007A68926D5A6008E07B6800221A657B689F
:103B3C0000225A657B6800229A657B680022DA6352
:103B4C007B682522012199547B68242200219954F9
:103B5C0000231800BD4602B080BDC046F8FFFDBF73
:103B6C000F80FFFF80B586B000AFF860B9607A6057
:103B7C003B601723FB1800221A70FB6824229B5C05
:103B8C00012B01D102236FE0FB68242201219954FF
:103B9C00FB6825229B5CDBB2012B57D1FB682522ED
:103BAC0002219954FB680022DA63FB681B681A68CF
:103BBC00FB681B6801218A431A603B687A68B96804
:103BCC00F86800F007F9FB681B6B002B08D0FB684A
:103BDC001B681A68FB681B680E210A431A600FE009
:103BEC00FB681B681A68FB681B6804218A431A600F
:103BFC00FB681B681A68FB681B680A210A431A6079
:103C0C00FB685B6C1A6880235B02134008D0FB686E
:103C1C005B6C1A68FB685B6C802149000A431A6074
:103C2C00FB681B6D002B08D0FB681B6D1A68FB68CA
:103C3C001B6D802149000A431A60FB681B681A68D7
:103C4C00FB681B6801210A431A600AE0FB688022AA
:103C5C00DA63FB682422002199541723FB180122F4
:103C6C001A701723FB181B781800BD4606B080BDD0
:103C7C0080B584B000AF7860554B1B68FB607B68E7
:103C8C001B681B68BB607B681B6C1C2213400422E6
:103C9C009A401300FA68134027D0BB6804221340E3
:103CAC0023D07B681B681B682022134007D17B68DC
:103CBC001B681A687B681B6804218A431A60444B92
:103CCC0059687B681B6C1C22134004229A40404BA1
:103CDC000A435A607B681B6B002B00D173E07B6836
:103CEC001B6B7A68100098476DE07B681B6C1C227C
:103CFC00134002229A401300FA6813402ED0BB687E
:103D0C00022213402AD07B681B681B6820221340B8
:103D1C000BD17B681B681A687B681B680A218A4375
:103D2C001A607B68252201219954294B59687B68BC
:103D3C001B6C1C22134002229A40254B0A435A60EA
:103D4C007B682422002199547B68DB6A002B3AD0D3
:103D5C007B68DB6A7A681000984734E07B681B6CE0
:103D6C001C22134008229A401300FA6813402BD0EF
:103D7C00BB680822134027D07B681B681A687B68D5
:103D8C001B680E218A431A60114B59687B681B6CA7
:103D9C001C22134001229A400D4B0A435A607B6847
:103DAC000122DA637B682522012199547B68242245
:103DBC00002199547B685B6B002B05D07B685B6B97
:103DCC007A6810009847C046C046BD4604B080BD16
:103DDC000000024080B584B000AFF860B9607A6032
:103DEC003B60FB689B6CFA68D26C5A60FB681B6D7D
:103DFC00002B04D0FB685B6DFA68926D5A60144B13
:103E0C005968FB681B6C1C22134001229A40104B12
:103E1C000A435A60FB681B683A685A60FB689B68E7
:103E2C00102B08D1FB681B687A689A60FB681B68CA
:103E3C00BA68DA6007E0FB681B68BA689A60FB68CE
:103E4C001B687A68DA60C046BD4604B080BDC046C7
:103E5C000000024080B584B000AF78607B681B6CBA
:103E6C009B08104A944663449B001A007B685A6472
:103E7C007B681B681A00FF231340083B14211800B1
:103E8C00FCF744F90300FB607B68074A9A64FB6803
:103E9C001F22134001229A407B68DA64C046BD465B
:103EAC0004B080BD008200108008024080B584B050
:103EBC0000AF78607B685B683F221340FB60FB6857
:103ECC000A4A944663449B001A007B681A657B6817
:103EDC00074A5A65FB68013B0322134001229A40B2
:103EEC007B689A65C046BD4604B080BD3F82001019
:103EFC004009024080B586B000AF7860396000237D
:103F0C007B6147E13B681B6801217A6991400A009B
:103F1C001340FB60FB68002B00D138E13B685B6809
:103F2C0003221340012B05D03B685B68032213402E
:103F3C00022B30D17B689B683B617B695B00032261
:103F4C009A401300DA433B6913403B613B68DA68E3
:103F5C007B695B009A4013003A6913433B617B68B1
:103F6C003A699A607B685B683B6101227B699A4085
:103F7C001300DA433B6913403B613B685B681B09E8
:103F8C0001221A407B699A4013003A6913433B6142
:103F9C007B683A695A603B685B6803221340032BC9
:103FAC0017D07B68DB683B617B695B0003229A401E
:103FBC001300DA433B6913403B613B689A687B69A9
:103FCC005B009A4013003A6913433B617B683A6982
:103FDC00DA603B685B6803221340022B23D17B69B8
:103FEC00DA087B6808329200D3583B617B69072260
:103FFC0013409B000F229A401300DA433B69134095
:10400C003B613B681A697B6907210B409B009A4016
:10401C0013003A6913433B617B69DA087B68083209
:10402C0092003969D1507B681B683B617B695B00EE
:10403C0003229A401300DA433B6913403B613B680F
:10404C005B6803221A407B695B009A4013003A6953
:10405C0013433B617B683A691A603B685A68C0231A
:10406C009B02134000D192E0504A7B699B081833A5
:10407C009B009B583B617B6903221340DB000F22A2
:10408C009A401300DA433B6913403B617A68A023E2
:10409C00DB059A4213D07B68454A93420DD07B686E
:1040AC00444A934207D07B68434A934201D103238D
:1040BC0006E0052304E0022302E0012300E00023D4
:1040CC007A6903210A40D20093403A6913433B6159
:1040DC0036497B699B0818339B003A695A50334B1D
:1040EC001B683B61FB68DA433B6913403B613B68EF
:1040FC005A6880235B03134003D03A69FB6813436F
:10410C003B612A4B3A691A60284B5B683B61FB6840
:10411C00DA433B6913403B613B685A6880239B033D
:10412C00134003D03A69FB6813433B611F4B3A6958
:10413C005A601E4A8423D3583B61FB68DA433B69BF
:10414C0013403B613B685A6880239B02134003D0A9
:10415C003A69FB6813433B61144984223B698B50D9
:10416C00124A8023D3583B61FB68DA433B69134006
:10417C003B613B685A6880235B02134003D03A6969
:10418C00FB6813433B61094980223B698B507B6977
:10419C0001337B613B681A687B69DA40131E00D0DF
:1041AC00B0E6C046C046BD4606B080BD0018024011
:1041BC000004005000080050000C005080B584B082
:1041CC0000AF78600A00BB1C1A807B681B69BA1CA4
:1041DC001288134004D00F23FB1801221A7003E03D
:1041EC000F23FB1800221A700F23FB181B781800E2
:1041FC00BD4604B080BD80B582B000AF78600800C9
:10420C001100BB1C021C1A807B1C0A1C1A707B1C24
:10421C001B78002B04D0BB1C1A887B689A6103E0C6
:10422C00BB1C1A887B689A62C046BD4602B080BD32
:10423C0080B584B000AF78600A00BB1C1A807B6824
:10424C005B69FB60BB1C1B88FA6813401A04FB6893
:10425C00DB43B91C09880B401A437B689A61C04642
:10426C00BD4604B080BD000080B584B000AF78605E
:10427C00194B1B68194A13401900174B7A680A43EB
:10428C001A607A6880239B009A421FD1144B1A68DB
:10429C0013005B009B185B0012491800FBF736FFFC
:1042AC0003000133FB6008E0FB68002B03D0FB68C4
:1042BC00013BFB6001E0032309E0074B5A698023B3
:1042CC00DB001A408023DB009A42EDD0002318005B
:1042DC00BD4604B080BDC04600700040FFF9FFFF32
:1042EC001C00002040420F0080B500AF034B9A68C1
:1042FC00E023DB0113401800BD4680BD00100240D6
:10430C0080B588B000AF78607B68002B01D10123A9
:10431C00FEE27B681B680122134000D17CE0C34B9A
:10432C009B6838221340BB61C04BDB6803221340EF
:10433C007B61BB69102B02D17B69032B02D0BB695B
:10434C00082B0BD1B94B1A6880239B02134062D007
:10435C007B685B68002B5ED10123D9E27B685A68CD
:10436C0080235B029A4207D1B04B1A68AF4B802175
:10437C0049020A431A6020E07B685A68A023DB02DA
:10438C009A420ED1A94B1A68A84B8021C9020A4344
:10439C001A60A64B1A68A54B802149020A431A6081
:1043AC000BE0A24B1A68A14BA1490A401A609F4B23
:1043BC001A689E4B9F490A401A607B685B68002B09
:1043CC0014D0FDF7CDFD03003B6108E0FDF7C8FDFF
:1043DC0002003B69D31A642B01D9032398E2934B57
:1043EC001A6880239B021340F0D015E0FDF7B8FD4E
:1043FC0003003B6108E0FDF7B3FD02003B69D31AF3
:10440C00642B01D9032383E2884B1A6880239B0217
:10441C001340F0D100E0C0467B681B6802221340B9
:10442C0000D199E0814B9B6838221340BB617F4BD4
:10443C00DB68032213407B61BB69102B02D17B69C3
:10444C00022B02D0BB69002B35D1784B1A68802324
:10445C00DB00134005D07B68DB68002B01D1012306
:10446C0056E2724B5B68744A134019007B685B69B7
:10447C001A026E4B0A435A60BB69002B12D16B4B6C
:10448C001B686E4A134019007B681A69674B0A4314
:10449C001A60664B1B68DB0A07221340684ADA4035
:1044AC00684B1A60684B1B681800FDF7FDFC031E77
:1044BC0051D001232CE27B68DB68002B30D05B4BA6
:1044CC001B685E4A134019007B681A69574B0A43F4
:1044DC001A60564B1A68554B802149000A431A60E2
:1044EC00FDF73EFD03003B6108E0FDF739FD0200DE
:1044FC003B69D31A022B01D9032309E24B4B1A68EF
:10450C008023DB001340F0D0484B5B684A4A1340D1
:10451C0019007B685B691A02444B0A435A601BE022
:10452C00424B1A68414B49490A401A60FDF718FD85
:10453C0003003B6108E0FDF713FD02003B69D31A51
:10454C00022B01D90323E3E1384B1A688023DB00EB
:10455C001340F0D100E0C0467B681B680822134072
:10456C0047D0324B9B6838221340182B0AD12F4B63
:10457C001B6E022213403CD07B689B69002B38D108
:10458C000123C5E17B689B69002B19D0274B1A6E60
:10459C00264B01210A431A66FDF7E2FC03003B613E
:1045AC0008E0FDF7DDFC02003B69D31A022B01D9B0
:1045BC000323ADE11D4B1B6E02221340F1D018E01A
:1045CC001A4B1A6E194B01218A431A66FDF7C8FC67
:1045DC0003003B6108E0FDF7C3FC02003B69D31A02
:1045EC00022B01D9032393E1104B1B6E02221340C3
:1045FC00F1D17B681B680422134000D1C6E01F2355
:10460C00FB1800221A70094B9B6838221340202B90
:10461C001ED1064BDB6D0222134000D1B6E07B6845
:10462C009B68002B00D0B1E0012371E10010024027
:10463C00FFFFFEFFFFFFFBFFFF80FFFFFFC7FFFF3A
:10464C000024F4001C00002020000020FFFEFFFFCF
:10465C00B14BDA6B80235B05134001D1012300E0E1
:10466C000023002B11D0AC4BDA6BAB4B80214905EE
:10467C000A43DA63A84BDA6B80235B051340FB60BB
:10468C00FB681F23FB1801221A70A44B1A688023A5
:10469C005B0013401AD1A14B1A68A04B8021490032
:1046AC000A431A60FDF75CFC03003B6108E0FDF770
:1046BC0057FC02003B69D31A022B01D9032327E1D3
:1046CC00964B1A6880235B001340F0D07B689B6884
:1046DC00012B06D1904BDA6D8F4B01210A43DA6521
:1046EC001CE07B689B68052B0CD18B4BDA6D8A4BDD
:1046FC0004210A43DA65884BDA6D874B01210A43A2
:10470C00DA650BE0844BDA6D834B01218A43DA6561
:10471C00814BDA6D804B04218A43DA657B689B6898
:10472C00002B14D0FDF71CFC03003B6109E0FDF7E6
:10473C0017FC02003B69D31A794A934201D903232F
:10474C00E6E0754BDB6D02221340F0D013E0FDF771
:10475C0007FC03003B6109E0FDF702FC02003B692A
:10476C00D31A6F4A934201D90323D1E06A4BDB6D14
:10477C0002221340F0D11F23FB181B78012B05D10B
:10478C00654BDA6B644B67490A40DA637B68DB691B
:10479C00002B00D1BBE0604B9B6838221340102BE0
:1047AC0000D17BE07B68DB69022B56D15A4B1A682F
:1047BC00594B5D490A401A60FDF7D2FB03003B617F
:1047CC0008E0FDF7CDFB02003B69D31A022B01D99F
:1047DC0003239DE0504B1A6880239B041340F0D1B7
:1047EC004D4BDB68514A134019007B681A6A7B6891
:1047FC005B6A1A437B689B6A1B021A437B68DB6A01
:10480C001A437B681B6B1A437B685B6B1A43424BE6
:10481C000A43DA60404B1A683F4B802149040A4333
:10482C001A603D4BDA683C4B802149050A43DA603B
:10483C00FDF796FB03003B6108E0FDF791FB0200DE
:10484C003B69D31A022B01D9032361E0324B1A685E
:10485C0080239B041340F0D059E02F4B1A682E4B49
:10486C0031490A401A60FDF77BFB03003B6108E00D
:10487C00FDF776FB02003B69D31A022B01D9032307
:10488C0046E0254B1A6880239B041340F0D1224B41
:10489C00DA68214B26490A40DA6038E07B68DB692C
:1048AC00012B01D1012333E01B4BDB687B617B695E
:1048BC0003221A407B681B6A9A4226D17B697022BC
:1048CC001A407B685B6A9A421FD17A69FE23DB012E
:1048DC001A407B689B6A1B029A4216D17A69F823AC
:1048EC009B031A407B68DB6A9A420ED17A69E023FB
:1048FC001B051A407B681B6B9A4206D17B695B0FC8
:10490C005A077B685B6B9A4201D0012300E00023BD
:10491C001800BD4608B080BD001002400070004079
:10492C0088130000FFFFFFEFFFFFFFFE8C80C1111B
:10493C00FCFFFEEE80B584B000AF786039607B6818
:10494C00002B01D10123E9E0764B1B6807221340B1
:10495C003A689A421ED9734B1B680722934319007D
:10496C00704B3A680A431A60FDF7FAFA0300FB60D1
:10497C0009E0FDF7F5FA0200FB68D31A6A4A934284
:10498C0001D90323CAE0674B1B68072213403A681E
:10499C009A42EED17B681B680222134015D07B68CB
:1049AC001B680422134006D0604B9A685F4BE021D1
:1049BC00C9010A439A605D4B9B685D4A134019001C
:1049CC007B689A68594B0A439A607B681B68012282
:1049DC00134057D07B685B68012B07D1534B1A6887
:1049EC0080239B0213402BD1012397E07B685B68EB
:1049FC00022B07D14D4B1A6880239B0413401FD107
:104A0C0001238BE07B685B68002B07D1474B1A684E
:104A1C008023DB00134013D101237FE07B685B68AC
:104A2C00032B06D1414B1B6E0222134008D10123EC
:104A3C0074E03E4BDB6D0222134001D101236DE08B
:104A4C003A4B9B680722934319007B685A68374B93
:104A5C000A439A60FDF784FA0300FB6009E0FDF756
:104A6C007FFA0200FB68D31A2F4A934201D9032321
:104A7C0054E02E4B9B6838221A407B685B68DB0045
:104A8C009A42ECD1274B1B68072213403A689A4292
:104A9C001ED2244B1B68072293431900214B3A6802
:104AAC000A431A60FDF75CFA0300FB6009E0FDF7AE
:104ABC0057FA0200FB68D31A1B4A934201D903230D
:104ACC002CE0184B1B68072213403A689A42EED12F
:104ADC007B681B680422134009D0144B9B68154A51
:104AEC00134019007B68DA68104B0A439A6000F097
:104AFC0029F801000D4B9B681B0A0F221A400E4B24
:104B0C009200D3581F2213400A00DA400B4B1A6054
:104B1C000B4B1B681800FDF7C7F903001800BD46C6
:104B2C0004B080BD00200240881300000010024039
:104B3C00FFF0FFFFFF8FFFFFBC8300081C0000206D
:104B4C002000002080B586B000AF3C4B9B6838221B
:104B5C0013400FD1394B1B68DB0A0722134001228B
:104B6C009A4013003B6039683548FBF7CFFA0300D5
:104B7C003B615DE0314B9B6838221340082B02D11E
:104B8C00304B3B6154E02D4B9B6838221340102B6B
:104B9C0038D12A4BDB6803221340FB60274BDB68C0
:104BAC001B09072213400133BB60FB68032B0DD19B
:104BBC00B9682448FBF7AAFA030019001F4BDB68FD
:104BCC001B0A7F2213404B437B610DE0B9681C48E4
:104BDC00FBF79CFA03001900184BDB681B0A7F22B9
:104BEC0013404B437B61C046144BDB685B0F0722C1
:104BFC00134001337B6079687869FBF787FA03000F
:104C0C003B6115E00D4B9B6838221340202B03D1E0
:104C1C0080231B023B610BE0084B9B68382213403E
:104C2C00182B03D1FA23DB013B6101E000233B612C
:104C3C003B691800BD4606B080BDC046001002405E
:104C4C000024F40000127A0080B500AF024B1B6800
:104C5C001800BD4680BDC0461C000020B0B500AF9A
:104C6C00FFF7F2FF0400FFF73FFB03001A0B054BA5
:104C7C009200D3581F221340DC4023001800BD467D
:104C8C00B0BDC046FC83000880B586B000AF78602C
:104C9C001323FB1800221A701223FB1800221A701F
:104CAC007B681A6880239B02134000D1A3E011207B
:104CBC003B1800221A70C34BDA6B80235B05134040
:104CCC0010D1C04BDA6BBF4B802149050A43DA6324
:104CDC00BC4BDA6B80235B051340BB60BB683B1895
:104CEC0001221A70B84B1A68B74B802149000A434D
:104CFC001A60FDF735F90300FB600BE0FDF730F9A6
:104D0C000200FB68D31A022B04D91323FB180322CD
:104D1C001A7005E0AC4B1A6880235B001340EDD091
:104D2C001323FB181B78002B54D1A64BDA6DC02330
:104D3C009B0013407B617B69002B19D07B681B6B3C
:104D4C007A699A4214D09F4BDB6DA04A13407B6169
:104D5C009C4BDA6D9B4B802149020A43DA65994BD7
:104D6C00DA6D984B9A490A40DA65964B7A69DA659E
:104D7C007B690122134016D0FDF7F2F80300FB60AB
:104D8C000CE0FDF7EDF80200FB68D31A914A934250
:104D9C0004D91323FB1803221A7004E0894BDB6D32
:104DAC0002221340EDD01323FB181B78002B0AD1E1
:104DBC00844BDB6D854A134019007B681A6B814B61
:104DCC000A43DA650CE01223FB181322BA18127886
:104DDC001A7005E01223FB181322BA1812781A70F5
:104DEC001123FB181B78012B05D1764BDA6B754B15
:104DFC0079490A40DA637B681B680122134009D0A9
:104E0C00704B5B6D0322934319007B685A686D4BA2
:104E1C000A435A657B681B680222134009D0694B10
:104E2C005B6D0C22934319007B689A68654B0A43AF
:104E3C005A657B681B681022134009D0614B5B6D6F
:104E4C00664A134019007B68DA685E4B0A435A6560
:104E5C007B681A6880239B00134009D0594B5B6D0B
:104E6C005F4A134019007B689A69564B0A435A658E
:104E7C007B681A688023DB00134009D0514B5B6DB3
:104E8C00584A134019007B68DA694E4B0A435A653D
:104E9C007B681B682022134009D04A4B5B6D524A39
:104EAC00134019007B681A69464B0A435A657B68A4
:104EBC001A688023DB01134015D0424B5B6D9B00BD
:104ECC0099087B681A6A3F4B0A435A657B681A6AD1
:104EDC008023DB059A4206D13A4BDA68394B8021A4
:104EEC0049020A43DA607B681A6880231B0313406B
:104EFC0009D0344B5B6D4022934319007B685A6A8E
:104F0C00304B0A435A657B681A6880239B03134015
:104F1C0016D02C4B5B6D354A134019007B689A6A8E
:104F2C00284B0A435A657B689A6A8023DB039A42B2
:104F3C0006D1244BDA68234B802149040A43DA60FA
:104F4C007B681A688023DB03134016D01D4B5B6D06
:104F5C00274A134019007B68DA6A1A4B0A435A65D0
:104F6C007B68DA6A80235B049A4206D1154BDA68B7
:104F7C00144B802149040A43DA607B681A68802349
:104F8C001B01134016D00F4B5B6D1A4A13401900CE
:104F9C007B685A690B4B0A435A657B685A698023B4
:104FAC00DB019A4206D1074BDA68064B8021490295
:104FBC000A43DA601223FB181B781800BD4606B0B2
:104FCC0080BDC0460010024000700040FFFCFFFF97
:104FDC00FFFFFEFF88130000FFFFFFEFFFF3FFFF53
:104FEC00FFFFF3FFFFFFCFFFFFCFFFFFFFFFBFFF71
:104FFC00FFFFFFFEFF3FFFFF80B582B000AF786080
:10500C007B68002B01D101234AE07B683D229B5C2D
:10501C00DBB2002B07D17B683C22002199547B68C2
:10502C001800FCF7DFFC7B683D22022199547B6859
:10503C001A687B6804331900100000F06FFE7B685F
:10504C004822012199547B683E22012199547B68A6
:10505C003F22012199547B684022012199547B689D
:10506C004122012199547B684222012199547B6889
:10507C004322012199547B684422012199547B6875
:10508C004522012199547B684622012199547B6861
:10509C004722012199547B683D2201219954002318
:1050AC001800BD4602B080BD80B584B000AF7860FA
:1050BC007B683D229B5CDBB2012B01D0012342E0DB
:1050CC007B683D22022199547B681B68DA687B68F7
:1050DC001B6801210A43DA607B681B681C4A9342F7
:1050EC000FD07B681A688023DB059A4209D07B6855
:1050FC001B68184A934204D07B681B68164A93427B
:10510C0016D17B681B689B68144A1340FB60FB68D4
:10511C00062B16D0FA6880235B029A4211D07B686A
:10512C001B681A687B681B6801210A431A6008E037
:10513C007B681B681A687B681B6801210A431A602C
:10514C0000E0C04600231800BD4604B080BDC04638
:10515C00002C014000040040004001400700010009
:10516C0080B582B000AF78607B68002B01D1012341
:10517C004AE07B683D229B5CDBB2002B07D17B684D
:10518C003C22002199547B681800FCF76DFB7B686E
:10519C003D22022199547B681A687B6804331900FC
:1051AC00100000F0BBFD7B684822012199547B68FC
:1051BC003E22012199547B683F22012199547B683E
:1051CC004022012199547B684122012199547B682A
:1051DC004222012199547B684322012199547B6816
:1051EC004422012199547B684522012199547B6802
:1051FC004622012199547B684722012199547B68EE
:10520C003D220121995400231800BD4602B080BDF7
:10521C0080B584B000AF786039603B68002B08D152
:10522C007B683E229B5CDBB2013B5A1E9341DBB296
:10523C0037E03B68042B08D17B683F229B5CDBB2D8
:10524C00013B5A1E9341DBB22BE03B68082B08D183
:10525C007B6840229B5CDBB2013B5A1E9341DBB264
:10526C001FE03B680C2B08D17B6841229B5CDBB2B6
:10527C00013B5A1E9341DBB213E03B68102B08D163
:10528C007B6842229B5CDBB2013B5A1E9341DBB232
:10529C0007E07B6843229B5CDBB2013B5A1E9341C7
:1052AC00DBB2002B01D001238BE03B68002B04D137
:1052BC007B683E220221995423E03B68042B04D1E5
:1052CC007B683F22022199541BE03B68082B04D1D8
:1052DC007B6840220221995413E03B680C2B04D1CB
:1052EC007B684122022199540BE03B68102B04D1BE
:1052FC007B6842220221995403E07B6843220221FD
:10530C0099547B681B6839680122180001F092FAE5
:10531C007B681B682D4A93420ED07B681B682C4A15
:10532C00934209D07B681B682A4A934204D07B685D
:10533C001B68294A934201D1012300E00023002B72
:10534C0008D07B681B685A6C7B681B68802109023B
:10535C000A435A647B681B681C4A93420FD07B68D3
:10536C001A688023DB059A4209D07B681B681B4AAC
:10537C00934204D07B681B68154A934216D17B6814
:10538C001B689B68164A1340FB60FB68062B16D003
:10539C00FA6880235B029A4211D07B681B681A68FA
:1053AC007B681B6801210A431A6008E07B681B6854
:1053BC001A687B681B6801210A431A6000E0C0462A
:1053CC0000231800BD4604B080BDC046002C01402F
:1053DC0000400140004401400048014000040040EE
:1053EC000700010080B582B000AF78607B68002BAD
:1053FC0001D101234AE07B683D229B5CDBB2002B90
:10540C0007D17B683C22002199547B681800FCF77B
:10541C009FFA7B683D22022199547B681A687B684D
:10542C0004331900100000F079FC7B68482201213C
:10543C0099547B683E22012199547B683F220121BB
:10544C0099547B684022012199547B6841220121A7
:10545C0099547B684222012199547B684322012193
:10546C0099547B684422012199547B68452201217F
:10547C0099547B684622012199547B68472201216B
:10548C0099547B683D220121995400231800BD4694
:10549C0002B080BD80B584B000AF78607B681B68BB
:1054AC00DB68FB607B681B681B69BB60BB68022206
:1054BC00134021D0FB68022213401DD07B681B686F
:1054CC00032252421A617B6801221A777B681B689F
:1054DC009B690322134004D07B68180000F006FC83
:1054EC0007E07B68180000F0F9FB7B68180000F0FF
:1054FC0005FC7B6800221A77BB680422134022D07B
:10550C00FB68042213401ED07B681B6805225242A4
:10551C001A617B6802221A777B681B689A69C02320
:10552C009B00134004D07B68180000F0DFFB07E001
:10553C007B68180000F0D2FB7B68180000F0DEFBE3
:10554C007B6800221A77BB680822134021D0FB68C5
:10555C00082213401DD07B681B68092252421A6135
:10556C007B6804221A777B681B68DB690322134073
:10557C0004D07B68180000F0B9FB07E07B681800CA
:10558C0000F0ACFB7B68180000F0B8FB7B680022D5
:10559C001A77BB681022134022D0FB6810221340EC
:1055AC001ED07B681B68112252421A617B6808224C
:1055BC001A777B681B68DA69C0239B00134004D000
:1055CC007B68180000F092FB07E07B68180000F085
:1055DC0085FB7B68180000F091FB7B6800221A7732
:1055EC00BB68012213400CD0FB680122134008D089
:1055FC007B681B68022252421A617B68180000F01B
:10560C0065FBBB688022134004D1BA6880239B01E0
:10561C0013400BD0FB688022134007D07B681B68BB
:10562C001E4A1A617B68180001F0E5FABA688023FB
:10563C005B0013400BD0FB688022134007D07B68C3
:10564C001B68174A1A617B68180001F0DCFABB680A
:10565C00402213400CD0FB684022134008D07B68DA
:10566C001B68412252421A617B68180000F04EFB05
:10567C00BB68202213400CD0FB682022134008D0BA
:10568C007B681B68212252421A617B68180001F06A
:10569C00AAFAC046BD4604B080BDC0467FDFFFFFFE
:1056AC00FFFEFFFF80B586B000AFF860B9607A608E
:1056BC001723FB1800221A70FB683C229B5C012B01
:1056CC0001D102238CE0FB683C22012199547B68B8
:1056DC00002B1BD1FB681868BB681968BB685A683B
:1056EC00BB68DB6800F002FFFB681B689A69FB680B
:1056FC001B680C218A439A61FB681B689969BB681B
:10570C009A68FB681B680A439A6162E07B68042B09
:10571C001CD1FB681868BB681968BB685A68BB6801
:10572C00DB6800F06DFFFB681B689A69FB681B68FF
:10573C002D490A409A61FB681B689969BB689B6894
:10574C001A02FB681B680A439A6142E07B68082BCB
:10575C001BD1FB681868BB681968BB685A68BB68C2
:10576C00DB6800F0C1FFFB681B68DA69FB681B682B
:10577C000C218A43DA61FB681B68D969BB689A689B
:10578C00FB681B680A43DA6123E07B680C2B1CD195
:10579C00FB681868BB681968BB685A68BB68DB682B
:1057AC0000F0E2FFFB681B68DA69FB681B680E49B6
:1057BC000A40DA61FB681B68D969BB689B681A02EE
:1057CC00FB681B680A43DA6103E01723FB1801220C
:1057DC001A70FB683C22002199541723FB181B7884
:1057EC001800BD4606B080BDFFF3FFFF80B586B044
:1057FC0000AFF860B9607A601723FB1800221A70AA
:10580C00FB683C229B5C012B01D10223E5E0FB6889
:10581C003C22012199547B68142B00D9D1E07B6880
:10582C009A00704BD3181B689F46FB681B68BA68BC
:10583C001100180000F000FBFB681B689A69FB68FC
:10584C001B6808210A439A61FB681B689A69FB680C
:10585C001B6804218A439A61FB681B689969BB68C1
:10586C001A69FB681B680A439A61AFE0FB681B6806
:10587C00BA681100180000F069FBFB681B689A6994
:10588C00FB681B68802109010A439A61FB681B684D
:10589C009A69FB681B6854490A409A61FB681B684B
:1058AC009969BB681B691A02FB681B680A439A61F9
:1058BC008CE0FB681B68BA681100180000F0CAFB8A
:1058CC00FB681B68DA69FB681B6808210A43DA610C
:1058DC00FB681B68DA69FB681B6804218A43DA6180
:1058EC00FB681B68D969BB681A69FB681B680A43AB
:1058FC00DA616BE0FB681B68BA681100180000F0F5
:10590C0031FCFB681B68DA69FB681B6880210901A4
:10591C000A43DA61FB681B68DA69FB681B68324969
:10592C000A40DA61FB681B68D969BB681B691A02FB
:10593C00FB681B680A43DA6148E0FB681B68BA68BD
:10594C001100180000F078FCFB681B685A6DFB68AE
:10595C001B6808210A435A65FB681B685A6DFB6873
:10596C001B6804218A435A65FB681B68596DBB6828
:10597C001A69FB681B680A435A6527E0FB681B68B9
:10598C00BA681100180000F0B7FCFB681B685A6D70
:10599C00FB681B68802109010A435A65FB681B6878
:1059AC005A6DFB681B6810490A405A65FB681B68F6
:1059BC00596DBB681B691A02FB681B680A435A6560
:1059CC0004E01723FB1801221A70C046FB683C2226
:1059DC00002199541723FB181B781800BD4606B0FC
:1059EC0080BDC0461C840008FFFBFFFF80B586B05D
:1059FC0000AFF860B9607A601723FB1800221A70A8
:105A0C00FB683C229B5C012B01D102230EE1FB685D
:105A1C003C2201219954FB683D2202219954BB6818
:105A2C005B688022920593422FD08022920593428C
:105A3C0054D8012B14D98022520593424ED1FB68C5
:105A4C001B689A68FB681B687A490A409A60FB6875
:105A5C001B681A6DFB681B6801218A431A6542E0BA
:105A6C00FB681B689A68FB681B6808218A439A606C
:105A7C00FB681B681B6D012293431900BB685A68B5
:105A8C00FB681B680A431A652DE0BB68DB68002BBA
:105A9C0009D0FB683D2201219954FB683C2200216E
:105AAC0099540123C2E0FB681868BB68D968BB68CD
:105ABC009A68BB681B6900F09DFEFB681B689A68BE
:105ACC00FB681B6808210A439A60FB681B681A6D07
