:020000040800F2
:1000000000900020992500084D2300085523000882
:1000100000000000000000000000000000000000E0
:100020000000000000000000000000005D23000848
:100030000000000000000000672300087123000892
:10004000E9250008E9250008E9250008E925000858
:10005000E9250008E9250008E9250008E925000848
:10006000E925000881230008E9250008E9250008A2
:1000700041240008E9250008E9250008E9250008D1
:100080005924000899240008E9250008E9250008FA
:10009000E9250008F1240008E9250008E925000801
:1000A000E9250008E9250008E9250008E9250008F8
:0C00B00009250008E9250008E9250008E2
:1000C00010B5064C2378002B07D1054B002B02D02E
:1000D000044800E000BF0123237010BDD0010020C0
:1000E00000000000E4A80008044B10B5002B03D06A
:1000F0000349044800E000BF10BDC04600000000F6
:10010000D4010020E4A800080023C25C0133002AC7
:10011000FBD1581E7047000003B4714649084000E7
:100120004900095E49008E4403BC70470022430821
:100130008B4274D303098B425FD3030A8B4244D3AF
:10014000030B8B4228D3030C8B420DD3FF220902F1
:1001500012BA030C8B4202D31212090265D0030BB0
:100160008B4219D300E0090AC30B8B4201D3CB03A6
:10017000C01A5241830B8B4201D38B03C01A5241E8
:10018000430B8B4201D34B03C01A5241030B8B42EA
:1001900001D30B03C01A5241C30A8B4201D3CB02D5
:1001A000C01A5241830A8B4201D38B02C01A5241BA
:1001B000430A8B4201D34B02C01A5241030A8B42BD
:1001C00001D30B02C01A5241CDD2C3098B4201D3D5
:1001D000CB01C01A524183098B4201D38B01C01A53
:1001E000524143098B4201D34B01C01A52410309CA
:1001F0008B4201D30B01C01A5241C3088B4201D379
:10020000CB00C01A524183088B4201D38B00C01A25
:10021000524143088B4201D34B00C01A5241411A4C
:1002200000D20146524110467047FFE701B5002059
:1002300000F0F0F802BDC0460029F7D076E770471D
:1002400003460B437FD4002243088B4274D3030937
:100250008B425FD3030A8B4244D3030B8B4228D3D8
:10026000030C8B420DD3FF22090212BA030C8B42FE
:1002700002D31212090265D0030B8B4219D300E09E
:10028000090AC30B8B4201D3CB03C01A5241830B23
:100290008B4201D38B03C01A5241430B8B4201D3D3
:1002A0004B03C01A5241030B8B4201D30B03C01AFC
:1002B0005241C30A8B4201D3CB02C01A5241830A76
:1002C0008B4201D38B02C01A5241430A8B4201D3A5
:1002D0004B02C01A5241030A8B4201D30B02C01ACF
:1002E0005241CDD2C3098B4201D3CB01C01A524136
:1002F00083098B4201D38B01C01A524143098B42BF
:1003000001D34B01C01A524103098B4201D30B01A7
:10031000C01A5241C3088B4201D3CB00C01A5241CC
:1003200083088B4201D38B00C01A524143088B4291
:1003300001D34B00C01A5241411A00D2014652412A
:10034000104670475DE0CA0F00D04942031000D349
:100350004042534000229C4603098B422DD3030A9E
:100360008B4212D3FC22890112BA030A8B420CD3AE
:10037000890192118B4208D3890192118B4204D3D7
:1003800089013AD0921100E08909C3098B4201D357
:10039000CB01C01A524183098B4201D38B01C01A91
:1003A000524143098B4201D34B01C01A5241030908
:1003B0008B4201D30B01C01A5241C3088B4201D3B7
:1003C000CB00C01A524183088B4201D38B00C01A64
:1003D0005241D9D243088B4201D34B00C01A52413B
:1003E000411A00D20146634652415B10104601D3C8
:1003F0004042002B00D54942704763465B1000D352
:10040000404201B5002000F005F802BD0029F8D0F7
:1004100016E770477047C046002B11D1002A0FD154
:10042000002900D1002802D00021C943080007B4E8
:10043000024802A14018029003BDC046D9FFFFFF49
:1004400003B4684601B5029800F006F8019B9E4689
:1004500002B00CBC7047C046F0B557464E46454604
:10046000DE46E0B504000D009246994683B08B420B
:1004700030D82DD04946504600F0BAF82900060081
:10048000200000F0B5F8331A9846203B34D49B4640
:1004900053465A46934042461F00534693401E001F
:1004A000AF423BD8AF4200D179E05B46A41BBD41CF
:1004B000002B00DA76E00022002300920193012352
:1004C0005A4693400193012342469340009329E00A
:1004D0008242CFD900220023009201930C9B002B73
:1004E00001D01C605D600098019903B0F0BCBB4670
:1004F000B246A946A046F0BD42469B4620239B1A21
:100500005246DA40414613004A468A4017004246A6
:100510001F43534693401E00AF42C3D9002200231D
:10052000009201934346002BD8D0FB0772081A4370
:1005300046467B080EE0AB4201D1A2420CD8A41A79
:100540009D41012024196D410021013E24184D4197
:10055000002E06D0AB42EED9013E24196D41002E8B
:10056000F8D1009801995B4600196941002B24DB02
:100570002B005A464446D3402A00E2401C005B460A
:100580001500002B2ADB26009E403300260047463C
:10059000BE403200801A9941009001919EE7A3422B
:1005A000BCD882E74246202300219B1A00220091FA
:1005B00001920122DA40019285E7424620239B1AEC
:1005C0002A0046469A402300F340444613432A003B
:1005D000E2401C005B461500002BD4DA42462F0097
:1005E0002023260097409B1ADE403B003343CDE793
:1005F00010B5002903D100F007F8203002E0080010
:1006000000F002F810BDC0461C2101231B049842D3
:1006100001D3000C10391B0A984201D3000A083993
:100620001B09984201D30009043902A2105C40184A
:100630007047C046040302020101010100000000EE
:100640000000000080B584B000AF144BFB600A23AB
:10065000FB18012252421A8013E0FB681A685B689B
:100660003A607B603B68013302D17B6801330DD077
:100670000A23F9183A687B68131C0B80FB6808335F
:10068000FB60FB68064A9342E7D900E0C0460A23B4
:10069000FB181B881800BD4604B080BD00F8000898
:1006A000FFFF000890B58DB000AF0200BB1D1A809F
:1006B00004F0FCF8214BFB6209E0FB6A1A685B68F6
:1006C000511C01D1013307D0FB6A0833FB62FB6A7E
:1006D0001B4A9342F1D900E0C046FB6A184A934294
:1006E0001AD910243B19180010231A00002109F010
:1006F0007FFC21007B1802221A607B181F229A605F
:100700007B180122DA600C23FA187B1811001800FC
:1007100004F080F9094BFB62BB1D1B889BB23B6256
:1007200000237B623A6A7B6AF96A012004F070F860
:1007300004F0E0F8C046BD460DB090BD00F80008DA
:10074000FFFF000880B584B000AF0200BB1D1A8017
:100750000E217B1800221A80BB1D1B88092B03D891
:100760007B180A221A800DE0BB1D1B88692B04D957
:100770000E23FB1869221A8004E00E23FB18BA1D11
:1007800012881A800E23FB181A88044B5200D25A82
:10079000034B1A80C046BD4604B080BD1000002047
:1007A00004000020F0B58BB006AF78607B681B6852
:1007B000CF4A934200D003E3CE4B1B780A2B04D0E0
:1007C000CC4B1B780D2B00D0E5E2CB4B1B781A00ED
:1007D000CA4B002199540F217B18C84A12781A700D
:1007E000C74BBB607B181B78413B172B00D9B1E28C
:1007F0009A00C44BD3181B689F46BB681B783F2BDD
:100800002CD1C14B1B889BB25B089BB2FA22920190
:100810009A18BD4B1B889BB219001000FFF710FD02
:1008200003009AB2B94B1A80B84B1B889BB21900CF
:10083000B74B1B889BB2B74AB74800930B003C21CB
:1008400009F0A0FBB44B1800FFF75EFC03009AB25E
:10085000B149B2480A2307F019FA8DE2BB681800C3
:1008600009F0F4FA0200AE4B1A60AD4B1B68092B7D
:1008700000DC81E2AA4B1B68C82B00DD7CE2A84BA0
:100880001B68002B00DA01335B10FA2292019A18E0
:10089000A34B1B6819001000FFF7D2FC03009AB2AB
:1008A0009B4B1A809E4B1968994B1B889BB2994AA7
:1008B000994800930B003C2109F064FB964B18000B
:1008C000FFF722FC03009AB2934994480A2307F0E9
:1008D000DDF951E2BB681B783F2B12D1914B1B789D
:1008E000914A8D483C2109F04DFB8B4B1800FFF7D6
:1008F0000BFC03009AB2884988480A2307F0C6F91E
:100900003CE2BB68180009F0A1FA0200844B1A60AF
:10091000834B1B68012B00DD30E2814B1B68DAB290
:10092000804B1A702AE2BB681B783F2B2CD1764B88
:100930001B889BB25B089BB2FA2292019A18724BF9
:100940001B889BB219001000FFF77AFC03009AB2D3
:100950006E4B1A806E4B1B889BB219006B4B1B8829
:100960009BB2724A6C4800930B003C2109F00AFBD1
:10097000694B1800FFF7C8FB03009AB26649674845
:100980000A2307F083F9FBE1BB68180009F05EFA5F
:100990000200634B1A60624B1B683B2B00DCEFE1EB
:1009A0005F4B1A68FA239B009A4200DDE8E15C4B3A
:1009B0001B689AB2564B1A80594B1968544B1B88C6
:1009C0009BB25A4A544800930B003C2109F0DAFAD2
:1009D000514B1800FFF798FB03009AB24E494F485D
:1009E0000A2307F053F9CBE1BB681B783F2B13D1E7
:1009F0004F4B1B889BB24F4A47483C2109F0C2FA33
:100A0000454B1800FFF780FB03009AB24249434868
:100A10000A2307F03BF9B5E1BB68180009F016FAA4
:100A200002003F4B1A603E4B1B68132B00DCA9E110
:100A30003B4B1B68502B00DDA4E1394B1B689AB27D
:100A40003B4B1A803A4B1B889BB23A4A32483C21B6
:100A500009F098FA304B1800FFF756FB03009AB2E2
:100A60002D492E480A2307F011F98BE1BB681B784A
:100A70003F2B13D1304B1B889BB2304A26483C2178
:100A800009F080FA244B1800FFF73EFB03009AB2EE
:100A9000214922480A2307F0F9F875E1BB681800DC
:100AA00009F0D4F902001E4B1A601D4B1B68F92B8C
:100AB00000DC69E11A4B1B68214A934200DD63E1C7
:100AC000174B1B689AB21C4B1A80154B1B681B4AAC
:100AD00011483C2109F056FA0F4B1800FFF714FBA0
:100AE00003009AB20C490D480A2307F0CFF84BE1F6
:100AF000004400400305002002050020F804002007
:100B0000F904002040AA0008EA040020E8040020BC
:100B10000400002010A9000804050020540400204F
:100B2000400500204E05002028A900083CA9000827
:100B3000F204002050A90008F004002060A9000879
:100B400012020000A04B1B889BB29C469F4B1B8847
:100B50009BB219009E4B1B889BB21C009D4B1B88AF
:100B60009BB21D009C4B1B889BB21E009B4B1B889D
:100B70009BB29B4A9B480493039602950194009173
:100B800063463C2109F0FEF9964B1800FFF7BCFACA
:100B900003009AB2934994480A2307F077F8F6E0E5
:100BA000924B1B889BB25B089BB2FA2292019A1867
:100BB0008E4B1B889BB219001000FFF741FB03000E
:100BC0009BB21A008A4B1A60894B1968874B1B88A5
:100BD0009BB21C00874B1B889BB21D00864B1B8859
:100BE0009BB2864A7F480293019500940B003C21FA
:100BF00009F0C8F97B4B1800FFF786FA03009AB298
:100C0000784979480A2307F041F8C0E07C4B19681D
:100C10007C4B1B687C4A128892B214007B4A714854
:100C2000019400930B003C2109F0ACF96D4B1800C6
:100C3000FFF76AFA03009AB26A496B480A2307F081
:100C400025F8A4E0BB681B783F2B12D1704B1B78B2
:100C5000704A64483C2109F095F9624B1800FFF78F
:100C600053FA03009AB25F495F480A2307F00EF86F
:100C70008CE0BB68180009F0E9F802005C4B1A60D0
:100C80005B4B1B68012B00DD80E0594B1B68002B80
:100C900000DA7BE0564B1B68DAB25D4B1A7075E0E8
:100CA000BB681B783F2B12D15B4B1B785B4A4D48CE
:100CB0003C2109F067F94B4B1800FFF725FA0300B8
:100CC0009AB2484948480A2306F0E0FF5FE0BB6853
:100CD000180009F0BBF80300DAB24F4B1A704E4B04
:100CE0001B78092B24D94C4B1B78692B20D84A4BF5
:100CF0001B781800FFF726FD494B1B78002B04D00A
:100D0000454B1B781800FFF7CDFC434B1B78434A3B
:100D100034483C2109F036F9324B1800FFF7F4F95A
:100D200003009AB22F4930480A2306F0AFFF2EE0A5
:100D30003C4A2C4B3C21180009F024F9294B18009F
:100D4000FFF7E2F903009AB2264927480A2306F082
:100D50009DFF1CE0344A234B3C21180009F012F996
:100D6000204B1800FFF7D0F903009AB21D491E4826
:100D70000A2306F08BFF0AE0C04608E0C04606E002
:100D8000C04604E0C04602E0C04600E0C046274B33
:100D900000221A700EE0254B1B78082B0AD8234B33
:100DA0001B785A1CD1B2214A11701A00204B1978B5
:100DB000204B99541E490C4B0122180007F00AF8E9
:100DC000C046BD4605B0F0BD0C0200200E0200205A
:100DD000100200201202002014020020160200203F
:100DE00074A900080405002054040020EA0400202F
:100DF00040050020F2040020F0040020ACA9000807
:100E0000180200201C020020F4040020D8A90008C9
:100E100008000020F8A900080900002008AA00081E
:100E2000E90000201CAA00082CAA000802050020E6
:100E300003050020F804002080B582B000AF01F067
:100E4000D5FBDA4B3C221A80D94BD22252001A80B1
:100E5000D84B3C221A80D74B1B889BB205339AB2E1
:100E6000D44B1A80D34B1B889BB20A339AB2D14B16
:100E70001A80D14B1B880A339AB2CF4B1A8000F0EC
:100E800073FB00F039FF00F019FF00F0E9FB00F000
:100E9000ABFC00F0D9FC00F00DFD00F0CFFD00F040
:100EA00097FE00F0BDFE00F059FE00F0BBFBC34B07
:100EB000FA229200DA62C24B180004F029FFC14BFB
:100EC0009A69C04B80210A439A61BE4B1A68BD4B98
:100ED00080210A431A60BC4B0021180004F0CCFFAB
:100EE000B94B1B685A6CB84B1B68802109020A4336
:100EF0005A64B64B0021180002F051FFB44B1B8816
:100F00009BB2B2480022002102F0FCFFB14B180056
:100F100002F0F2FDB04B1B78DBB21A00AF49B04BC8
:100F2000180001F009FFAF49AF4B0122180006F08D
:100F300051FFAE4B0421180005F0D0F9AB4B002156
:100F4000180005F0DBF8FB1D00221A70A84B1B7877
:100F5000002B05D0FFF776FB0300DAB2A54B1A7021
:100F600080231B02A44A1900100003F095FFC8203B
:100F700001F0C2FB80231B029F4A1900100003F0FE
:100F80008BFFC82001F0B8FB80231B029A4A19008E
:100F9000100003F081FFC82001F0AEFB80231B028C
:100FA000954A1900100003F077FF924B1B78180048
:100FB000FFF7C8FB914B1B78DBB2002B46D0904B60
:100FC0001B68002B21D08F4B1B6864225A438C4B2B
:100FD0001B6819001000FFF7A9F803009BB201334A
:100FE0009AB2894B1A80884B1B889BB2092B03D875
:100FF000864B00221A7008E0844B01221A70824B43
:101000001B889BB21800FFF79DFB80235A01A02389
:10101000DB051100180003F005FF031E13D07C4B05
:101020001B889BB21A00642353437A491800FFF7C8
:1010300007F903001A00784B1A60774B1B689BB2C4
:101040001800FFF77FFB6D4B00221A70734B1B7863
:10105000DBB2002B00D10CE1704B00221A70704BF8
:101060001B78002B2CD06F4B1B889BB21900FA23E6
:101070009801FFF7E5F803009AB26B4B1B88D31871
:101080009BB20A3B9AB2694B1A80684B1B889BB291
:101090001900FA239801FFF7D3F803009AB2644BC2
:1010A0001A80614B1B88152B03D95F4B00221A80D5
:1010B0000BE05D4B1B8801339AB25B4B1A8004E056
:1010C000584B1B889AB25A4B1A8080239B00594A6E
:1010D0001900100003F0A6FE031E05D14B4B1B7830
:1010E000002B01D0012300E00023DAB2524B1A702A
:1010F000514B1B78DBB2002B28D0504B1B78002BB8
:1011000024D14F4B1B8801339AB24D4B1A804D4B63
:101110001B78002B1AD1254B1B889AB2264B1B88B3
:101120009A4213D2484B1B8801339AB2464B1A801D
:10113000454B1B88102B09D9434B00221A801B4BAF
:101140001B889BB201339AB2184B1A803F4B012285
:101150001A703F4B1B889BB23E4A93420AD83C4BC5
:101160001B889AB282231B019A4203D9374B012272
:101170001A7002E0354B00221A70374B1B889AB266
:10118000FA235B009A4203D9344B01221A7002E021
:10119000324B00221A70324B1B889BB2314A934269
:1011A00064D9314B01221A7063E0C046EE0400207E
:1011B000F0040020F2040020E400002000100040B1
:1011C000BC030020002C0140240300201003002059
:1011D00006000020E002002000000020F4010020B2
:1011E000200200200305002054040020700300208A
:1011F000E90000200900002000080050F101002053
:10120000180200201C020020F40400200800002026
:1012100016020020FF0F00000C000020F00100204B
:101220004E050020040000204C050020EC040020A6
:10123000EA04002000040050EC01002046050020D4
:10124000440500204A05002048050020ED0100204B
:101250000C020020570C00000E020020EE010020BE
:1012600014020020280A0000EF010020A84B0022F1
:101270001A70FB1D1B78042B00D99BE69A00A54B26
:10128000D3181B689F46A44B00221A70A34B002260
:101290001A70A34B00221A80A24B3C221A80802392
:1012A0001B02A1480022190003F0D9FDA023DB0591
:1012B00000221021180003F0D2FD9C4B1B68002275
:1012C0005A639B4B1B889AB29A4BDA629A4B1B78F3
:1012D000DBB2002B00D114E1984B1B78DBB2002B62
:1012E00000D10EE1964B1B78DBB2002B00D008E159
:1012F000FB1D02221A7004E1924B1A78924B1B7864
:101300009A4203D9FB1D04221A705FE0824B1B78BE
:10131000002B5BD1824B1A88FA23DB009A424CD215
:1013200080231B0280480022190003F098FD874BA0
:101330001B889BB286480022002102F0E3FD794B16
:101340001B889AB2794B1B685A63794B1B889AB2F7
:10135000784BDA62A023DB0501221021180003F08C
:101360007EFD8023DB0170480122190003F077FD28
:10137000784B1B889AB296239B009A4202D9674BFE
:1013800001221A70734B1B889AB296239B009A42D3
:101390001CD9634B1A88FA239B009A4216D9A023C2
:1013A000DB0500221021180003F059FD5A4B0122E1
:1013B0001A70FB1D01221A7008E0594B1A88FA2393
:1013C000DB009A4202D3FB1D03221A705A4B1B7892
:1013D000DBB2002B00D096E0FB1D00221A7092E0D9
:1013E0004D4B00221A70A023DB05002210211800AB
:1013F00003F035FD4D4B1B6800225A6380231B020E
:10140000494A1900100003F047FD642001F074F907
:1014100080231B02444A1900100003F03DFD6420A4
:1014200001F06AF980231B023F4A1900100003F003
:1014300033FD642001F060F980231B023A4A190051
:10144000100003F029FD8023DB013748002219003A
:1014500003F005FD404B1B88180001F04DF9394B96
:101460001B780133DAB2374B1A70FB1D00221A7059
:101470004CE080231B022C480122190003F0EFFCF2
:101480008023DB0128480022190003F0E8FC334BDD
:101490001B889AB2274BDA62314B1B889AB2234BD6
:1014A0001B685A632F4B1B889BB2294800220021DE
:1014B00002F028FD204B1B78DBB2002B04D01F4B21
:1014C0001B78DBB2002B02D1FB1D00221A701C4BD3
:1014D0001B78DBB2002B18D0FB1D00221A7014E021
:1014E000124B1B6800225A6380231B020E4A19000C
:1014F000100003F0D1FCFA239B00180001F0FCF867
:1015000004E0C04656E5C04654E5C04652E5C04634
:10151000EF010020A0AA0008460500204A0500208F
:1015200044050020EE0400200008005024030020A1
:1015300002000020002C0140EC010020ED01002001
:10154000EE0100204B050020E800002006000020EE
:101550001003002012020020E6000020EA04002010
:10156000F2040020F004002090B593B000AF1024E6
:101570003B19180038231A00002108F039FD3B0000
:10158000180010231A00002108F032FD80239B0070
:10159000180003F09DFC3B1902221A603B198022BF
:1015A0005200DA6021007B1800221A617B18402269
:1015B0005A617B180222DA617B1802221A627B18B8
:1015C00000225A627B1808229A627B18E0221203DA
:1015D000DA627B18E02212051A637B1880229205DA
:1015E0005A637B18180003F0BFFC031E01D000F003
:1015F00013FC3B0007221A603B0000225A603B00AC
:1016000000229A603B000022DA603B0000211800B3
:1016100003F0C4FF031E01D000F0FEFBC046BD4630
:1016200013B090BD80B500AF00220021112002F060
:1016300061FB112002F073FB002200210C2002F05C
:1016400059FB0C2002F06BFB00220021102002F05D
:1016500051FB102002F063FBC046BD4680BD000078
:1016600080B584B000AF3B1D18000C231A00002188
:1016700008F0BEFC554B564A1A60544BA022520348
:101680005A60524B00229A60504B0022DA604F4B56
:10169000802292031A614D4B04225A614B4B002267
:1016A0001A764A4B00225A76484B01229A76474BCB
:1016B0000622DA61454BA822D2005A62434B8022AF
:1016C000D2009A62414B2C22012199543F4B0022B7
:1016D0001A633E4B05225A633C4B05229A633B4BEF
:1016E0003C2200219954394B0022DA64374B180010
:1016F00001F07AF9031E01D000F08EFB3B1D354A44
:101700001A603B1D00225A603B1D00229A603A1D60
:101710002E4B1100180001F0D5FC031E01D000F083
:101720007BFB3B1D2C4A1A603B1D04225A603A1D6C
:10173000264B1100180001F0C5FC031E01D000F07B
:101740006BFB3B1D254A1A603B1D08225A603A1D5F
:101750001E4B1100180001F0B5FC031E01D000F073
:101760005BFB3B1D1E4A1A603B1D0C225A603A1D52
:10177000164B1100180001F0A5FC031E01D000F06B
:101780004BFB3B1D174A1A603B1D10225A603A1D45
:101790000E4B1100180001F095FC031E01D000F063
:1017A0003BFB3B1D01221A603B1D14225A603A1D6F
:1017B000064B1100180001F085FC031E01D000F05B
:1017C0002BFBC046BD4604B080BDC04620020020B1
:1017D0000024014020000014020000040001002049
:1017E000000200240004002880B500AF144B154A05
:1017F0001A60134B00221A61114B40225A61104BA0
:101800000022DA610E4B00229A600D4B00229A6191
:101810000B4B00221A620A4B0022DA60084B0022AE
:101820005A60074B00225A62054B180002F002F87A
:10183000031E01D000F0F0FAC046BD4680BDC04690
:10184000E00200200402014080B58AB000AF3B1DD9
:10185000180024231A00002108F0CAFB134B144A75
:101860001A60124B180002F077FA031E01D000F044
:10187000D3FA3B1D00221A603B1D00225A603B1D1B
:1018800002229A603B1D0122DA603B1D00221A6190
:10189000391D064B0022180002F064FB031E01D024
:1018A00000F0BAFAC046BD460AB080BD1003002061
:1018B0000074004080B59CB000AF5C23FB1818009A
:1018C00014231A00002108F093FB5023FB18180082
:1018D0000C231A00002108F08BFB3423FB1818009E
:1018E0001C231A00002108F083FB3B00180034235E
:1018F0001A00002108F07CFB4E4B4F4A1A604D4BFA
:1019000000225A604B4B00229A604A4BA0225200A0
:10191000DA60484B00221A61464B00225A61454B5F
:1019200080229A61434B180004F04EFA031E01D046
:1019300000F072FA5C217B1801221A607B180122E8
:101940005A6079183B4B0022180005F0ABF8031ED3
:1019500001D000F061FA50217B1800221A607B1838
:1019600000225A607B1800229A607A18314B1100CD
:10197000180006F013F8031E01D000F04DFA3421D0
:101980007B1860221A607B1800225A607B180022A4
:101990009A607B180022DA607B1800221A617B189B
:1019A00000225A617B1800229A617918214B00228B
:1019B000180004F077FF031E01D000F02DFA3B0061
:1019C00000221A603B0000225A603B0000229A600D
:1019D0003B000022DA603B0000221A613B008022BB
:1019E00092015A613B0000229A613B000022DA61B9
:1019F0003B0000221A623B00802292045A623B00A4
:101A000000229A623B000022DA623B0000221A6345
:101A10003A00084B1100180006F02EF8031E01D002
:101A200000F0FAF9034B180000F0EAFBC046BD468F
:101A30001CB080BD24030020002C014080B58CB078
:101A400000AF1C23FB18180014231A00002108F013
:101A5000CFFA0C23FB18180010231A00002108F0FD
:101A6000C7FA3B0018000C231A00002108F0C0FA46
:101A7000374B384A1A60364B00225A60344B0022EA
:101A80009A60334B344ADA60314B00221A61304B92
:101A900000229A612E4B180004F0D8FA031E01D0E0
:101AA00000F0BAF91C217B1804221A607B1860220E
:101AB0005A607B1800229A607B180022DA607B183B
:101AC00000221A617A18224B1100180005F014F94F
:101AD000031E01D000F0A0F90C217B1802221A602D
:101AE0007B1802225A607B1800229A607B18002221
:101AF000DA607918164B0022180004F02FFE031E3E
:101B000001D000F089F90C217B1800221A607B18A3
:101B100001225A6079180E4B0422180004F01EFEB0
:101B2000031E01D000F078F93B0000221A603B0050
:101B300000229A603A00064B1100180005F02EFFB3
:101B4000031E01D000F068F9C046BD460CB080BD50
:101B50007003002000040040FFFF000080B584B047
:101B600000AF3B1D18000C231A00002108F040FABA
:101B7000154B164A1A60144B10225A60124B002261
:101B80009A60114BFA229200DA600F4B00229A61A0
:101B90000D4B180004F064F8031E01D000F03CF96E
:101BA0003B1D20221A603B1D00229A603A1D064B05
:101BB0001100180005F0F2FE031E01D000F02CF910
:101BC000C046BD4604B080BDBC03002000100040EC
:101BD00080B500AF0F4B104A1A600E4B00225A60BE
:101BE0000C4B00229A600B4B0C4ADA60094B002226
:101BF0001A61084B00225A61064B00229A61054B7C
:101C0000180004F02DF8031E01D000F005F9C046BD
:101C1000BD4680BD0804002000440140FFFF0000D5
:101C200080B500AF234B244A1A60224B96229201C2
:101C30005A60204B00229A601E4B0022DA601D4B36
:101C400000221A611B4B0C225A611A4B00229A6126
:101C5000184B0022DA61174B00221A62154B002242
:101C60005A62144B00229A62124B180005F0B8FF1A
:101C7000031E01D000F0D0F80E4B0021180008F030
:101C800005F8031E01D000F0C7F80A4B0021180028
:101C900008F03CF8031E01D000F0BEF8054B180018
:101CA00007F0BAFF031E01D000F0B6F8C046BD46EB
:101CB00080BDC046540400200044004080B582B07E
:101CC00000AF0C4B9A6B0B4B01210A439A63094BF3
:101CD0009B6B012213407B607B680022002109205E
:101CE00002F008F8092002F01AF8C046BD4602B01A
:101CF00080BDC0460010024090B589B000AF0C24F2
:101D00003B19180014231A00002108F071F93E4B0A
:101D10005A6B3D4B02210A435A633B4B5B6B0222D9
:101D20001340BB60BB68384B5A6B374B04210A43E6
:101D30005A63354B5B6B042213407B607B68324BEC
:101D40005A6B314B01210A435A632F4B5B6B0122C3
:101D500013403B603B682D492D4B0022180003F0D7
:101D60007EF8A023DB0500229021180003F077F80D
:101D70003B19802292001A603B1900225A603B19DD
:101D800001229A603B19234A1900100002F0E6FE76
:101D90003B191E4A1A603B1901225A603B19002266
:101DA0009A603B190022DA603B19194A19001000A9
:101DB00002F0D4FE3B1990221A603B1901225A60AE
:101DC0003B1900229A603B190022DA603A19A023DD
:101DD000DB051100180002F0C1FE21007B188222F1
:101DE00052011A607B1800225A607B1800229A6008
:101DF0007A18A023DB051100180002F0AFFEC046E0
:101E0000BD4609B090BDC0460010024040C0000071
:101E1000000800500004005080B500AF72B6C04604
:101E200080231B02054A1900100003F035F8FA233D
:101E30005B00180000F060FCC046F1E700080050AD
:101E400080B582B000AF0F4B1A6C0E4B01210A43D4
:101E50001A640C4B1B6C012213407B607B68094B9E
:101E6000DA6B084B802149050A43DA63054BDA6BCC
:101E700080235B0513403B603B68C046BD4602B013
:101E800080BDC0460010024090B599B000AF7860A8
:101E90004C23FB18180014231A00002108F0A8F89E
:101EA00018243B19180034231A00002108F0A0F868
:101EB0007B681B68444A934200D080E03B19802233
:101EC000D2011A603B198022D2051A623B19180010
:101ED00003F00EFD031E01D0FFF79EFF3B4B1A6C73
:101EE0003A4B802149030A431A64384B1A6C802309
:101EF0005B0313407B617B69344B5A6B334B01218D
:101F00000A435A63314B5B6B012213403B613B69CF
:101F10002E4B5A6B2D4B02210A435A632B4B5B6BA2
:101F200002221340FB60FB684C243B1923221A60F9
:101F30003B1903225A603B1900229A603A19A023E8
:101F4000DB051100180002F009FE3B1907221A6098
:101F50003B1903225A603B1900229A603B191C4A24
:101F60001900100002F0FAFD1A4B1B4A1A60194BB7
:101F700005225A60174B00229A60164B0022DA6045
:101F8000144B80221A61134B802252005A61114B6C
:101F90008022D2009A610F4B2022DA610D4B002281
:101FA0001A620C4B180002F015F9031E01D0FFF75E
:101FB00033FF7B68074A1A65064B7A689A62C04607
:101FC000BD4619B090BDC04600240140001002403B
:101FD00000040050840200200800024090B589B03F
:101FE00000AF78600C243B19180014231A0000215C
:101FF00007F0FEFF7B681B68104A93421AD1104B12
:102000005A6B0F4B02210A435A630D4B5B6B022242
:102010001340BB60BB683B1910221A603B190322B6
:102020005A603B1900229A603B19064A19001000B9
:1020300002F094FDC046BD4609B090BD04020140C7
:10204000001002400004005080B584B000AF7860FA
:102050007B681B680A4A93420DD10A4BDA6B094B25
:10206000802189050A43DA63064BDA6B80239B05DE
:102070001340FB60FB68C046BD4604B080BDC0464F
:10208000007400400010024090B591B000AF78603D
:102090000C243B19180034231A00002107F0A8FF74
:1020A0007B681B68114A93421CD13B198022920322
:1020B0001A603B1900229A623B19180003F018FCC1
:1020C000031E01D0FFF7A8FE094B1A6C084B8021B4
:1020D00009010A431A64064B1A6C80231B01134042
:1020E000BB60BB68C046BD4611B090BD002C01402E
:1020F0000010024090B58BB000AF786014243B19FB
:10210000180014231A00002107F072FF7B681B6877
:102110001A4A93422DD11A4BDA6B194B02210A430A
:10212000DA63174BDB6B022213403B613B69144BB4
:102130005A6B134B02210A435A63114B5B6B022209
:102140001340FB60FB6821007B1820221A607B187B
:1021500002225A607B1800229A607B180022DA6003
:102160007B1801221A617B18064A1900100002F040
:10217000F5FCC046BD460BB090BDC0460004004013
:10218000001002400004005080B584B000AF7860B9
:102190007B681B68174A93420CD1174BDA6B164BBE
:1021A00010210A43DA63144BDB6B10221340FB60EF
:1021B000FB681AE07B681B68104A934215D10E4BEE
:1021C0001A6C0D4B802189020A431A640A4B1A6C5F
:1021D00080239B021340BB60BB68002200211520B6
:1021E00001F088FD152001F09AFDC046BD4604B0FF
:1021F00080BDC04600100040001002400044014075
:1022000090B589B000AF78600C243B1918001423F6
:102210001A00002107F0ECFE7B681B68154A934208
:1022200023D1154B5A6B144B01210A435A63124BAD
:102230005B6B01221340BB60BB683B1980225200DC
:102240001A6021007B1802225A607B1800229A60D3
:102250007B180322DA607B1802221A617A18A02305
:10226000DB051100180002F079FCC046BD4609B03C
:1022700090BDC046002C01400010024090B597B0C0
:1022800000AF78604423FB18180014231A000021C3
:1022900007F0AEFE10243B19180034231A00002169
:1022A00007F0A6FE7B681B68264A934246D13B197D
:1022B00002221A603B1900229A603B19180003F0B1
:1022C00017FB031E01D0FFF7A7FD1F4BDA6B1E4B58
:1022D000802189020A43DA631B4BDA6B80239B025D
:1022E0001340FB60FB68184B5A6B174B01210A43E4
:1022F0005A63154B5B6B01221340BB60BB684421E2
:102300007B180C221A607B1802225A607B1800226C
:102310009A607B180022DA607B1801221A617A1811
:10232000A023DB051100180002F018FC0022002198
:102330001C2001F0DFFC1C2001F0F1FCC046BD4672
:1023400017B090BD004400400010024080B500AFBF
:10235000C046FDE780B500AFC046FDE780B500AFE1
:10236000C046BD4680BD80B500AFC046BD4680BDFD
:1023700080B500AF00F0A4F9C046BD4680BD0000A6
:1023800080B582B000AF244B180002F0FFF80023A4
:102390007B6017E0214B7A685200D35A9BB21A0037
:1023A00013005B009B181E4A796849008A5A92B252
:1023B0009B189B1099B2194B7A685200D1527B68D6
:1023C00001337B60174B1B78DBB21A007B689342AA
:1023D000E0DB124B5B899AB2134B1A800F4B5B8880
:1023E0009AB2124B1A800D4B9B889AB2104B1A80EE
:1023F0000A4BDB889AB20F4B1A80084B1B899AB2A2
:102400000D4B1A80054B1B889AB20C4B1A80C046A4
:10241000BD4602B080BDC0468402002000020020FC
:10242000F4010020000000200C0200200E02002019
:1024300012020020100200201402002016020020C8
:1024400080B500AF034B180000F004FDC046BD4648
:1024500080BDC0462002002080B500AF0B4B1800A5
:1024600004F074F8094B0421180004F08BFC0200FE
:10247000074B1A60054B0021180004F083FC020092
:10248000044B1A60C046BD4680BDC04670030020A4
:10249000180200201C02002080B500AF0F4B18006E
:1024A00004F054F80E4B180001F0D0FC0D4B012243
:1024B0001A700D4B1B88092B06D90B4B00221A8072
:1024C0000A4B01221A7005E0074B1B8801339AB2B0
:1024D000054B1A80C046BD4680BDC046BC030020E7
:1024E00010030020F001002050050020F101002021
:1024F00080B500AF034B180004F028F8C046BD4675
:1025000080BDC0460804002080B500AF034B180012
:1025100005F0BEFCC046BD4680BDC0465404002048
:1025200080B586B000AF7860144A154BD31A7B6132
:102530007B693B61134B1B68002B02D1114B124A84
:102540001A60104B1A687B68D3183A699A4207D20E
:1025500007F056FD03000C221A6001235B4209E0DC
:10256000084B1B68FB60074B1A687B68D218054B49
:102570001A60FB681800BD4606B080BD00900020C0
:102580000004000054050020C006002080B500AF04
:10259000C046BD4680BD00000D488546FFF7F6FFEA
:1025A0000C480D490D4A002302E0D458C4500433AE
:1025B000C4188C42F9D30A4A0A4C002301E0136084
:1025C0000432A242FBD307F021FDFEF735FCFEE703
:1025D0000090002000000020D001002028AD00085D
:1025E000D0010020C0060020FEE7000080B582B0C8
:1025F00000AFFB1D00221A700B4B1A680A4B80219A
:1026000049000A431A60032000F010F8031E03D0AB
:10261000FB1D01221A7001E0FFF712FCFB1D1B7865
:102620001800BD4602B080BD0020024090B585B0C4
:1026300000AF78600F23FB1800221A701D4B1B7827
:10264000002B2BD01C4B1C681A4B1B781900FA234B
:102650009800FDF76BFD030019002000FDF766FDF3
:102660000300180001F06BFB031E12D17B68032BE3
:102670000AD8796801235B420022180001F03AFB76
:102680000E4B7A681A600DE00F23FB1801221A70B6
:1026900008E00F23FB1801221A7003E00F23FB1838
:1026A00001221A700F23FB181B781800BD4605B0D5
:1026B00090BDC046F4000020EC000020F000002097
:1026C00080B500AF054B1B781A00054B1B68D2186C
:1026D000034B1A60C046BD4680BDC046F4000020D2
:1026E0005805002080B500AF024B1B681800BD469E
:1026F00080BDC0465805002080B584B000AF78602A
:10270000FFF7F0FF0300BB607B68FB60FB680133F1
:1027100005D00A4B1B781A00FB689B18FB60C0466B
:10272000FFF7E0FF0200BB68D31AFA689A42F7D8B5
:10273000C046C046BD4604B080BDC046F40000207F
:1027400080B582B000AF786039607B681B68054A4D
:102750001A403B681A437B681A60C046BD4602B007
:1027600080BDC046FFFF3FFE80B582B000AF7860FD
:102770007B681A68E0235B0413401800BD4602B072
:1027800080BD80B584B000AFF860B9607A60FB6846
:102790005B69BA6804210A40072191400A00D243CC
:1027A0001A40BB6804210B40796899400B001A431A
:1027B000FB685A61C046BD4604B080BD80B582B09A
:1027C00000AF786039607B685B693A6804210A4031
:1027D000072191400A001A403B6804210B40DA406F
:1027E00013001800BD4602B080BD80B582B000AFB6
:1027F00078607B68DA68C0231B01134001D1012394
:1028000000E000231800BD4602B080BD80B584B052
:1028100000AFF860B9607A60FB689B6ABA681F21F4
:102820000A400F2191400A00D2431A407B689B0E58
:102830000F211940BB681F20034099400B001A4329
:10284000FB689A62C046BD4604B080BD80B582B0C8
:1028500000AF786039607B689A6A3B685B035B0B0A
:102860001A437B689A62C046BD4602B080BD80B5FF
:1028700082B000AF786039607B689B6A3A68520327
:10288000520BD2431A407B689A62C046BD4602B0E2
:1028900080BD80B582B000AF78607B68DB680322C2
:1028A00013401800BD4602B080BD000080B584B062
:1028B00000AFF860B9607A60FB685B69BA681202C1
:1028C000D2431A40BB681B0279680B4004490B4095
:1028D0001A43FB685A61C046BD4604B080BDC0467D
:1028E00000FFFF0780B582B000AF78607B689B680F
:1028F000054A1340802252051A437B689A60C046FD
:10290000BD4602B080BDC046E8FFFF6F80B582B013
:1029100000AF78607B689A6880235B051A4080234B
:102920005B059A4201D1012300E000231800BD4657
:1029300002B080BD80B582B000AF78607B689B68D4
:10294000044A134001221A437B689A60C046BD4680
:1029500002B080BDE8FFFF7F80B582B000AF786035
:102960007B689B68044A134002221A437B689A6082
:10297000C046BD4602B080BDE8FFFF7F80B582B093
:1029800000AF78607B689B6801221340012B01D166
:10299000012300E000231800BD4602B080BD000006
:1029A00080B582B000AF78607B689B68044A1340B2
:1029B00004221A437B689A60C046BD4602B080BDBF
:1029C000E8FFFF7F80B582B000AF78607B689B68CE
:1029D00004221340042B01D1012300E0002318003E
:1029E000BD4602B080BD000080B588B000AF786001
:1029F0001F23FB1800221A700023BB6100237B6198
:102A00000023FB607B68002B01D101237FE17B6801
:102A10009B6D002B0AD17B681800FFF735FA7B68A5
:102A20000022DA657B685422002199547B681B6878
:102A30001800FFF76BFF031E15D17B681B68180099
:102A4000FFF750FFB44B1B68B4491800FDF76EFB4D
:102A5000030001335B00FB6002E0FB68013BFB60AD
:102A6000FB68002BF9D17B681B681800FFF74EFF4D
:102A7000031E0FD17B689B6D10221A437B689A65F9
:102A80007B68DB6D01221A437B68DA651F23FB1824
:102A900001221A707B681B681800FFF793FF030080
:102AA0003B617B689B6D1022134000D022E13B69A3
:102AB000002B00D01EE17B689B6D994A13400222D7
:102AC0001A437B689A657B681B681800FFF756FFFE
:102AD000031E00D0ADE07B689A687B681B7E9B0379
:102AE0001A437B685B7EDB031A437B689B7E5B0338
:102AF0001A437B681B6B002B02D080235B0100E034
:102B000000231A437B68DB681A437B681B69002B30
:102B100004DA7B681B695B005B0801E080239B0390
:102B20001A437B682C215B5C5B001343BA69134337
:102B3000BB617B6820229B5C012B15D17B689B7E4F
:102B4000002B05D1BB69802252021343BB610BE00D
:102B50007B689B6D20221A437B689A657B68DB6DDE
:102B600001221A437B68DA657B685B6A002B0AD016
:102B70007B685A6AE0235B001A407B689B6A1343B8
:102B8000BA691343BB617B681B68DB68654A134005
:102B900019007B681B68BA690A43DA607B685B6866
:102BA0009B0F9A077B68DB6C13437A6913437B6145
:102BB0007B683C229B5C012B11D17B685B689B0F7F
:102BC0009A077B681B6C1A437B685B6C1A437B68B3
:102BD0009B6C1A437B691343012213437B617B681F
:102BE0001B681B69504A134019007B681B687A698F
:102BF0000A431A617B685A68C0231B069A4218D0A0
:102C00007B685A688023DB059A4212D07B685A6839
:102C100080231B069A420CD0444B1B68444A134045
:102C200019007B685A68F0239B031A403F4B0A4304
:102C30001A607B6818687B685B6B1A000021FFF7DD
:102C4000A0FD7B6818687B689B6B3A491A00FFF708
:102C500098FD7B681B69002B09D17B681B689A6A09
:102C60007B681B68102149420A439A6218E07B681E
:102C70001A6980239B039A4212D17B681B689B6A66
:102C80007B68DB69013B9B001C22134010225242EF
:102C90009A4011007B681A6E7B681B680A439A622F
:102CA0007B681B6800211800FFF788FD02007B6825
:102CB0005B6B9A420BD17B680022DA657B689B6D67
:102CC0000322934301221A437B689A651CE07B68C8
:102CD0009B6D1222934310221A437B689A657B688E
:102CE000DB6D01221A437B68DA651F23FB18012282
:102CF0001A7009E07B689B6D10221A437B689A6505
:102D00001F23FB1801221A701F23FB181B781800C1
:102D1000BD4608B080BDC046EC000020400D030059
:102D2000FDFEFFFF0102DEFF02FCFF1F082701403E
:102D3000FFFFC3FF04FFFF07B0B586B000AFF86028
:102D4000B9607A60FB681B681800FFF73BFE031E42
:102D50006CD1FB6854229B5C012B01D102236CE0F7
:102D6000FB68542201219954FB681B68DB6801222F
:102D7000134013D1FB681B681800FFF7FFFD031E0B
:102D800004D0FB681B681800FFF7E6FDFB681B68B2
:102D9000DA68FB681B6801210A43DA6017257C1991
:102DA000FB68180000F066FB030023702C003B1941
:102DB0001B78002B3ED1FB689B6D224A134080227A
:102DC00052001A43FB689A65FB680022DA65FB68CB
:102DD0001B6D1D4ADA62FB681B6D1C4A1A63FB6897
:102DE0001B6D1B4A5A63FB681B681C221A60FB6838
:102DF000542200219954FB681B685A68FB681B68C1
:102E000010210A435A60FB68186DFB681B68403349
:102E10001900BA683C197B6801F066FA0300237058
:102E2000FB681B681800FFF7BBFD03E01723FB18C6
:102E300002221A701723FB181B781800BD4606B033
:102E4000B0BDC046FEF0FFFF8135000849360008DE
:102E50006736000880B586B000AF786000237B61DC
:102E60007B681B681B683B617B681B685B68FB6059
:102E70003B690222134017D0FB680222134013D093
:102E80007B689B6D1022134006D17B689B6D80226E
:102E900012011A437B689A657B68180000F00EFCEB
:102EA0007B681B6802221A603B690422134003D02E
:102EB000FB680422134007D13B69082213404DD020
:102EC000FB680822134049D07B689B6D1022134099
:102ED00006D17B689B6D802292001A437B689A65BD
:102EE0007B681B681800FFF780FC031E2ED07B68F0
:102EF0009B7E002B2AD17B681B681B68082213402D
:102F0000082B23D17B681B681800FFF75BFD031EAD
:102F100010D17B681B685A687B681B680C218A4348
:102F20005A607B689B6D564A134001221A437B68A6
:102F30009A650BE07B689B6D20221A437B689A653B
:102F40007B68DB6D01221A437B68DA657B681800B9
:102F500000F098F87B681B680C221A603B6980229D
:102F6000134012D0FB68802213400ED07B689B6D0B
:102F7000802252021A437B689A657B68180000F031
:102F800091F87B681B6880221A603A6980235B0095
:102F9000134014D0FA6880235B0013400FD07B6885
:102FA0009B6D802292021A437B689A657B681800A9
:102FB00000F074FB7B681B68802252001A603A693B
:102FC00080239B00134014D0FA6880239B00134099
:102FD0000FD07B689B6D8022D2021A437B689A6572
:102FE0007B68180000F062FB7B681B6880229200FF
:102FF0001A603B69102213402BD0FB68102213404B
:1030000027D07B681B6B002B02D101237B6108E07A
:103010007B681B681800FFF73CFC031E01D00123EE
:103020007B617B69012B10D17B689B6D8022D20074
:103030001A437B689A657B68DB6D02221A437B68C2
:10304000DA657B68180000F035F87B681B68102291
:103050001A603A6980239B0113400DD0FA688023DF
:103060009B01134008D07B68180000F02FFB7B68A1
:103070001B68802292011A60C046BD4606B080BD22
:10308000FEFEFFFF80B582B000AF7860C046BD464F
:1030900002B080BD80B582B000AF7860C046BD464A
:1030A00002B080BD80B582B000AF7860C046BD463A
:1030B00002B080BD80B582B000AF7860C046BD462A
:1030C00002B080BD80B586B000AF7860396017234C
:1030D000FB1800221A700023FB607B6854229B5C63
:1030E000012B01D10223C0E17B68542201219954B4
:1030F0007B681B681800FFF765FC031E00D0A3E186
:103100003B685B68022B00D143E17B681A6980232E
:103110001B069A4204D07B681B69C14A934208D1BE
:103120007B681A683B681B6819001000FFF78EFB6C
:10313000C9E07B681A6E3B685B681F210B400F215A
:1031400099400B00DB43134019003B681B685B038D
:103150005B0B05D13B681B689B0E1F22134098E058
:103160003B681B680122134000D091E03B681B685C
:103170000222134000D089E03B681B680422134000
:1031800000D081E03B681B680822134000D079E042
:103190003B681B681022134000D071E03B681B683D
:1031A0002022134000D069E03B681B684022134096
:1031B00000D061E03B681B688022134000D059E0DA
:1031C0003B681A6880235B00134051D13B681A6842
:1031D00080239B00134049D13B681A688023DB00A1
:1031E000134041D13B681A6880231B01134039D139
:1031F0003B681A6880235B01134031D13B681A6831
:1032000080239B01134029D13B681A688023DB018E
:10321000134021D13B681A6880231B02134019D147
:103220003B681A6880235B02134011D13B681A681F
:1032300080239B02134009D13B681A688023DB027C
:10324000134001D0122324E0002322E0112320E0C8
:1032500010231EE00F231CE00E231AE00D2318E0BC
:103260000C2316E00B2314E00A2312E0092310E0DC
:1032700008230EE007230CE006230AE0052308E0FC
:10328000042306E0032304E0022302E0012300E01C
:1032900000233A6852681F20024093400A001A43F4
:1032A0007B681A663B685B689B085A1C7B68DB6915
:1032B0009A4208D87B6818683B6859683B681B6865
:1032C0001A00FFF7A3FA7B6818683B6819683B6827
:1032D0009B681A00FFF7EAFA3B681B68002B00DBCB
:1032E000BCE0504B1800FFF73FFA03003B613B681E
:1032F0001B684D4A934222D13A6980231B04134034
:103300001DD13B69802212041343464A1900100064
:10331000FFF716FA454B1B6845491800FCF706FFF6
:1033200003005A1C13005B009B189B00FB6002E02B
:10333000FB68013BFB60FB68002BF9D18EE03B682A
:103340001B683C4A93420ED13A6980235B041340C8
:1033500009D13B69802252041343324A19001000FC
:10336000FFF7EEF97AE03B681B68334A934200D0DE
:1033700074E03A698023DB03134000D06EE03B69C0
:103380008022D2031343274A19001000FFF7D8F90F
:1033900064E07B681A6980231B069A4204D07B682C
:1033A0001B691F4A934207D17B681A683B681B68F8
:1033B00019001000FFF75BFA3B681B68002B4DDA21
:1033C000184B1800FFF7D0F903003B613B681B68FE
:1033D000154A934208D13B69184A1340114A190013
:1033E0001000FFF7ADF939E03B681B68114A9342C2
:1033F00008D13B69124A13400A4A19001000FFF72E
:103400009FF92BE03B681B680B4A934226D13B692E
:103410000C4A1340034A19001000FFF791F91DE010
:103420000400008008270140001000B0EC000020DC
:10343000400D0300004000B8002000B4FFFF7FFFF4
:10344000FFFFFFFEFFFFBFFF7B689B6D20221A433B
:103450007B689A651723FB1801221A707B68542237
:10346000002199541723FB181B781800BD4606B09D
:1034700080BDC04680B584B000AF78600023BB60DB
:103480007B681B681800FFF779FA031E00D069E01B
:103490007B681B689B68364A13400DD07B689B6D28
:1034A00010221A437B689A657B68DB6D01221A4300
:1034B0007B68DA65012356E07B681B681800FFF71C
:1034C00039FA2C4B1800FFF74FF9020080231B0438
:1034D00013400FD0284B1B6828491800FCF726FE24
:1034E00003000133BB6002E0BB68013BBB60BB680B
:1034F000002BF9D17B685B7E012B33D0FFF7F2F80C
:103500000300FB6027E07B681B681800FFF736FAB2
:10351000031E04D17B681B681800FFF70BFAFFF746
:10352000E1F80200FB68D31A022B14D97B681B68F0
:103530001B6801221340012B0DD07B689B6D10226C
:103540001A437B689A657B68DB6D01221A437B68AE
:10355000DA65012307E07B681B681B6801221340C2
:10356000012BD0D100231800BD4604B080BDC04659
:103570001700008008270140EC000020400D0300E8
:1035800080B584B000AF78607B689B6AFB60FB68A5
:103590009B6D5022134041D1FB689B6D80229200AD
:1035A0001A43FB689A65FB681B681800FFF71DF952
:1035B000031E2ED0FB689B7E002B2AD1FB681B6864
:1035C0001B6808221340082B23D1FB681B681800D6
:1035D000FFF7F8F9031E10D1FB681B685A68FB68F7
:1035E0001B680C218A435A60FB689B6D154A134087
:1035F00001221A43FB689A650BE0FB689B6D202251
:103600001A43FB689A65FB68DB6D01221A43FB686D
:10361000DA65FB681800FFF735FD0FE0FB689B6D6E
:103620001022134004D0FB681800FFF743FD05E0AB
:10363000FB681B6D5B6B7A6810009847C046BD46FF
:1036400004B080BDFEFEFFFF80B584B000AF78609F
:103650007B689B6AFB60FB681800FFF71BFDC04698
:10366000BD4604B080BD80B584B000AF78607B6893
:103670009B6AFB60FB689B6D40221A43FB689A655E
:10368000FB68DB6D04221A43FB68DA65FB681800EF
:10369000FFF710FDC046BD4604B080BD80B582B0C6
:1036A00000AF7860C046BD4602B080BD80B582B034
:1036B00000AF7860C046BD4602B080BD80B582B024
:1036C00000AF7860C046BD4602B080BD80B582B014
:1036D00000AF7860C046BD4602B080BD80B582B004
:1036E00000AF7860054A8023D25804497B681343B1
:1036F00080228B50C046BD4602B080BD00180240FB
:1037000080B582B000AF7860064A8023D3587A68CB
:10371000D2430449134080228B50C046BD4602B0BC
:1037200080BDC0460018024080B582B000AF78600E
:10373000054A8423D25804497B68134384228B5062
:10374000C046BD4602B080BD0018024080B582B0C0
:1037500000AF7860064A8423D3587A68D24304497C
:10376000134084228B50C046BD4602B080BDC04687
:103770000018024080B582B000AF7860044B196831
:10378000034B7A680A431A60C046BD4602B080BD4A
:103790000018024080B582B000AF7860054B1A680F
:1037A0007B68D943034B0A401A60C046BD4602B04D
:1037B00080BDC0460018024080B582B000AF78607E
:1037C000044B5968034B7A680A435A60C046BD46A9
:1037D00002B080BD0018024080B582B000AF7860B2
:1037E000054B5A687B68D943034B0A405A60C04670
:1037F000BD4602B080BDC0460018024080B582B010
:1038000000AF7860034B7A681A61C046BD4602B0CB
:1038100080BDC0460018024080B582B000AF78601D
:10382000034B7A68DA60C046BD4602B080BDC04630
:103830000018024080B588B000AF78600023FB60BC
:103840001F217B1800221A707B68002B03D17B1884
:1038500001221A703DE17B681B681B68DB0FDA07E9
:1038600080231B069A4204D11F23FB1801221A70E1
:103870002FE17B6829229B5CDBB2002B0AD17B689D
:103880002822002199547B680022DA627B681800A4
:10389000FEF7A4FB7B681B681B6830221340BB61EA
:1038A0007B685A697B681B691A437B681B6A1A43E9
:1038B0007B689B691A437B68DB691A437B68DB681A
:1038C00013437B617B681B681B68854A13401900A2
:1038D0007B681B687A690A431A607B685A68802390
:1038E0001B019A420DD17F4B1A687E4B7E490A40DC
:1038F0001A607C4B5A687B4B802109010A435A604D
:103900001FE07B685A68C0235B019A420DD1754B5A
:103910001A68744B802109010A431A60714B5A6876
:10392000704B71490A405A600BE06E4B1A686D4B40
:103930006D490A401A606B4B5A686A4B6A490A40E3
:103940005A607B689B68A022D201934217D0A022C4
:10395000D201934230D8012B1FD08022D201934252
:103960002AD1604B1A685F4B8021C9010A431A6053
:103970005C4B5A685B4B5D490A405A6029E0594BE1
:103980001A68584B59490A401A60564B5A68554BA9
:103990008021C9010A435A601BE0524B1A68514BFF
:1039A0008021C9010A431A604E4B5A684D4B802151
:1039B000C9010A435A600CE04A4B1A68494B4B490B
:1039C0000A401A60474B5A68464B48490A405A60B9
:1039D000C0467B681B681B683022134016D0BB6949
:1039E000002B13D1424B1B6842491800FCF79EFB89
:1039F00003005A1C13009B009B189B00FB6002E015
:103A0000FB68013BFB60FB68002BF9D17B681B68FE
:103A1000344A934202D180239B0201E08023DB02DF
:103A20003B617B685B6A0322134040D07B685B6A22
:103A30001022134004D03B691800FFF79BFE03E0FF
:103A40003B691800FFF7A6FE7B685B6A20221340E3
:103A500004D03B691800FFF7AFFE03E03B69180094
:103A6000FFF7BAFE3B691800FFF7D6FE3B69180066
:103A7000FFF7C4FE7B685B6A0222134004D03B69F7
:103A80001800FFF751FE03E03B691800FFF75EFEE8
:103A90007B685B6A0122134004D03B691800FFF782
:103AA0001DFE0CE03B691800FFF72AFE07E03B69AA
:103AB0001800FFF74BFE3B691800FFF721FE7B68FB
:103AC00029229B5CDBB2002B03D17B6829220121D8
:103AD00099541F23FB181B781800BD4608B080BD01
:103AE0000F7400FE00020140FFF7FFFFFFBFFFFF62
:103AF000EC000020400D030080B584B000AF78607A
:103B00000023BB600F217B1800221A707B68002BFA
:103B100003D17B1801221A7035E07B681B681B6893
:103B2000DB0FDA0780231B069A4204D10F23FB1810
:103B300001221A7027E07B6829229B5CDBB2012BF3
:103B40001DD17B681B681A687B681B6801210A43CA
:103B50001A607B682922022199540E4B1B680E497A
:103B60001800FCF7E3FA03000133DB00BB6002E05E
:103B7000BB68013BBB60BB68002BF9D103E00F239E
:103B8000FB1801221A700F23FB181B781800BD4682
:103B900004B080BDEC000020400D030080B582B071
:103BA00000AF0200FB1D1A70FB1D1B787F2B09D88C
:103BB000FB1D1B781A001F231A40044B0121914062
:103BC0000A001A60C046BD4602B080BD00E100E0B8
:103BD00090B583B000AF02003960FB1D1A70FB1D69
:103BE0001B787F2B28D82F4AFB1D1B785BB29B08C4
:103BF000C0339B009B58FA1D1278110003220A4023
:103C0000D200FF2191400A00D2431A4011003B68C4
:103C10009B01FF221A40FB1D1B7818000323034061
:103C2000DB009A401F48FB1D1B785BB29B080A43D0
:103C3000C0339B001A5031E01B4AFB1D1B78190052
:103C40000F230B40083B9B0806339B00D31804331B
:103C50001B68FA1D1278110003220A40D200FF21CE
:103C600091400A00D2431A4011003B689B01FF2299
:103C70001A40FB1D1B78180003230340DB009A4009
:103C80000948FB1D1B781C000F232340083B9B08A1
:103C90000A4306339B00C31804331A60C046BD466E
:103CA00003B090BD00E100E000ED00E080B582B01F
:103CB00000AF78607B685A1E80235B049A4201D370
:103CC000012310E00A4B7A68013A5A6001235B42F3
:103CD00003211800FFF77CFF054B00229A60044B7C
:103CE00007221A6000231800BD4602B080BDC046FE
:103CF00010E000E080B584B000AFB9607A600F21B9
:103D00007B18021C1A70BA687B181B785BB2110012
:103D10001800FFF75DFFC046BD4604B080BD80B50A
:103D200082B000AF0200FB1D1A70FB1D1B785BB256
:103D30001800FFF733FFC046BD4602B080BD80B516
:103D400082B000AF78607B681800FFF7AFFF030018
:103D50001800BD4602B080BD80B582B000AF78606B
:103D60007B68002B01D1012315E07B681B79DBB256
:103D7000002B06D17B6800225A717B681800FEF781
:103D800063F97B6802221A717B6800221A617B68E2
:103D900001221A7100231800BD4602B080BD80B513
:103DA00082B000AF786039607B68002B01D10123BD
:103DB00047E07B685B79012B01D1022341E07B68FE
:103DC00001225A717B6802221A717B681B6819688C
:103DD0003B681022134001229A407B681B680A430B
:103DE0001A603B68002B0FD17B681B681B683E2262
:103DF0001340022B1ED17B681B685A687B681B68C6
:103E000001210A435A6015E07B681B681A68F82391
:103E10009B031A403B6810210B40022199400B0084
:103E20009A4207D17B681B685A687B681B6802212D
:103E30000A435A607B6801221A717B6800225A711A
:103E400000231800BD4602B080BD000080B584B0DC
:103E500000AF78607B681B681B68FB607B681B6831
:103E60005B6BBB60FA6880239B0113401ED0BA686D
:103E700080239B01134019D07B6804221A717B6850
:103E80001B6901221A437B681A617B681B688022C8
:103E900092015A637B681B681A687B681B68174924
:103EA0000A401A607B68180000F053F8FA68802313
:103EB0009B0513401ED0BA6880239B05134019D080
:103EC0007B6804221A717B681B6902221A437B6893
:103ED0001A617B681B68802292055A637B681B68A5
:103EE0001A687B681B6806490A401A607B681800DC
:103EF00000F068F9C046BD4604B080BDFFEFFFFF8B
:103F0000FFFFFFEF80B586B000AFF860B9607A6060
:103F10003B6000237B61FB68002B01D1012314E08F
:103F2000FB681B687B61BB68002B05D17A697B68E5
:103F3000D31808337B6104E07A697B68D3181433A3
:103F40007B617B693A681A6000231800BD4606B0A1
:103F500080BD80B582B000AF7860C046BD4602B07B
:103F600080BD000080B588B000AFF860B9607A60AD
:103F70001F23FB1800221A70FB68002B02D0BB68BD
:103F8000002B01D1012315E1FB685B79012B01D1E5
:103F900002230FE1FB6801225A71FB6802221A71A9
:103FA000BB681B68042B00D07AE0FEF79BFB030084
:103FB000BB617B68002B3DD118E0FEF793FB02004C
:103FC000BB69D31A012B11D9FB681B685A6B80237C
:103FD0001B0213400AD0FB681B6908221A43FB68C6
:103FE0001A61FB6803221A710323E3E0FB681B6874
:103FF0005A6B80231B021340DFD1FB681B68BA6831
:1040000092691A6420E0FEF76DFB0200BB69D31AC7
:10401000012B0FD9FB681B685B6B002B0ADAFB686E
:104020001B6908221A43FB681A61FB6803221A7194
:104030000323BFE0FB681B685B6B002BE3DBFB68C3
:104040001B68BA6892695A64FB681B689B6C7A6843
:1040500010210A40594991400A00D2431A401100E8
:10406000BB68DA697B68102003409A40FB681B68D4
:104070000A439A64FB681B68DB6C7A6810210A406B
:10408000FF2191400A00D2431A401100BB681A6A0E
:104090007B68102003409A40FB681B680A43DA647F
:1040A000BB681B69012B1DD1FB681B689B6B7B6187
:1040B0007B68102213401F229A401300DA437B6969
:1040C00013407B61BB685B693B617B6810221340D6
:1040D0003A699A4013007A6913437B61FB681B6855
:1040E0007A699A63FB681B68DB6B7B617B681022D3
:1040F000134007229A401300DA437B6913407B6127
:10410000BB681A68BB689B681A43BB68DB681343CB
:104110003B617B68102213403A699A4013007A6928
:1041200013437B61FB681B687A69DA63FB681B6871
:104130001A687B6810210B408021C90199400B004F
:10414000D943FB681B680A401A60FB681B681B6840
:104150007B617B6810221340194A9A401300DA43AE
:104160007B6913407B61BB685B683B617B681022A5
:1041700013403A699A4013007A6913437B61FB68E4
:104180001B687A691A60FB681B681A687B681021D3
:104190000B40C02199400B00D943FB681B680A40C3
:1041A0001A60FB6801221A71FB6800225A711F23F2
:1041B000FB181B781800BD4608B080BDFF03000047
:1041C000FE0F000080B582B000AF7860C046BD46EB
:1041D00002B080BD80B582B000AF78607B68002BF4
:1041E00001D1012377E07B681B683D4A9446634414
:1041F00014211800FBF79AFF03009A007B681A64E9
:104200007B682522022199547B681B681A687B68A9
:104210001B6834490A401A607B681B6819687B6810
:104220009A687B68DB681A437B681B691A437B6862
:104230005B691A437B689B691A437B68DB691A4395
:104240007B681B6A1A437B681B680A431A607B6899
:10425000180000F08DFA7B689A688023DB019A428F
:1042600002D17B6800225A607B685A687B685B6C6D
:104270003F210A401A607B689B6C7A68D26C5A6056
:104280007B685B68002B11D07B685B68042B0DD8C2
:104290007B68180000F098FA7B681B6D00221A609A
:1042A0007B685B6D7A68926D5A6008E07B680022DB
:1042B0001A657B6800225A657B6800229A657B68D4
:1042C0000022DA637B682522012199547B6824222D
:1042D0000021995400231800BD4602B080BDC0469D
:1042E000F8FFFDBF0F80FFFF80B586B000AFF8601C
:1042F000B9607A603B601723FB1800221A70FB68D4
:1043000024229B5C012B01D102236FE0FB68242255
:1043100001219954FB6825229B5CDBB2012B57D10C
:10432000FB68252202219954FB680022DA63FB68AE
:104330001B681A68FB681B6801218A431A603B6886
:104340007A68B968F86800F0D3F9FB681B6B002B3A
:1043500008D0FB681B681A68FB681B680E210A43BB
:104360001A600FE0FB681B681A68FB681B68042171
:104370008A431A60FB681B681A68FB681B680A217D
:104380000A431A60FB685B6C1A6880235B02134067
:1043900008D0FB685B6C1A68FB685B6C8021490085
:1043A0000A431A60FB681B6D002B08D0FB681B6D6D
:1043B0001A68FB681B6D802149000A431A60FB687C
:1043C0001B681A68FB681B6801210A431A600AE02F
:1043D000FB688022DA63FB682422002199541723AA
:1043E000FB1801221A701723FB181B781800BD4612
:1043F00006B080BD80B582B000AF78607B68002BCE
:1044000001D1012350E07B6825229B5CDBB2022BAB
:1044100008D07B680422DA637B6824220021995447
:10442000012341E07B681B681A687B681B680E21CA
:104430008A431A607B685B6C1A687B685B6C1C49FA
:104440000A401A607B681B681A687B681B68012138
:104450008A431A60174B59687B681B6C1C221340F7
:1044600001229A40134B0A435A607B689B6C7A681E
:10447000D26C5A607B681B6D002B0CD07B681B6D67
:104480001A687B681B6D0A490A401A607B685B6D7D
:104490007A68926D5A607B682522012199547B6865
:1044A00024220021995400231800BD4602B080BD8B
:1044B000FFFEFFFF0000024080B584B000AF7860CF
:1044C0000F217B1800221A707B6825229B5CDBB2CF
:1044D000022B06D07B680422DA637B1801221A7053
:1044E00049E07B681B681A687B681B680E218A4359
:1044F0001A607B681B681A687B681B6801218A4305
:104500001A607B685B6C1A687B685B6C1D490A40AB
:104510001A601D4B59687B681B6C1C2213400122DA
:104520009A40194B0A435A607B689B6C7A68D26C3C
:104530005A607B681B6D002B0CD07B681B6D1A6862
:104540007B681B6D0F490A401A607B685B6D7A6857
:10455000926D5A607B682522012199547B68242240
:10456000002199547B689B6B002B04D07B689B6B6C
:104570007A68100098470F23FB181B781800BD4677
:1045800004B080BDFFFEFFFF0000024080B584B094
:1045900000AF7860554B1B68FB607B681B681B682D
:1045A000BB607B681B6C1C22134004229A401300E2
:1045B000FA68134027D0BB680422134023D07B68DD
:1045C0001B681B682022134007D17B681B681A6890
:1045D0007B681B6804218A431A60444B59687B68D6
:1045E0001B6C1C22134004229A40404B0A435A6021
:1045F0007B681B6B002B00D173E07B681B6B7A68B8
:10460000100098476DE07B681B6C1C22134002224F
:104610009A401300FA6813402ED0BB680222134060
:104620002AD07B681B681B68202213400BD17B6853
:104630001B681A687B681B680A218A431A607B68BA
:10464000252201219954294B59687B681B6C1C2237
:10465000134002229A40254B0A435A607B68242269
:10466000002199547B68DB6A002B3AD07B68DB6AB7
:104670007A681000984734E07B681B6C1C2213405A
:1046800008229A401300FA6813402BD0BB68082216
:10469000134027D07B681B681A687B681B680E2153
:1046A0008A431A60114B59687B681B6C1C221340AB
:1046B00001229A400D4B0A435A607B680122DA635B
:1046C0007B682522012199547B682422002199547A
:1046D0007B685B6B002B05D07B685B6B7A68100096
:1046E0009847C046C046BD4604B080BD00000240A9
:1046F00080B584B000AFF860B9607A603B60FB6859
:104700009B6CFA68D26C5A60FB681B6D002B04D05E
:10471000FB685B6DFA68926D5A60144B5968FB68D0
:104720001B6C1C22134001229A40104B0A435A6012
:10473000FB681B683A685A60FB689B68102B08D1BD
:10474000FB681B687A689A60FB681B68BA68DA6065
:1047500007E0FB681B68BA689A60FB681B687A68A8
:10476000DA60C046BD4604B080BDC04600000240CD
:1047700080B584B000AF78607B681B6C9B08104AE2
:10478000944663449B001A007B685A647B681B68EC
:104790001A00FF231340083B14211800FBF7C6FC46
:1047A0000300FB607B68074A9A64FB681F22134082
:1047B00001229A407B68DA64C046BD4604B080BDE1
:1047C000008200108008024080B584B000AF78609D
:1047D0007B685B683F221340FB60FB680A4A944693
:1047E00063449B001A007B681A657B68074A5A6518
:1047F000FB68013B0322134001229A407B689A65C3
:10480000C046BD4604B080BD3F8200104009024052
:10481000B0B586B000AFF860B9603A607B60214BFC
:104820001B78012B01D1022338E01E4B01221A70A4
:104830001C4B00225A6017257C19FA239B00180094
:1048400000F07AF8030023707B191B78002B1FD12E
:10485000FB68012B06D13A687B68B968080000F054
:10486000B9F805E03A68BB681100180006F048F88E
:104870001723FC18FA239B00180000F05DF80300D2
:104880002370094B5A69FB68D943074B0A405A61A8
:10489000044B00221A701723FB181B781800BD4622
:1048A00006B0B0BD5C0500200020024080B582B09B
:1048B00000AFFB1D00221A700B4B5B69002B0CDA5A
:1048C000094B0A4A9A60084B094A9A60064B5B6991
:1048D000002B02DAFB1D01221A70FB1D1B78180049
:1048E000BD4602B080BDC04600200240230167459E
:1048F000AB89EFCD80B582B000AFFB1D01221A70ED
:10490000FA239B00180000F017F80A4B5A69094B6C
:10491000802109060A435A61064B5B69002B02DAC3
:10492000FB1D00221A70FB1D1B781800BD4602B04B
:1049300080BDC0460020024080B584B000AF7860E2
:10494000FDF7D0FE0300FB6080235B02BB600CE040
:104950007B68013309D0FDF7C5FE0200FB68D31A5E
:104960007A689A4201D8032328E0164B1B69BA687B
:104970001340EDD1134B1B69134A1340BB60114B1D
:10498000124A1A61BB68002B11D0114BBA685A60E9
:10499000012313E07B68013309D0FDF7A3FE020079
:1049A000FB68D31A7A689A4201D8032306E0054BC4
:1049B0001A698023DB021340ECD100231800BD46A6
:1049C00004B080BD00200240FAC30000FBC3000019
:1049D0005C050020B0B584B000AFF8603A607B6041
:1049E0000B4B5A690A4B01210A435A61FB683A682A
:1049F0001A60BFF36F8FC0467B681C0000231D0048
:104A0000FB68043322001A60C046BD4604B0B0BD46
:104A100000200240B0B584B000AF78603960354BFB
:104A20001B78012B01D102235FE0324B01221A7067
:104A3000304B00225A600F257C19FA239B00180086
:104A4000FFF77AFF030023702C003B191B78002B23
:104A500045D17B6804225A607B681B68042B0DD10A
:104A60007B685B68180000F049F83C19FA239B004A
:104A70001800FFF761FF0300237030E03B6801225C
:104A800052421A607B689B68BB601AE07B685B6877
:104A9000BA681100180000F045F80F257C19FA23B8
:104AA0009B001800FFF748FF030023707B191B7859
:104AB000002B03D03B68BA681A600AE0BB68013378
:104AC000BB607B689A687B68DB68D318BA689A42D7
:104AD000DCD3094B5A69084B02218A435A61054BC2
:104AE00000221A700F23FB181B781800BD4604B073
:104AF000B0BDC0465C0500200020024080B582B0F9
:104B000000AF7860064B5A697B681A43044B8021DA
:104B100049020A435A61C046BD4602B080BDC04644
:104B20000020024080B584B000AF78603960084B47
:104B30005B69084A1340FB603B68DA00FB681A4374
:104B4000034B05490A435A61C046BD4604B080BDC7
:104B50000020024007E0FFFF0200010080B586B0A0
:104B600000AF7860396000237B6147E13B681B68D8
:104B700001217A6991400A001340FB60FB68002B19
:104B800000D138E13B685B6803221340012B05D05C
:104B90003B685B6803221340022B30D17B689B6823
:104BA0003B617B695B0003229A401300DA433B6957
:104BB00013403B613B68DA687B695B009A401300F5
:104BC0003A6913433B617B683A699A607B685B682A
:104BD0003B6101227B699A401300DA433B69134031
:104BE0003B613B685B681B0901221A407B699A4064
:104BF00013003A6913433B617B683A695A603B682A
:104C00005B6803221340032B17D07B68DB683B6192
:104C10007B695B0003229A401300DA433B6913402F
:104C20003B613B689A687B695B009A4013003A6974
:104C300013433B617B683A69DA603B685B68032237
:104C40001340022B23D17B69DA087B68083292007B
:104C5000D3583B617B69072213409B000F229A4087
:104C60001300DA433B6913403B613B681A697B6977
:104C700007210B409B009A4013003A6913433B61A4
:104C80007B69DA087B68083292003969D1507B6809
:104C90001B683B617B695B0003229A401300DA4387
:104CA0003B6913403B613B685B6803221A407B69A8
:104CB0005B009A4013003A6913433B617B683A6991
:104CC0001A603B685A68C0239B02134000D192E0EF
:104CD000504A7B699B0818339B009B583B617B695A
:104CE00003221340DB000F229A401300DA433B6992
:104CF00013403B617A68A023DB059A4213D07B689E
:104D0000454A93420DD07B68444A934207D07B6862
:104D1000434A934201D1032306E0052304E0022322
:104D200002E0012300E000237A6903210A40D20057
:104D300093403A6913433B6136497B699B081833BA
:104D40009B003A695A50334B1B683B61FB68DA435E
:104D50003B6913403B613B685A6880235B03134007
:104D600003D03A69FB6813433B612A4B3A691A60E6
:104D7000284B5B683B61FB68DA433B6913403B614E
:104D80003B685A6880239B03134003D03A69FB6851
:104D900013433B611F4B3A695A601E4A8423D35820
:104DA0003B61FB68DA433B6913403B613B685A68EF
:104DB00080239B02134003D03A69FB6813433B6195
:104DC000144984223B698B50124A8023D3583B619B
:104DD000FB68DA433B6913403B613B685A688023B8
:104DE0005B02134003D03A69FB6813433B610949F6
:104DF00080223B698B507B6901337B613B681A6879
:104E00007B69DA40131E00D0B0E6C046C046BD46FE
:104E100006B080BD00180240000400500008005099
:104E2000000C005080B584B000AF78600A00BB1C55
:104E30001A807B681B69BA1C1288134004D00F23A8
:104E4000FB1801221A7003E00F23FB1800221A70CE
:104E50000F23FB181B781800BD4604B080BD80B539
:104E600082B000AF786008001100BB1C021C1A80E1
:104E70007B1C0A1C1A707B1C1B78002B04D0BB1CEB
:104E80001A887B689A6103E0BB1C1A887B689A6267
:104E9000C046BD4602B080BD80B584B000AF78602A
:104EA0000A00BB1C1A807B685B69FB60BB1C1B880B
:104EB000FA6813401A04FB68DB43B91C09880B40ED
:104EC0001A437B689A61C046BD4604B080BD0000AD
:104ED00080B584B000AF7860194B1B68194A134045
:104EE0001900174B7A680A431A607A6880239B007E
:104EF0009A421FD1144B1A6813005B009B185B0089
:104F000012491800FBF712F903000133FB6008E0B7
:104F1000FB68002B03D0FB68013BFB6001E003232F
:104F200009E0074B5A698023DB001A408023DB002D
:104F30009A42EDD000231800BD4604B080BDC046A3
:104F400000700040FFF9FFFFEC00002040420F001E
:104F500080B500AF034B9A68E023DB0113401800D3
:104F6000BD4680BD0010024080B588B000AF7860BB
:104F70007B68002B01D10123FEE27B681B680122C4
:104F8000134000D17CE0C34B9B6838221340BB61C7
:104F9000C04BDB68032213407B61BB69102B02D13D
:104FA0007B69032B02D0BB69082B0BD1B94B1A6864
:104FB00080239B02134062D07B685B68002B5ED12C
:104FC0000123D9E27B685A6880235B029A4207D1A9
:104FD000B04B1A68AF4B802149020A431A6020E0A7
:104FE0007B685A68A023DB029A420ED1A94B1A684B
:104FF000A84B8021C9020A431A60A64B1A68A54B28
:10500000802149020A431A600BE0A24B1A68A14BA7
:10501000A1490A401A609F4B1A689E4B9F490A405B
:105020001A607B685B68002B14D0FDF75BFB030004
:105030003B6108E0FDF756FB02003B69D31A642B85
:1050400001D9032398E2934B1A6880239B021340F3
:10505000F0D015E0FDF746FB03003B6108E0FDF7EB
:1050600041FB02003B69D31A642B01D9032383E27D
:10507000884B1A6880239B021340F0D100E0C046A1
:105080007B681B680222134000D199E0814B9B682A
:1050900038221340BB617F4BDB68032213407B61E6
:1050A000BB69102B02D17B69022B02D0BB69002B9C
:1050B00035D1784B1A688023DB00134005D07B681C
:1050C000DB68002B01D1012356E2724B5B68744A06
:1050D000134019007B685B691A026E4B0A435A60E1
:1050E000BB69002B12D16B4B1B686E4A1340190031
:1050F0007B681A69674B0A431A60664B1B68DB0AB8
:1051000007221340684ADA40684B1A60684B1B68F4
:105110001800FDF78BFA031E51D001232CE27B68A7
:10512000DB68002B30D05B4B1B685E4A13401900D4
:105130007B681A69574B0A431A60564B1A68554BDD
:10514000802149000A431A60FDF7CCFA03003B6155
:1051500008E0FDF7C7FA02003B69D31A022B01D918
:10516000032309E24B4B1A688023DB001340F0D085
:10517000484B5B684A4A134019007B685B691A0216
:10518000444B0A435A601BE0424B1A68414B494961
:105190000A401A60FDF7A6FA03003B6108E0FDF73C
:1051A000A1FA02003B69D31A022B01D90323E3E1E0
:1051B000384B1A688023DB001340F0D100E0C04672
:1051C0007B681B680822134047D0324B9B6838220B
:1051D0001340182B0AD12F4B1B6E022213403CD0D8
:1051E0007B689B69002B38D10123C5E17B689B69F3
:1051F000002B19D0274B1A6E264B01210A431A6641
:10520000FDF770FA03003B6108E0FDF76BFA02005E
:105210003B69D31A022B01D90323ADE11D4B1B6E51
:1052200002221340F1D018E01A4B1A6E194B0121DB
:105230008A431A66FDF756FA03003B6108E0FDF762
:1052400051FA02003B69D31A022B01D9032393E1DF
:10525000104B1B6E02221340F1D17B681B680422A5
:10526000134000D1C6E01F23FB1800221A70094B1F
:105270009B6838221340202B1ED1064BDB6D022287
:10528000134000D1B6E07B689B68002B00D0B1E0F2
:10529000012371E100100240FFFFFEFFFFFFFBFF53
:1052A000FF80FFFFFFC7FFFF0024F400EC00002099
:1052B000F0000020FFFEFFFFB14BDA6B80235B059F
:1052C000134001D1012300E00023002B11D0AC4B8F
:1052D000DA6BAB4B802149050A43DA63A84BDA6BE2
:1052E00080235B051340FB60FB681F23FB18012232
:1052F0001A70A44B1A6880235B0013401AD1A14B8B
:105300001A68A04B802149000A431A60FDF7EAF9A8
:1053100003003B6108E0FDF7E5F902003B69D31AA1
:10532000022B01D9032327E1964B1A6880235B00E7
:105330001340F0D07B689B68012B06D1904BDA6D4F
:105340008F4B01210A43DA651CE07B689B68052BC3
:105350000CD18B4BDA6D8A4B04210A43DA65884BFA
:10536000DA6D874B01210A43DA650BE0844BDA6D75
:10537000834B01218A43DA65814BDA6D804B04212E
:105380008A43DA657B689B68002B14D0FDF7AAF985
:1053900003003B6109E0FDF7A5F902003B69D31A60
:1053A000794A934201D90323E6E0754BDB6D022273
:1053B0001340F0D013E0FDF795F903003B6109E0DD
:1053C000FDF790F902003B69D31A6F4A934201D965
:1053D0000323D1E06A4BDB6D02221340F0D11F237F
:1053E000FB181B78012B05D1654BDA6B644B6749C1
:1053F0000A40DA637B68DB69002B00D1BBE0604BBD
:105400009B6838221340102B00D17BE07B68DB695E
:10541000022B56D15A4B1A68594B5D490A401A6003
:10542000FDF760F903003B6108E0FDF75BF902005E
:105430003B69D31A022B01D903239DE0504B1A6814
:1054400080239B041340F0D14D4BDB68514A13403D
:1054500019007B681A6A7B685B6A1A437B689B6ADF
:105460001B021A437B68DB6A1A437B681B6B1A4377
:105470007B685B6B1A43424B0A43DA60404B1A6805
:105480003F4B802149040A431A603D4BDA683C4B8C
:10549000802149050A43DA60FDF724F903003B61E6
:1054A00008E0FDF71FF902003B69D31A022B01D96E
:1054B000032361E0324B1A6880239B041340F0D031
:1054C00059E02F4B1A682E4B31490A401A60FDF7FC
:1054D00009F903003B6108E0FDF704F902003B69AC
:1054E000D31A022B01D9032346E0254B1A688023E7
:1054F0009B041340F0D1224BDA68214B26490A4025
:10550000DA6038E07B68DB69012B01D1012333E0ED
:105510001B4BDB687B617B6903221A407B681B6A3B
:105520009A4226D17B6970221A407B685B6A9A4254
:105530001FD17A69FE23DB011A407B689B6A1B023C
:105540009A4216D17A69F8239B031A407B68DB6A7A
:105550009A420ED17A69E0231B051A407B681B6BC7
:105560009A4206D17B695B0F5A077B685B6B9A4254
:1055700001D0012300E000231800BD4608B080BD23
:10558000001002400070004088130000FFFFFFEF92
:10559000FFFFFFFE8C80C111FCFFFEEE80B584B0E2
:1055A00000AF786039607B68002B01D10123E9E00E
:1055B000764B1B68072213403A689A421ED9734BF8
:1055C0001B68072293431900704B3A680A431A601C
:1055D000FDF788F80300FB6009E0FDF783F802009F
:1055E000FB68D31A6A4A934201D90323CAE0674B86
:1055F0001B68072213403A689A42EED17B681B6809
:105600000222134015D07B681B680422134006D089
:10561000604B9A685F4BE021C9010A439A605D4B79
:105620009B685D4A134019007B689A68594B0A438E
:105630009A607B681B680122134057D07B685B68C7
:10564000012B07D1534B1A6880239B0213402BD1A7
:10565000012397E07B685B68022B07D14D4B1A68EA
:1056600080239B0413401FD101238BE07B685B6880
:10567000002B07D1474B1A688023DB00134013D15E
:1056800001237FE07B685B68032B06D1414B1B6ED7
:105690000222134008D1012374E03E4BDB6D02224D
:1056A000134001D101236DE03A4B9B6807229343DD
:1056B00019007B685A68374B0A439A60FDF712F865
:1056C0000300FB6009E0FDF70DF80200FB68D31A48
:1056D0002F4A934201D9032354E02E4B9B68382272
:1056E0001A407B685B68DB009A42ECD1274B1B6851
:1056F000072213403A689A421ED2244B1B680722A5
:1057000093431900214B3A680A431A60FCF7EAFFF9
:105710000300FB6009E0FCF7E5FF0200FB68D31A19
:105720001B4A934201D903232CE0184B1B68072224
:1057300013403A689A42EED17B681B6804221340FA
:1057400009D0144B9B68154A134019007B68DA682E
:10575000104B0A439A6000F029F801000D4B9B683A
:105760001B0A0F221A400E4B9200D3581F221340DF
:105770000A00DA400B4B1A600B4B1B681800FCF751
:1057800055FF03001800BD4604B080BD0020024054
:105790008813000000100240FFF0FFFFFF8FFFFFA3
:1057A000B4AA0008EC000020F000002080B586B00C
:1057B00000AF3C4B9B68382213400FD1394B1B681C
:1057C000DB0A0722134001229A4013003B6039682C
:1057D0003548FAF7ABFC03003B615DE0314B9B6859
:1057E00038221340082B02D1304B3B6154E02D4B43
:1057F0009B6838221340102B38D12A4BDB680322D8
:105800001340FB60274BDB681B0907221340013361
:10581000BB60FB68032B0DD1B9682448FAF786FCFE
:10582000030019001F4BDB681B0A7F2213404B4308
:105830007B610DE0B9681C48FAF778FC0300190099
:10584000184BDB681B0A7F2213404B437B61C04629
:10585000144BDB685B0F0722134001337B607968D0
:105860007869FAF763FC03003B6115E00D4B9B6818
:1058700038221340202B03D180231B023B610BE015
:10588000084B9B6838221340182B03D1FA23DB0105
:105890003B6101E000233B613B691800BD4606B057
:1058A00080BDC046001002400024F40000127A00BF
:1058B00080B500AF024B1B681800BD4680BDC046D6
:1058C000EC000020B0B500AFFFF7F2FF0400FFF7D7
:1058D0003FFB03001A0B054B9200D3581F221340C5
:1058E000DC4023001800BD46B0BDC046F4AA000845
:1058F00080B586B000AF78601323FB1800221A70C1
:105900001223FB1800221A707B681A6880239B02FE
:10591000134000D1A3E011203B1800221A70C34BA2
:10592000DA6B80235B05134010D1C04BDA6BBF4BA1
:10593000802149050A43DA63BC4BDA6B80235B059F
:105940001340BB60BB683B1801221A70B84B1A6841
:10595000B74B802149000A431A60FCF7C3FE0300DD
:10596000FB600BE0FCF7BEFE0200FB68D31A022BC3
:1059700004D91323FB1803221A7005E0AC4B1A68F4
:1059800080235B001340EDD01323FB181B78002B02
:1059900054D1A64BDA6DC0239B0013407B617B6919
:1059A000002B19D07B681B6B7A699A4214D09F4BED
:1059B000DB6DA04A13407B619C4BDA6D9B4B8021D1
:1059C00049020A43DA65994BDA6D984B9A490A40C5
:1059D000DA65964B7A69DA657B690122134016D045
:1059E000FCF780FE0300FB600CE0FCF77BFE02008E
:1059F000FB68D31A914A934204D91323FB1803225C
:105A00001A7004E0894BDB6D02221340EDD01323A2
:105A1000FB181B78002B0AD1844BDB6D854A1340A1
:105A200019007B681A6B814B0A43DA650CE012237C
:105A3000FB181322BA1812781A7005E01223FB180B
:105A40001322BA1812781A701123FB181B78012B35
:105A500005D1764BDA6B754B79490A40DA637B687E
:105A60001B680122134009D0704B5B6D03229343E6
:105A700019007B685A686D4B0A435A657B681B683E
:105A80000222134009D0694B5B6D0C22934319002D
:105A90007B689A68654B0A435A657B681B681022CD
:105AA000134009D0614B5B6D664A134019007B6857
:105AB000DA685E4B0A435A657B681A6880239B004C
:105AC000134009D0594B5B6D5F4A134019007B6846
:105AD0009A69564B0A435A657B681A688023DB0033
