:020000040800F2
:100000000090002069210008191F0008211F000826
:1000100000000000000000000000000000000000E0
:10002000000000000000000000000000291F000880
:100030000000000000000000331F00083D1F000802
:10004000B9210008B9210008B9210008B921000828
:10005000B9210008B9210008B9210008B921000818
:10006000B92100084D1F0008B9210008B921000876
:10007000B9210008B9210008B9210008B9210008F8
:100080004120000859200008B9210008B9210008C2
:10009000B9210008C1200008B9210008B9210008D1
:1000A000B9210008B9210008B9210008B9210008C8
:0C00B000D9200008B9210008B92100087F
:1000BC0010B5064C2378002B07D1054B002B02D032
:1000CC00044800E000BF0123237010BDA4000020F1
:1000DC000000000094940008044B10B5002B03D0D2
:1000EC000349044800E000BF10BDC04600000000FA
:1000FC00A8000020949400080023C25C0133002A5D
:10010C00FBD1581E7047000003B4714649084000EB
:10011C004900095E49008E4403BC70470022430825
:10012C008B4274D303098B425FD3030A8B4244D3B3
:10013C00030B8B4228D3030C8B420DD3FF220902F5
:10014C0012BA030C8B4202D31212090265D0030BB4
:10015C008B4219D300E0090AC30B8B4201D3CB03AA
:10016C00C01A5241830B8B4201D38B03C01A5241EC
:10017C00430B8B4201D34B03C01A5241030B8B42EE
:10018C0001D30B03C01A5241C30A8B4201D3CB02D9
:10019C00C01A5241830A8B4201D38B02C01A5241BE
:1001AC00430A8B4201D34B02C01A5241030A8B42C1
:1001BC0001D30B02C01A5241CDD2C3098B4201D3D9
:1001CC00CB01C01A524183098B4201D38B01C01A57
:1001DC00524143098B4201D34B01C01A52410309CE
:1001EC008B4201D30B01C01A5241C3088B4201D37D
:1001FC00CB00C01A524183088B4201D38B00C01A2A
:10020C00524143088B4201D34B00C01A5241411A50
:10021C0000D20146524110467047FFE701B500205D
:10022C0000F0F0F802BDC0460029F7D076E7704721
:10023C0003460B437FD4002243088B4274D303093B
:10024C008B425FD3030A8B4244D3030B8B4228D3DC
:10025C00030C8B420DD3FF22090212BA030C8B4202
:10026C0002D31212090265D0030B8B4219D300E0A2
:10027C00090AC30B8B4201D3CB03C01A5241830B27
:10028C008B4201D38B03C01A5241430B8B4201D3D7
:10029C004B03C01A5241030B8B4201D30B03C01A00
:1002AC005241C30A8B4201D3CB02C01A5241830A7A
:1002BC008B4201D38B02C01A5241430A8B4201D3A9
:1002CC004B02C01A5241030A8B4201D30B02C01AD3
:1002DC005241CDD2C3098B4201D3CB01C01A52413A
:1002EC0083098B4201D38B01C01A524143098B42C3
:1002FC0001D34B01C01A524103098B4201D30B01AC
:10030C00C01A5241C3088B4201D3CB00C01A5241D0
:10031C0083088B4201D38B00C01A524143088B4295
:10032C0001D34B00C01A5241411A00D2014652412E
:10033C00104670475DE0CA0F00D04942031000D34D
:10034C004042534000229C4603098B422DD3030AA2
:10035C008B4212D3FC22890112BA030A8B420CD3B2
:10036C00890192118B4208D3890192118B4204D3DB
:10037C0089013AD0921100E08909C3098B4201D35B
:10038C00CB01C01A524183098B4201D38B01C01A95
:10039C00524143098B4201D34B01C01A524103090C
:1003AC008B4201D30B01C01A5241C3088B4201D3BB
:1003BC00CB00C01A524183088B4201D38B00C01A68
:1003CC005241D9D243088B4201D34B00C01A52413F
:1003DC00411A00D20146634652415B10104601D3CC
:1003EC004042002B00D54942704763465B1000D356
:1003FC00404201B5002000F005F802BD0029F8D0FC
:10040C0016E770477047C046002B11D1002A0FD158
:10041C00002900D1002802D00021C943080007B4EC
:10042C00024802A14018029003BDC046D9FFFFFF4D
:10043C0003B4684601B5029800F006F8019B9E468D
:10044C0002B00CBC7047C046F0B557464E46454608
:10045C00DE46E0B504000D009246994683B08B420F
:10046C0030D82DD04946504600F0BAF82900060085
:10047C00200000F0B5F8331A9846203B34D49B4644
:10048C0053465A46934042461F00534693401E0023
:10049C00AF423BD8AF4200D179E05B46A41BBD41D3
:1004AC00002B00DA76E00022002300920193012356
:1004BC005A4693400193012342469340009329E00E
:1004CC008242CFD900220023009201930C9B002B77
:1004DC0001D01C605D600098019903B0F0BCBB4674
:1004EC00B246A946A046F0BD42469B4620239B1A25
:1004FC005246DA40414613004A468A4017004246AB
:10050C001F43534693401E00AF42C3D90022002321
:10051C00009201934346002BD8D0FB0772081A4374
:10052C0046467B080EE0AB4201D1A2420CD8A41A7D
:10053C009D41012024196D410021013E24184D419B
:10054C00002E06D0AB42EED9013E24196D41002E8F
:10055C00F8D1009801995B4600196941002B24DB06
:10056C002B005A464446D3402A00E2401C005B460E
:10057C001500002B2ADB26009E4033002600474640
:10058C00BE403200801A9941009001919EE7A3422F
:10059C00BCD882E74246202300219B1A00220091FE
:1005AC0001920122DA40019285E7424620239B1AF0
:1005BC002A0046469A402300F340444613432A003F
:1005CC00E2401C005B461500002BD4DA42462F009B
:1005DC002023260097409B1ADE403B003343CDE797
:1005EC0010B5002903D100F007F8203002E0080014
:1005FC0000F002F810BDC0461C2101231B049842D8
:10060C0001D3000C10391B0A984201D3000A083997
:10061C001B09984201D30009043902A2105C40184E
:10062C007047C046040302020101010100000000F2
:10063C0000000000F0B589B006AF78607B681B68DD
:10064C00BE4A934200D075E1BD4B1B780A2B04D0F7
:10065C00BB4B1B780D2B00D057E1BA4B1B781A0003
:10066C00B94B0021995480231B02B84A1900100081
:10067C0003F038FCB44B1B78462B41D1B44AB54B34
:10068C001100180008F0B2FAB24B180008F0A8F9E3
:10069C000200B14B1A60B04B1B68092B00DC30E137
:1006AC00AD4B1B68782B00DD2BE1AB4B1B68002B93
:1006BC0000DA01335B10FA22D2019A18A64B1B68A0
:1006CC0019001000FFF7B4FD03009AB2A34B1A8077
:1006DC00A14B1968A14B1B889BB2A14AA14800935E
:1006EC000B003C2108F018FA9E4B1800FFF704FD94
:1006FC0003009AB29B499C480A2306F091F800E14A
:10070C00914B1B78412B37D1914A924B1100180019
:10071C0008F06CFA8F4B180008F062F902008E4B4F
:10072C001A608D4B1A6882235B009A4200DAE8E06B
:10073C00894B1A68FA23DB009A4200DDE1E0864B14
:10074C001B689AB2854B1A80834B1968834B1B88A4
:10075C009BB2864A834800930B003C2108F0DCF9DD
:10076C00804B1800FFF7C8FC03009AB27D497E4805
:10077C000A2306F055F8C4E0734B1B78432B2ED19B
:10078C00734A744B1100180008F030FA714B1800C2
:10079C0008F026F90200704B1A606F4B1B68632B34
:1007AC0000DCAEE06C4B1B68A02B00DDA9E06A4BB3
:1007BC001B689AB26E4B1A80674B1B686D4A69486E
:1007CC003C2108F0A9F9674B1800FFF795FC0300D2
:1007DC009AB2644964480A2306F022F891E05A4B15
:1007EC001B78442B2DD1644B1B889BB29C46624BCF
:1007FC005B889BB21900604B9B889BB21C005E4BC4
:10080C00DB889BB21D005C4B1B899BB21E005A4BB4
:10081C005B899BB2594A5348049303960295019401
:10082C00009163463C2108F077F94E4B1800FFF716
:10083C0063FC03009AB24B494B480A2305F0F0FFC6
:10084C005FE0414B1B78542B19D1444B1B889BB256
:10085C001900474B1B889BB2494A424800930B0036
:10086C003C2108F059F93F4B1800FFF745FC0300F9
:10087C009AB23C493C480A2305F0D2FF41E0324B86
:10088C00180008F0ADF80200334B1A60324B1B68AD
:10089C000A2B36DC304B1B68002B06DC394B002254
:1008AC001A70394B01221A7007E0364B01221A706C
:1008BC00294B1B68DAB2344B1A70334B1B78334A12
:1008CC0028483C2108F028F9264B1800FFF714FCA7
:1008DC0003009AB2234924480A2305F0A1FF2A4BAE
:1008EC001B785A1E2A4B9200D25A214B1A80264B47
:1008FC001B78013B264A9B00D31802331A88174BEE
:10090C001A80104B00221A700EE00E4B1B78082B2D
:10091C000AD80C4B1B785A1CD1B20A4A11701A0017
:10092C00074B1978084B995405490F4B01221800B5
:10093C0006F01AF8C046BD4603B0F0BD00440040B6
:10094C0017040020160400200004002000080050AA
:10095C00010400200C040020540400200A00002094
:10096C00AC940008180400206C030020C494000808
:10097C0006000020D8940008D4000020E894000859
:10098C00209500080C0000200D0000203495000874
:10099C001000002080B582B000AF01F009FC64208B
:1009AC0001F08CFC00F056FA642001F087FC00F09A
:1009BC00D9FE00F0C1FE00F0D1FA00F093FB00F07C
:1009CC00F7FB00F0B9FC00F017FD00F0DFFD00F0C4
:1009DC0065FE00F0A1FD00F0B5FB00F099FAD14BDB
:1009EC00FA229200DA62D04B180004F0B7F9CF4B20
:1009FC009A69CE4B80210A439A61CC4B1A68CB4B37
:100A0C0080210A431A60CA4B0021180004F05AFADC
:100A1C00C74B1B685A6CC64B1B68802109020A43E2
:100A2C005A64C44B0021180002F04BFCC24BC14865
:100A3C000022002102F0F8FCC04B180002F0EEFA84
:100A4C0080231B02BE4A1900100003F04BFAFA2354
:100A5C005B00180001F032FC80231B02B84A19001D
:100A6C00100003F03FFAFA235B00180001F026FC9B
:100A7C0080231B02B24A1900100003F033FAFA2348
:100A8C005B00180001F01AFC80231B02AC4A190011
:100A9C00100003F027FAAB49AB4B0122180005F00C
:100AAC0063FFFB1D00221A70A84B1B78DBB2002BD6
:100ABC0009D0A64B00221A7080231B02A04A1900F1
:100ACC00100003F00FFAA24B1B78DBB2002B59D0AD
:100ADC009F4B00221A7080239B009E4A1900100025
:100AEC0003F0C6F9031E05D19B4B1B78002B01D0DC
:100AFC00012300E00023DAB2984B1A70974B1B7855
:100B0C00DBB2002B09D0964B1B78002B05D1954BF3
:100B1C001B8801339AB2934B1A80934B1B889AB261
:100B2C00924B1B889BB29A420BD28F4B1B889AB26A
:100B3C008F4B1B889BB29A4203D98E4B01221A70A1
:100B4C0002E08C4B00221A708B4B1B889AB28B4B99
:100B5C001B889BB29A4203D9894B01221A7002E07E
:100B6C00874B00221A70874B1B889AB2864B1B88C6
:100B7C009BB29A4203D9854B01221A7002E0834B37
:100B8C0000221A70FB1D1B78042B8DD89A00804B09
:100B9C00D3181B689F46724B00221A70714B0022AF
:100BAC001A8080231B0266480022190003F07DF98D
:100BBC00684B00224021180003F077F95C4B1B684E
:100BCC0000225A63734B1B889AB2584BDA62724BF1
:100BDC001B78DBB2002B02D0FB1D04221A705F4B7A
:100BEC001B78DBB2002B00D11AE1624B1B78DBB215
:100BFC00002B00D114E1FB1D02221A7010E1674B8F
:100C0C001A78674B1B789A4203D9FB1D04221A7081
:100C1C003DE0534B1B78002B39D1524B1A88614B5A
:100C2C001B889A422AD280231B02454800221900B5
:100C3C0003F03BF95C4B1B889AB23D4B1B685A6323
:100C4C00544B1B889AB2394BDA62424B0122402139
:100C5C00180003F02AF9434B1A88FA239B009A4296
:100C6C0015D93C4B00224021180003F01EF93C4BD7
:100C7C0001221A70FB1D01221A7008E0494B1A88D8
:100C8C00384B1B889A4202D8FB1D03221A70334B37
:100C9C001B78DBB2002B00D0C4E0FB1D00221A70C5
:100CAC00C0E02F4B00221A702A4B00224021180062
:100CBC0003F0FBF81E4B1B6800225A6380231B02B7
:100CCC001F4A1900100003F00DF9642001F0F6FA28
:100CDC0080231B021A4A1900100003F003F9642048
:100CEC0001F0ECFA80231B02154A1900100003F0E6
:100CFC00F9F8642001F0E2FA80231B02104A190073
:100D0C00100003F0EFF8294B1B88180001F0D6FAFD
:100D1C00224B1B780133DAB2204B1A70FB1D0022D8
:100D2C001A7082E000100040D4020020002C014018
:100D3C00F0010020DC010020FF0F0000AC010020BE
:100D4C0000080050170400206C030020C60000208F
:100D5C00C5000020000400500C000020C000002042
:100D6C005A04002058040020E00000203E0000201F
:100D7C0040000020C1000020E200002042000020C2
:100D8C00C3000020EA00002044000020C400002022
:100D9C004095000808000020C20000205B040020E1
:100DAC003C00002038000020040000203A00002005
:100DBC001E4B1B889AB21E4BDA621E4B1B889AB2D2
:100DCC001D4B1B685A631D4B1B889BB21C48002291
:100DDC00002102F029FB1B4B1B78DBB2002B04D04B
:100DEC00194B1B78DBB2002B02D1FB1D00221A70B1
:100DFC00164B1B78DBB2002B16D0FB1D04221A708D
:100E0C0012E00D4B1B6800225A6380231B02104A10
:100E1C001900100003F066F8C82001F04FFA04E046
:100E2C00C04641E6C0463FE6C0463DE60A0000200B
:100E3C00002C014006000020F001002002000020E0
:100E4C00DC010020C0000020C1000020C3000020F5
:100E5C000008005090B593B000AF10243B19180057
:100E6C0038231A00002107F08DFE3B0018001023D8
:100E7C001A00002107F086FE80239B00180003F067
:100E8C004DF83B1902221A603B1980225200DA609D
:100E9C0021007B1800221A617B1840225A617B18B2
:100EAC000222DA617B1802221A627B1800225A6233
:100EBC007B1808229A627B1880229202DA627B18D5
:100ECC00C022D2041A637B18802292055A637B18C5
:100EDC00180003F06FF8031E01D000F0EDFC3B008E
:100EEC0007221A603B0000225A603B0000229A60E5
:100EFC003B000022DA603B000021180003F074FB79
:100F0C00031E01D000F0D8FCC046BD4613B090BD06
:100F1C0080B500AF00220021112002F07DF91120D4
:100F2C0002F08FF900220021092002F075F9092046
:100F3C0002F087F900220021102002F06DF9102038
:100F4C0002F07FF9002200211C2002F065F91C2020
:100F5C0002F077F9C046BD4680BD000080B584B074
:100F6C0000AF3B1D18000C231A00002107F00AFEED
:100F7C00554B564A1A60544BA02252035A60524B9E
:100F8C0000229A60504B0022DA604F4B8022920371
:100F9C001A614D4B04225A614B4B00221A764A4B74
:100FAC0000225A76484B01229A76474B0622DA6188
:100FBC00454BA822D2005A62434B8022D2009A623F
:100FCC00414B2C22012199543F4B00221A633E4B7A
:100FDC0005225A633C4B05229A633B4B3C22002171
:100FEC009954394B0022DA64374B180001F088FA17
:100FFC00031E01D000F060FC3B1D01221A603B1D5A
:10100C0000225A603B1D00229A603A1D2E4B1100A3
:10101C00180001F01DFC031E01D000F04DFC3B1D1F
:10102C002B4A1A603B1D04225A603A1D264B1100B4
:10103C00180001F00DFC031E01D000F03DFC3B1D1F
:10104C00244A1A603B1D08225A603A1D1E4B11009F
:10105C00180001F0FDFB031E01D000F02DFC3B1D20
:10106C001D4A1A603B1D0C225A603A1D164B11008A
:10107C00180001F0EDFB031E01D000F01DFC3B1D20
:10108C00164A1A603B1D10225A603A1D0E4B110075
:10109C00180001F0DDFB031E01D000F00DFC3B1D20
:1010AC000F4A1A603B1D14225A603A1D064B110060
:1010BC00180001F0CDFB031E01D000F0FDFBC04673
:1010CC00BD4604B080BDC046EC00002000240140A9
:1010DC00020000040800000C0001002000020024A3
:1010EC000004002880B500AF144B154A1A60134B4E
:1010FC0000221A61114B40225A61104B0022DA6116
:10110C000E4B00229A600D4B00229A610B4B002271
:10111C001A620A4B0022DA60084B00225A60074B15
:10112C0000225A62054B180001F016FE031E01D076
:10113C0000F0C2FBC046BD4680BDC046AC010020DD
:10114C000402014080B58AB000AF3B1D1800242377
:10115C001A00002107F016FD134B144A1A60124BAB
:10116C00180002F08BF8031E01D000F0A5FB3B1D0C
:10117C0000221A603B1D00225A603B1D02229A601D
:10118C003B1D0122DA603B1D00221A61391D064B02
:10119C000022180002F078F9031E01D000F08CFB3D
:1011AC00C046BD460AB080BDDC0100200074004082
:1011BC0080B59CB000AF5C23FB18180014231A00F8
:1011CC00002107F0DFFC5023FB1818000C231A0039
:1011DC00002107F0D7FC3423FB1818001C231A003D
:1011EC00002107F0CFFC3B00180034231A0000212B
:1011FC0007F0C8FC4E4B4F4A1A604D4B00225A6008
:10120C004B4B00229A604A4BA0225200DA60484BAA
:10121C0000221A61464B00225A61454B80229A618A
:10122C00434B180003F0F6FD031E01D000F044FB05
:10123C005C217B1801221A607B1801225A607918F4
:10124C003B4B0022180004F02BFA031E01D000F0D7
:10125C0033FB50217B1800221A607B1800225A6045
:10126C007B1800229A607A18314B1100180005F097
:10127C005FF9031E01D000F01FFB34217B186022A4
:10128C001A607B1800225A607B1800229A607B1827
:10129C000022DA607B1800221A617B1800225A6146
:1012AC007B1800229A617918214B0022180004F057
:1012BC00F7F8031E01D000F0FFFA3B0000221A6081
:1012CC003B0000225A603B0000229A603B00002247
:1012DC00DA603B0000221A613B00802292015A61C5
:1012EC003B0000229A613B000022DA613B000022A5
:1012FC001A623B00802292045A623B0000229A62DE
:10130C003B000022DA623B0000221A633A00084BD1
:10131C001100180005F07AF9031E01D000F0CCFA88
:10132C00034B180000F0FAFCC046BD461CB080BD53
:10133C00F0010020002C014080B58AB000AF1C23C6
:10134C00FB1818000C231A00002107F01BFC3B00B3
:10135C0018001C231A00002107F014FC254B8022D6
:10136C00D2051A60234B10225A60224B00229A603D
:10137C00204BFA229200DA601E4B00221A611D4BA0
:10138C0000229A611B4B180003F044FD031E01D090
:10139C0000F092FA1C217B1800221A607B180022A4
:1013AC009A607A18134B1100180005F0C1F8031E4F
:1013BC0001D000F081FA3B0060221A603B00FA2257
:1013CC0052005A603B0000229A603B0000221A61D6
:1013DC003900084B0822180004F062F8031E01D0F3
:1013EC0000F06AFA034B180000F098FCC046BD46AA
:1013FC000AB080BD3C02002080B58CB000AF1C232D
:10140C00FB18180014231A00002107F0BBFB0C2357
:10141C00FB18180010231A00002107F0B3FB3B0047
:10142C0018000C231A00002107F0ACFB374B384A8C
:10143C001A60364B00225A60344B00229A60334BB0
:10144C00344ADA60314B00221A61304B00229A6127
:10145C002E4B180003F020FE031E01D000F02CFAD6
:10146C001C217B1804221A607B1860225A607B189E
:10147C0000229A607B180022DA607B1800221A6125
:10148C007A18224B1100180004F034FA031E01D014
:10149C0000F012FA0C217B1802221A607B1802222F
:1014AC005A607B1800229A607B180022DA60791847
:1014BC00164B0022180003F04FFF031E01D000F062
:1014CC00FBF90C217B1800221A607B1801225A6050
:1014DC0079180E4B0422180003F03EFF031E01D0B6
:1014EC0000F0EAF93B0000221A603B0000229A60EF
:1014FC003A00064B1100180005F01AF8031E01D033
:10150C0000F0DAF9C046BD460CB080BD8802002060
:10151C0000040040FFFF000080B584B000AF3B1D0D
:10152C0018000C231A00002107F02CFB154B164A4F
:10153C001A60144B10225A60124B00229A60114B05
:10154C00FA229200DA600F4B00229A610D4B1800C0
:10155C0003F0ACFB031E01D000F0AEF93B1D2022C2
:10156C001A603B1D00229A603A1D064B11001800B0
:10157C0004F0DEFF031E01D000F09EF9C046BD460C
:10158C0004B080BDD40200200010004080B594B09F
:10159C0000AF3423FB1818001C231A00002107F09D
:1015AC00F1FA3B00180034231A00002107F0EAFA84
:1015BC00374B384A1A60364B00225A60344B0022A3
:1015CC009A60334B344ADA60314B00221A61304B4B
:1015DC0000225A612E4B00229A612D4B180003F009
:1015EC0065FB031E01D000F067F9294B180003F0CE
:1015FC0011FC031E01D000F05FF934217B1860222E
:10160C001A607B1800225A607B1800229A607B18A3
:10161C000022DA607B1800221A617B1800225A61C2
:10162C007B1800229A617918194B0022180003F0DC
:10163C0037FF031E01D000F03FF93B0000221A6077
:10164C003B0000225A603B0000229A603B000022C3
:10165C00DA603B0000221A613B00802292015A6141
:10166C003B0000229A613B0000221A633A00084BAF
:10167C001100180004F0CAFF031E01D000F01CF981
:10168C00034B180000F04AFBC046BD4614B080BDA9
:10169C002003002000440140FFFF000080B500AF94
:1016AC00234B244A1A60224BE12252025A60204BEF
:1016BC0000229A601E4B0022DA601D4B00221A6138
:1016CC001B4B0C225A611A4B00229A61184B0022B8
:1016DC00DA61174B00221A62154B00225A62144B26
:1016EC0000229A62124B180005F044F8031E01D038
:1016FC0000F0E2F80E4B0021180007F091F8031EE1
:10170C0001D000F0D9F80A4B0021180007F0C8F8F6
:10171C00031E01D000F0D0F8054B180007F046F876
:10172C00031E01D000F0C8F8C046BD4680BDC046BF
:10173C006C0300200044004080B582B000AF084B21
:10174C009A6B074B01210A439A63054B9B6B012251
:10175C0013407B607B68C046BD4602B080BDC0466E
:10176C000010024090B589B000AF0C243B19180052
:10177C0014231A00002107F005FA4C4B5A6B4B4B03
:10178C0002210A435A63494B5B6B02221340BB6034
:10179C00BB68464B5A6B454B04210A435A63434B77
:1017AC005B6B042213407B607B68404B5A6B3F4B56
:1017BC0001210A435A633D4B5B6B012213403B6092
:1017CC003B6880231B023A480022190002F06DFB93
:1017DC00A023DB0500228021180002F066FB354BAC
:1017EC0000224021180002F060FB3B19802292007D
:1017FC001A603B1900225A603B1901229A603B196E
:10180C002C4A1900100002F0CFF921007B1880221D
:10181C0012021A600C003B1901225A603B1900227B
:10182C009A603B190022DA603B19214A190010001A
:10183C0002F0BAF93B1980221A603B1901225A6056
:10184C003B1900229A603B190022DA603A19A02356
:10185C00DB051100180002F0A7F93B198022920059
:10186C001A603B1900225A603B1900229A603A19FF
:10187C00A023DB051100180002F096F921007B185B
:10188C0040221A607B1801225A607B1800229A6051
:10189C007B180022DA607B18064A1900100002F04F
:1018AC0083F9C046BD4609B090BDC0460010024049
:1018BC00000800500004005080B500AF72B6C0465E
:1018CC0080231B02054A1900100002F00BFBFA23BF
:1018DC005B00180000F0F2FCC046F1E70008005075
:1018EC0080B582B000AF0F4B1A6C0E4B01210A432E
:1018FC001A640C4B1B6C012213407B607B68094BF8
:10190C00DA6B084B802149050A43DA63054BDA6B25
:10191C0080235B0513403B603B68C046BD4602B06C
:10192C0080BDC0460010024090B599B000AF786001
:10193C004C23FB18180014231A00002107F022F97D
:10194C0018243B19180034231A00002107F01AF947
:10195C007B681B68444A934200D080E03B1980228C
:10196C00D2011A603B198022D2051A623B19180069
:10197C0002F0E4FF031E01D0FFF79EFF3B4B1A6CF5
:10198C003A4B802149030A431A64384B1A6C802362
:10199C005B0313407B617B69344B5A6B334B0121E6
:1019AC000A435A63314B5B6B012213403B613B6929
:1019BC002E4B5A6B2D4B02210A435A632B4B5B6BFC
:1019CC0002221340FB60FB684C243B190B221A606B
:1019DC003B1903225A603B1900229A603A19A02342
:1019EC00DB051100180002F0DFF83B1907221A6022
:1019FC003B1903225A603B1900229A603B191C4A7E
:101A0C001900100002F0D0F81A4B1B4A1A60194B3F
:101A1C0005225A60174B00229A60164B0022DA609E
:101A2C00144B80221A61134B802252005A61114BC5
:101A3C008022D2009A610F4B2022DA610D4B0022DA
:101A4C001A620C4B180001F057FE031E01D0FFF771
:101A5C0033FF7B68074A1A65064B7A689A62C04660
:101A6C00BD4619B090BDC046002401400010024094
:101A7C0000040050500100200800024090B589B0CD
:101A8C0000AF78600C243B19180014231A000021B5
:101A9C0007F078F87B681B68104A93421AD1104BF8
:101AAC005A6B0F4B02210A435A630D4B5B6B02229C
:101ABC001340BB60BB683B1910221A603B19032210
:101ACC005A603B1900229A603B19064A1900100013
:101ADC0002F06AF8C046BD4609B090BD0402014050
:101AEC00001002400004005080B584B000AF786054
:101AFC007B681B680A4A93420DD10A4BDA6B094B7F
:101B0C00802189050A43DA63064BDA6B80239B0537
:101B1C001340FB60FB68C046BD4604B080BDC046A8
:101B2C00007400400010024090B599B000AF78608E
:101B3C004C23FB18180014231A00002107F022F87C
:101B4C0018243B19180034231A00002107F01AF846
:101B5C007B681B682C4A934240D13B19802292032C
:101B6C001A603B1900229A623B19180002F0E6FE3B
:101B7C00031E01D0FFF7A0FE244B1A6C234B8021CF
:101B8C0009010A431A64214B1A6C80231B01134070
:101B9C007B617B691D4B5A6B1C4B01210A435A63B9
:101BAC001A4B5B6B012213403B613B694C217B1848
:101BBC0040221A607B1812225A607B1801229A600C
:101BCC007B180022DA607B1802221A617A18A02393
:101BDC00DB051100180001F0E7FF11E07B681A68C3
:101BEC008023DB059A420BD1084BDA6B074B0121A2
:101BFC000A43DA63054BDB6B01221340FB60FB6885
:101C0C00C046BD4619B090BD002C014000100240EA
:101C1C0090B58BB000AF786014243B1918001423D6
:101C2C001A00002106F0AEFF7B681B681A4A93422B
:101C3C002DD11A4BDA6B194B02210A43DA63174B7D
:101C4C00DB6B022213403B613B69144B5A6B134B09
:101C5C0002210A435A63114B5B6B02221340FB6057
:101C6C00FB6821007B1820221A607B1802225A6024
:101C7C007B1800229A607B180022DA607B18012204
:101C8C001A617B18064A1900100001F08DFFC0463E
:101C9C00BD460BB090BDC046000400400010024091
:101CAC000004005080B584B000AF78607B681B687E
:101CBC00174A93420CD1174BDA6B164B10210A437F
:101CCC00DA63144BDB6B10221340FB60FB681AE0E9
:101CDC007B681B68104A934215D10E4B1A6C0D4B46
:101CEC00802189020A431A640A4B1A6C80239B02D6
:101CFC001340BB60BB6800220021152001F08CFA58
:101D0C00152001F09EFAC046BD4604B080BDC04609
:101D1C0000100040001002400044014090B58BB010
:101D2C0000AF786014243B19180014231A0000210A
:101D3C0006F028FF7B681B683E4A934224D13E4B39
:101D4C005A6B3D4B01210A435A633B4B5B6B01229F
:101D5C0013403B613B693B19802252001A60210001
:101D6C007B1802225A607B1800229A607B1803228F
:101D7C00DA607B1802221A617A18A023DB051100A5
:101D8C00180001F011FF50E07B681A688023DB0516
:101D9C009A4222D1284B5A6B274B04210A435A638F
:101DAC00254B5B6B04221340FB60FB6814217B18F2
:101DBC0040221A607B1802225A607B1800229A601B
:101DCC007B180022DA607B1802221A617B181B4AEE
:101DDC001900100001F0E8FE27E07B681B68184A28
:101DEC00934222D1144B5A6B134B02210A435A6370
:101DFC00114B5B6B02221340BB60BB6814217B1838
:101E0C00802252001A607B1802225A607B18002232
:101E1C009A607B180022DA607B1802221A617B1808
:101E2C00084A1900100001F0BFFEC046BD460BB0B9
:101E3C0090BDC046002C014000100240000800502C
:101E4C00004401400004005090B597B000AF78609A
:101E5C004423FB18180014231A00002106F092FEEC
:101E6C0010243B19180034231A00002106F08AFEB6
:101E7C007B681B68224A93423ED13B1902221A60AE
:101E8C003B1908229A603B19180002F057FD031EFB
:101E9C0001D0FFF711FD1B4BDA6B1A4B8021890225
:101EAC000A43DA63174BDA6B80239B021340FB6007
:101EBC00FB68144B5A6B134B01210A435A63114BA9
:101ECC005B6B01221340BB60BB6844217B180E4A3C
:101EDC001A607B1802225A607B1800229A607B18C9
:101EEC000022DA607B1801221A617A18A023DB0524
:101EFC001100180001F058FEC046BD4617B090BD49
:101F0C0000440040001002400480000080B500AF87
:101F1C00C046FDE780B500AFC046FDE780B500AF19
:101F2C00C046BD4680BD80B500AFC046BD4680BD35
:101F3C0080B500AF00F0A6F9C046BD4680BD0000DC
:101F4C0080B582B000AF304B180001F02BFD2F4B49
:101F5C0000221A702FE02D4B1B781A002C4B5200CC
:101F6C00D35A9BB27B60294B1B781A00294B520029
:101F7C00D35A9BB23B607A681300DB009A1A3B6819
:101F8C00D3180433DB087B607A681300DB009A1AE1
:101F9C003B68D3180433DB087B601C4B1B781A009E
:101FAC007B6899B21A4B5200D152184B1B780133F3
:101FBC00DAB2164B1A70154B1A78174B1B78DBB22A
:101FCC009A42C8D3124B1B889AB2144B1A80104BEE
:101FDC005B889AB2124B1A800D4B9B889AB2114BAC
:101FEC001A800B4BDB889AB20F4B1A80084B1B895B
:101FFC009AB20E4B1A80064B5B899AB20C4B1A8024
:10200C00C046BD4602B080BD500100205E040020D9
:10201C00D4000020C800002000000020E0000020B8
:10202C00E2000020E4000020E6000020E800002090
:10203C00EA00002080B500AF034B180003F084F8D1
:10204C00C046BD4680BDC0468802002080B500AFAA
:10205C00134B180003F078F8124B180001F088F9B4
:10206C00114B01221A70114B1A88FA239B009A42C9
:10207C0006D20E4B1B8801339AB20C4B1A800BE024
:10208C000A4B1A88FA239B009A4205D3074B00226D
:10209C001A80074B01221A70C046BD4680BDC0464F
:1020AC00D4020020DC010020C50000205C040020CC
:1020BC00C600002080B500AF034B180003F044F8B5
:1020CC00C046BD4680BDC0462003002080B500AF91
:1020DC00034B180004F0A6FCC046BD4680BDC046AC
:1020EC006C03002080B586B000AF7860144A154BA5
:1020FC00D31A7B617B693B61134B1B68002B02D1AC
:10210C00114B124A1A60104B1A687B68D3183A6943
:10211C009A4207D206F03EFD03000C221A600123FE
:10212C005B4209E0084B1B68FB60074B1A687B6835
:10213C00D218054B1A60FB681800BD4606B080BD6E
:10214C00009000200004000060040020B005002076
:10215C0080B500AFC046BD4680BD00000D48854629
:10216C00FFF7F6FF0C480D490D4A002302E0D45846
:10217C00C4500433C4188C42F9D30A4A0A4C0023C5
:10218C0001E013600432A242FBD306F009FDFEF716
:10219C0001FCFEE70090002000000020A4000020BD
:1021AC00C8970008A4000020B0050020FEE700003E
:1021BC0080B582B000AFFB1D00221A700B4B1A6861
:1021CC000A4B802149000A431A60032000F010F8E2
:1021DC00031E03D0FB1D01221A7001E0FFF780FBE8
:1021EC00FB1D1B781800BD4602B080BD00200240CC
:1021FC0090B585B000AF78600F23FB1800221A70E1
:10220C001D4B1B78002B2BD01C4B1C681A4B1B78BE
:10221C001900FA239800FDF781FF03001900200034
:10222C00FDF77CFF0300180001F01BF8031E12D110
:10223C007B68032B0AD8796801235B4200221800C3
:10224C0000F0EAFF0E4B7A681A600DE00F23FB18C2
:10225C0001221A7008E00F23FB1801221A7003E008
:10226C000F23FB1801221A700F23FB181B78180080
:10227C00BD4605B090BDC04650000020480000206F
:10228C004C00002080B500AF054B1B781A00054BA5
:10229C001B68D218034B1A60C046BD4680BDC046B1
:1022AC00500000206404002080B500AF024B1B6876
:1022BC001800BD4680BDC0466404002080B584B0C3
:1022CC0000AF7860FFF7F0FF0300BB607B68FB603A
:1022DC00FB68013305D00A4B1B781A00FB689B186E
:1022EC00FB60C046FFF7E0FF0200BB68D31AFA6838
:1022FC009A42F7D8C046C046BD4604B080BDC04621
:10230C005000002080B582B000AF786039607B68E7
:10231C001B68054A1A403B681A437B681A60C04622
:10232C00BD4602B080BDC046FFFF3FFE80B582B007
:10233C0000AF78607B681A68E0235B0413401800D8
:10234C00BD4602B080BD80B584B000AFF860B96006
:10235C007A60FB685B69BA6804210A4007219140E6
:10236C000A00D2431A40BB6804210B40796899409B
:10237C000B001A43FB685A61C046BD4604B080BDD1
:10238C0080B582B000AF786039607B685B693A6871
:10239C0004210A40072191400A001A403B6804219D
:1023AC000B40DA4013001800BD4602B080BD80B56A
:1023BC0084B000AFF860B9607A60FB689B6ABA6859
:1023CC001F210A400F2191400A00D2431A407B681A
:1023DC009B0E0F211940BB681F20034099400B0036
:1023EC001A43FB689A62C046BD4604B080BD80B5F6
:1023FC0082B000AF786039607B689A6A3B685B0397
:10240C005B0B1A437B689A62C046BD4602B080BD26
:10241C0080B582B000AF786039607B689B6A3A689F
:10242C005203520BD2431A407B689A62C046BD4697
:10243C0002B080BD80B584B000AFF860B9607A603E
:10244C00FB685B69BA681202D2431A40BB681B0274
:10245C0079680B4004490B401A43FB685A61C0462B
:10246C00BD4604B080BDC04600FFFF0780B582B0FA
:10247C0000AF78607B689B68054A13408022520548
:10248C001A437B689A60C046BD4602B080BDC04608
:10249C00E8FFFF6F80B582B000AF78607B689A6808
:1024AC0080235B051A4080235B059A4201D10123EE
:1024BC0000E000231800BD4602B080BD80B582B09C
:1024CC0000AF78607B689B6801221340012B01D11F
:1024DC00012300E000231800BD4602B080BD80B58A
:1024EC0082B000AF78607B689B6804221340042B99
:1024FC0001D1012300E000231800BD4602B080BDCD
:10250C0080B588B000AF78601F23FB1800221A70CA
:10251C000023BB6100237B610023FB607B68002BE5
:10252C0001D101237FE17B689B6D002B0AD17B6875
:10253C001800FFF7F9F97B680022DA657B685422F2
:10254C00002199547B681B681800FFF7A3FF031E3A
:10255C0015D17B681B681800FFF788FFB44B1B680C
:10256C00B4491800FDF7DAFD030001335B00FB6092
:10257C0002E0FB68013BFB60FB68002BF9D17B6838
:10258C001B681800FFF786FF031E0FD17B689B6D3D
:10259C0010221A437B689A657B68DB6D01221A4313
:1025AC007B68DA651F23FB1801221A707B681B6895
:1025BC001800FFF794FF03003B617B689B6D1022B2
:1025CC00134000D022E13B69002B00D01EE17B6858
:1025DC009B6D994A134002221A437B689A657B686B
:1025EC001B681800FFF76AFF031E00D0ADE07B6884
:1025FC009A687B681B7E9B031A437B685B7EDB03BC
:10260C001A437B689B7E5B031A437B681B6B002B16
:10261C0002D080235B0100E000231A437B68DB6857
:10262C001A437B681B69002B04DA7B681B695B000F
:10263C005B0801E080239B031A437B682C215B5CC5
:10264C005B001343BA691343BB617B6820229B5C1C
:10265C00012B15D17B689B7E002B05D1BB69802299
:10266C0052021343BB610BE07B689B6D20221A4323
:10267C007B689A657B68DB6D01221A437B68DA659F
:10268C007B685B6A002B0AD07B685A6AE0235B008C
:10269C001A407B689B6A1343BA691343BB617B681E
:1026AC001B68DB68654A134019007B681B68BA69B4
:1026BC000A43DA607B685B689B0F9A077B68DB6C6C
:1026CC0013437A6913437B617B683C229B5C012B2F
:1026DC0011D17B685B689B0F9A077B681B6C1A4354
:1026EC007B685B6C1A437B689B6C1A437B69134356
:1026FC00012213437B617B681B681B69504A1340A2
:10270C0019007B681B687A690A431A617B685A68EE
:10271C00C0231B069A4218D07B685A688023DB05BD
:10272C009A4212D07B685A6880231B069A420CD0BE
:10273C00444B1B68444A134019007B685A68F023C9
:10274C009B031A403F4B0A431A607B6818687B68EE
:10275C005B6B1A000021FFF7F6FD7B6818687B683D
:10276C009B6B3A491A00FFF7EEFD7B681B69002B47
:10277C0009D17B681B689A6A7B681B6810214942E7
:10278C000A439A6218E07B681A6980239B039A4279
:10279C0012D17B681B689B6A7B68DB69013B9B00E1
:1027AC001C221340102252429A4011007B681A6E70
:1027BC007B681B680A439A627B681B6800211800BF
:1027CC00FFF7DEFD02007B685B6B9A420BD17B68E6
:1027DC000022DA657B689B6D0322934301221A4326
:1027EC007B689A651CE07B689B6D122293431022D8
:1027FC001A437B689A657B68DB6D01221A437B6800
:10280C00DA651F23FB1801221A7009E07B689B6DA7
:10281C0010221A437B689A651F23FB1801221A7039
:10282C001F23FB181B781800BD4608B080BDC0469E
:10283C0048000020400D0300FDFEFFFF0102DEFFFB
:10284C0002FCFF1F08270140FFFFC3FF04FFFF0727
:10285C0080B586B000AF786039601723FB18002272
:10286C001A700023FB607B6854229B5C012B01D106
:10287C000223C0E17B685422012199547B681B68B8
:10288C001800FFF72CFE031E00D0A3E13B685B6829
:10289C00022B00D143E17B681A6980231B069A4204
:1028AC0004D07B681B69C14A934208D17B681A68C3
:1028BC003B681B6819001000FFF799FDC9E07B68A5
:1028CC001A6E3B685B681F210B400F2199400B006F
:1028DC00DB43134019003B681B685B035B0B05D1A2
:1028EC003B681B689B0E1F22134098E03B681B68DB
:1028FC000122134000D091E03B681B680222134078
:10290C0000D089E03B681B680422134000D081E0B2
:10291C003B681B680822134000D079E03B681B68B9
:10292C001022134000D071E03B681B68202213403A
:10293C0000D069E03B681B684022134000D061E086
:10294C003B681B688022134000D059E03B681A6832
:10295C0080235B00134051D13B681A6880239B0095
:10296C00134049D13B681A688023DB00134041D1E6
:10297C003B681A6880231B01134039D13B681A68E5
:10298C0080235B01134031D13B681A6880239B0183
:10299C00134029D13B681A688023DB01134021D1F5
:1029AC003B681A6880231B02134019D13B681A68D4
:1029BC0080235B02134011D13B681A6880239B0271
:1029CC00134009D13B681A688023DB02134001D005
:1029DC00122324E0002322E0112320E010231EE028
:1029EC000F231CE00E231AE00D2318E00C2316E035
:1029FC000B2314E00A2312E0092310E008230EE055
:102A0C0007230CE006230AE0052308E0042306E074
:102A1C00032304E0022302E0012300E000233A68D0
:102A2C0052681F20024093400A001A437B681A66C2
:102A3C003B685B689B085A1C7B68DB699A4208D828
:102A4C007B6818683B6859683B681B681A00FFF77D
:102A5C00AEFC7B6818683B6819683B689B681A0079
:102A6C00FFF7E8FC3B681B68002B00DBBCE0504B1D
:102A7C001800FFF75BFC03003B613B681B684D4A89
:102A8C00934222D13A6980231B0413401DD13B6928
:102A9C00802212041343464A19001000FFF732FC3F
:102AAC00454B1B6845491800FDF738FB03005A1CC1
:102ABC0013005B009B189B00FB6002E0FB68013B72
:102ACC00FB60FB68002BF9D18EE03B681B683C4A2D
:102ADC0093420ED13A6980235B04134009D13B69C0
:102AEC00802252041343324A19001000FFF70AFCEB
:102AFC007AE03B681B68334A934200D074E03A6931
:102B0C008023DB03134000D06EE03B698022D203AC
:102B1C001343274A19001000FFF7F4FB64E07B68AD
:102B2C001A6980231B069A4204D07B681B691F4AD2
:102B3C00934207D17B681A683B681B681900100028
:102B4C00FFF766FC3B681B68002B4DDA184B18002E
:102B5C00FFF7ECFB03003B613B681B68154A934293
:102B6C0008D13B69184A1340114A19001000FFF7AD
:102B7C00C9FB39E03B681B68114A934208D13B6999
:102B8C00124A13400A4A19001000FFF7BBFB2BE056
:102B9C003B681B680B4A934226D13B690C4A134095
:102BAC00034A19001000FFF7ADFB1DE00400008084
:102BBC0008270140001000B048000020400D030021
:102BCC00004000B8002000B4FFFF7FFFFFFFFFFEB6
:102BDC00FFFFBFFF7B689B6D20221A437B689A65C1
:102BEC001723FB1801221A707B6854220021995478
:102BFC001723FB181B781800BD4606B080BDC046D5
:102C0C0080B582B000AF7860054A8023D258044961
:102C1C007B68134380228B50C046BD4602B080BDFA
:102C2C000018024080B582B000AF7860064A80235D
:102C3C00D3587A68D2430449134080228B50C04643
:102C4C00BD4602B080BDC0460018024080B582B0BF
:102C5C0000AF7860054A8423D25804497B6813433B
:102C6C0084228B50C046BD4602B080BD0018024085
:102C7C0080B582B000AF7860064A8423D3587A6856
:102C8C00D2430449134084228B50C046BD4602B047
:102C9C0080BDC0460018024080B582B000AF78609D
:102CAC00044B1968034B7A680A431A60C046BD4648
:102CBC0002B080BD0018024080B582B000AF7860D1
:102CCC00054B1A687B68D943034B0A401A60C0460F
:102CDC00BD4602B080BDC0460018024080B582B02F
:102CEC0000AF7860044B5968034B7A680A435A600A
:102CFC00C046BD4602B080BD0018024080B582B00F
:102D0C0000AF7860054B5A687B68D943034B0A4087
:102D1C005A60C046BD4602B080BDC0460018024095
:102D2C0080B582B000AF7860034B7A681A61C046F8
:102D3C00BD4602B080BDC0460018024080B582B0CE
:102D4C0000AF7860034B7A68DA60C046BD4602B0CB
:102D5C0080BDC0460018024080B588B000AF7860D6
:102D6C000023FB601F217B1800221A707B68002B4C
:102D7C0003D17B1801221A703DE17B681B681B682C
:102D8C00DB0FDA0780231B069A4204D11F23FB18A2
:102D9C0001221A702FE17B6829229B5CDBB2002B8D
:102DAC000AD17B682822002199547B680022DA62C0
:102DBC007B681800FEF762FE7B681B681B6830227C
:102DCC001340BB617B685A697B681B691A437B683B
:102DDC001B6A1A437B689B691A437B68DB691A433D
:102DEC007B68DB6813437B617B681B681B68854AC7
:102DFC00134019007B681B687A690A431A607B6868
:102E0C005A6880231B019A420DD17F4B1A687E4B66
:102E1C007E490A401A607C4B5A687B4B8021090121
:102E2C000A435A601FE07B685A68C0235B019A42D0
:102E3C000DD1754B1A68744B802109010A431A6035
:102E4C00714B5A68704B71490A405A600BE06E4BDB
:102E5C001A686D4B6D490A401A606B4B5A686A4B85
:102E6C006A490A405A607B689B68A022D20193424F
:102E7C0017D0A022D201934230D8012B1FD0802230
:102E8C00D20193422AD1604B1A685F4B8021C90151
:102E9C000A431A605C4B5A685B4B5D490A405A60A6
:102EAC0029E0594B1A68584B59490A401A60564B3D
:102EBC005A68554B8021C9010A435A601BE0524B9A
:102ECC001A68514B8021C9010A431A604E4B5A684B
:102EDC004D4B8021C9010A435A600CE04A4B1A68D9
:102EEC00494B4B490A401A60474B5A68464B484974
:102EFC000A405A60C0467B681B681B68302213402E
:102F0C0016D0BB69002B13D1424B1B6842491800E9
:102F1C00FDF704F903005A1C13009B009B189B003F
:102F2C00FB6002E0FB68013BFB60FB68002BF9D106
:102F3C007B681B68344A934202D180239B0201E0D8
:102F4C008023DB023B617B685B6A0322134040D029
:102F5C007B685B6A1022134004D03B691800FFF7B2
:102F6C009BFE03E03B691800FFF7A6FE7B685B6ADB
:102F7C002022134004D03B691800FFF7AFFE03E09A
:102F8C003B691800FFF7BAFE3B691800FFF7D6FE45
:102F9C003B691800FFF7C4FE7B685B6A0222134092
:102FAC0004D03B691800FFF751FE03E03B691800A1
:102FBC00FFF75EFE7B685B6A0122134004D03B691D
:102FCC001800FFF71DFE0CE03B691800FFF72AFE06
:102FDC0007E03B691800FFF74BFE3B691800FFF751
:102FEC0021FE7B6829229B5CDBB2002B03D17B6822
:102FFC002922012199541F23FB181B781800BD4668
:10300C0008B080BD0F7400FE00020140FFF7FFFF07
:10301C00FFBFFFFF48000020400D030080B584B0C7
:10302C0000AF78600023BB600F217B1800221A7060
:10303C007B68002B03D17B1801221A7035E07B686A
:10304C001B681B68DB0FDA0780231B069A4204D12E
:10305C000F23FB1801221A7027E07B6829229B5C46
:10306C00DBB2012B1DD17B681B681A687B681B685F
:10307C0001210A431A607B682922022199540E4BC4
:10308C001B680E491800FDF749F803000133DB00FB
:10309C00BB6002E0BB68013BBB60BB68002BF9D195
:1030AC0003E00F23FB1801221A700F23FB181B7867
:1030BC001800BD4604B080BD48000020400D030040
:1030CC0080B582B000AF0200FB1D1A70FB1D1B788F
:1030DC007F2B09D8FB1D1B781A001F231A40044BA9
:1030EC00012191400A001A60C046BD4602B080BD65
:1030FC0000E100E090B583B000AF02003960FB1D29
:10310C001A70FB1D1B787F2B28D82F4AFB1D1B78B0
:10311C005BB29B08C0339B009B58FA1D12781100C0
:10312C0003220A40D200FF2191400A00D2431A40E8
:10313C0011003B689B01FF221A40FB1D1B781800F5
:10314C0003230340DB009A401F48FB1D1B785BB236
:10315C009B080A43C0339B001A5031E01B4AFB1DED
:10316C001B7819000F230B40083B9B0806339B0070
:10317C00D31804331B68FA1D1278110003220A407D
:10318C00D200FF2191400A00D2431A4011003B6843
:10319C009B01FF221A40FB1D1B78180003230340E0
:1031AC00DB009A400948FB1D1B781C000F232340B1
:1031BC00083B9B080A4306339B00C31804331A6070
:1031CC00C046BD4603B090BD00E100E000ED00E05C
:1031DC0080B582B000AF78607B685A1E80235B0498
:1031EC009A4201D3012310E00A4B7A68013A5A60E3
:1031FC0001235B4203211800FFF77CFF054B0022E3
:10320C009A60044B07221A6000231800BD4602B0D6
:10321C0080BDC04610E000E080B584B000AFB9605E
:10322C007A600F217B18021C1A70BA687B181B7805
:10323C005BB211001800FFF75DFFC046BD4604B03D
:10324C0080BD80B582B000AF0200FB1D1A70FB1D63
:10325C001B785BB21800FFF733FFC046BD4602B0C7
:10326C0080BD80B582B000AF78607B681800FFF736
:10327C00AFFF03001800BD4602B080BD80B582B020
:10328C0000AF78607B68002B01D1012315E07B68CF
:10329C001B79DBB2002B06D17B6800225A717B684C
:1032AC001800FEF721FC7B6802221A717B68002251
:1032BC001A617B6801221A7100231800BD4602B006
:1032CC0080BD80B582B000AF786039607B68002B20
:1032DC0001D1012347E07B685B79012B01D10223EB
:1032EC0041E07B6801225A717B6802221A717B686B
:1032FC001B6819683B681022134001229A407B68B6
:10330C001B680A431A603B68002B0FD17B681B6853
:10331C001B683E221340022B1ED17B681B685A6827
:10332C007B681B6801210A435A6015E07B681B68A7
:10333C001A68F8239B031A403B6810210B400221AA
:10334C0099400B009A4207D17B681B685A687B68CE
:10335C001B6802210A435A607B6801221A717B6840
:10336C0000225A7100231800BD4602B080BD000037
:10337C0080B584B000AF78607B681B681B68FB600D
:10338C007B681B685B6BBB60FA6880239B011340F6
:10339C001ED0BA6880239B01134019D07B6804228D
:1033AC001A717B681B6901221A437B681A617B685E
:1033BC001B68802292015A637B681B681A687B68C1
:1033CC001B6817490A401A607B68180000F053F814
:1033DC00FA6880239B0513401ED0BA6880239B0596
:1033EC00134019D07B6804221A717B681B69022276
:1033FC001A437B681A617B681B68802292055A63AA
:10340C007B681B681A687B681B6806490A401A604F
:10341C007B68180000F068F9C046BD4604B080BD5A
:10342C00FFEFFFFFFFFFFFEF80B586B000AFF86046
:10343C00B9607A603B6000237B61FB68002B01D193
:10344C00012314E0FB681B687B61BB68002B05D172
:10345C007A697B68D31808337B6104E07A697B68EE
:10346C00D31814337B617B693A681A600023180007
:10347C00BD4606B080BD80B582B000AF7860C04656
:10348C00BD4602B080BD000080B588B000AFF860CA
:10349C00B9607A601F23FB1800221A70FB68002B9E
:1034AC0002D0BB68002B01D1012315E1FB685B79CD
:1034BC00012B01D102230FE1FB6801225A71FB6839
:1034CC0002221A71BB681B68042B00D07AE0FEF74D
:1034DC00EBFE0300BB617B68002B3DD118E0FEF7CF
:1034EC00E3FE0200BB69D31A012B11D9FB681B68E0
:1034FC005A6B80231B0213400AD0FB681B690822FD
:10350C001A43FB681A61FB6803221A710323E3E078
:10351C00FB681B685A6B80231B021340DFD1FB68CE
:10352C001B68BA6892691A6420E0FEF7BDFE0200BF
:10353C00BB69D31A012B0FD9FB681B685B6B002B83
:10354C000ADAFB681B6908221A43FB681A61FB68DC
:10355C0003221A710323BFE0FB681B685B6B002B13
:10356C00E3DBFB681B68BA6892695A64FB681B68EA
:10357C009B6C7A6810210A40594991400A00D24349
:10358C001A401100BB68DA697B68102003409A402E
:10359C00FB681B680A439A64FB681B68DB6C7A68DF
:1035AC0010210A40FF2191400A00D2431A40110019
:1035BC00BB681A6A7B68102003409A40FB681B6842
:1035CC000A43DA64BB681B69012B1DD1FB681B68BD
:1035DC009B6B7B617B68102213401F229A40130067
:1035EC00DA437B6913407B61BB685B693B617B6839
:1035FC00102213403A699A4013007A6913437B6195
:10360C00FB681B687A699A63FB681B68DB6B7B61E0
:10361C007B681022134007229A401300DA437B691F
:10362C0013407B61BB681A68BB689B681A43BB6814
:10363C00DB6813433B617B68102213403A699A4064
:10364C0013007A6913437B61FB681B687A69DA6340
:10365C00FB681B681A687B6810210B408021C9012C
:10366C0099400B00D943FB681B680A401A60FB6841
:10367C001B681B687B617B6810221340194A9A40B7
:10368C001300DA437B6913407B61BB685B683B6169
:10369C007B68102213403A699A4013007A691343ED
:1036AC007B61FB681B687A691A60FB681B681A6887
:1036BC007B6810210B40C02199400B00D943FB685B
:1036CC001B680A401A60FB6801221A71FB68002211
:1036DC005A711F23FB181B781800BD4608B080BD1B
:1036EC00FF030000FE0F000080B582B000AF7860D1
:1036FC00C046BD4602B080BD80B582B000AF7860D8
:10370C007B68002B01D1012377E07B681B683D4A65
:10371C009446634414211800FCF700FD03009A0042
:10372C007B681A647B682522022199547B681B688C
:10373C001A687B681B6834490A401A607B681B68EE
:10374C0019687B689A687B68DB681A437B681B691D
:10375C001A437B685B691A437B689B691A437B68D5
:10376C00DB691A437B681B6A1A437B681B680A4334
:10377C001A607B68180000F0C7F97B689A68802390
:10378C00DB019A4202D17B6800225A607B685A683E
:10379C007B685B6C3F210A401A607B689B6C7A6883
:1037AC00D26C5A607B685B68002B11D07B685B68BD
:1037BC00042B0DD87B68180000F0D2F97B681B6DC8
:1037CC0000221A607B685B6D7A68926D5A6008E023
:1037DC007B6800221A657B6800225A657B68002290
:1037EC009A657B680022DA637B6825220121995453
:1037FC007B6824220021995400231800BD4602B096
:10380C0080BDC046F8FFFDBF0F80FFFF80B582B0C2
:10381C0000AF78607B68002B01D1012350E07B68FE
:10382C0025229B5CDBB2022B08D07B680422DA6376
:10383C007B68242200219954012341E07B681B689A
:10384C001A687B681B680E218A431A607B685B6C64
:10385C001A687B685B6C1C490A401A607B681B68A1
:10386C001A687B681B6801218A431A60174B5968D8
:10387C007B681B6C1C22134001229A40134B0A4399
:10388C005A607B689B6C7A68D26C5A607B681B6D43
:10389C00002B0CD07B681B6D1A687B681B6D0A496A
:1038AC000A401A607B685B6D7A68926D5A607B681F
:1038BC002522012199547B6824220021995400234C
:1038CC001800BD4602B080BDFFFEFFFF00000240A5
:1038DC0080B584B000AF78600F217B1800221A707D
:1038EC007B6825229B5CDBB2022B06D07B68042212
:1038FC00DA637B1801221A7049E07B681B681A682E
:10390C007B681B680E218A431A607B681B681A68E7
:10391C007B681B6801218A431A607B685B6C1A68A0
:10392C007B685B6C1D490A401A601D4B59687B68AB
:10393C001B6C1C22134001229A40194B0A435A60FB
:10394C007B689B6C7A68D26C5A607B681B6D002B11
:10395C000CD07B681B6D1A687B681B6D0F490A4085
:10396C001A607B685B6D7A68926D5A607B68252261
:10397C00012199547B682422002199547B689B6B0C
:10398C00002B04D07B689B6B7A68100098470F2340
:10399C00FB181B781800BD4604B080BDFFFEFFFF6E
:1039AC000000024080B584B000AF7860554B1B68B6
:1039BC00FB607B681B681B68BB607B681B6C1C22F4
:1039CC00134004229A401300FA68134027D0BB68B6
:1039DC000422134023D07B681B681B6820221340F1
:1039EC0007D17B681B681A687B681B6804218A43B3
:1039FC001A60444B59687B681B6C1C2213400422D0
:103A0C009A40404B0A435A607B681B6B002B00D1D9
:103A1C0073E07B681B6B7A68100098476DE07B68DD
:103A2C001B6C1C22134002229A401300FA681340AC
:103A3C002ED0BB68022213402AD07B681B681B68FF
:103A4C00202213400BD17B681B681A687B681B68AB
:103A5C000A218A431A607B68252201219954294B3B
:103A6C0059687B681B6C1C22134002229A40254B20
:103A7C000A435A607B682422002199547B68DB6AD4
:103A8C00002B3AD07B68DB6A7A681000984734E0E8
:103A9C007B681B6C1C22134008229A401300FA68A6
:103AAC0013402BD0BB680822134027D07B681B68BF
:103ABC001A687B681B680E218A431A60114B59687F
:103ACC007B681B6C1C22134001229A400D4B0A434D
:103ADC005A607B680122DA637B68252201219954A4
:103AEC007B682422002199547B685B6B002B05D0EA
:103AFC007B685B6B7A6810009847C046C046BD4631
:103B0C0004B080BD0000024080B584B000AF786086
:103B1C007B681B6C9B08104A944663449B001A00FC
:103B2C007B685A647B681B681A00FF231340083BB0
:103B3C0014211800FCF7F2FA0300FB607B68074ABB
:103B4C009A64FB681F22134001229A407B68DA6456
:103B5C00C046BD4604B080BD008200108008024003
:103B6C0080B584B000AF78607B685B683F221340FF
:103B7C00FB60FB680A4A944663449B001A007B680E
:103B8C001A657B68074A5A65FB68013B03221340A0
:103B9C0001229A407B689A65C046BD4604B080BD40
:103BAC003F8200104009024080B586B000AF7860BB
:103BBC00396000237B6147E13B681B6801217A690E
:103BCC0091400A001340FB60FB68002B00D138E1E8
:103BDC003B685B6803221340012B05D03B685B6894
:103BEC0003221340022B30D17B689B683B617B69BD
:103BFC005B0003229A401300DA433B6913403B619C
:103C0C003B68DA687B695B009A4013003A6913439E
:103C1C003B617B683A699A607B685B683B61012217
:103C2C007B699A401300DA433B6913403B613B6864
:103C3C005B681B0901221A407B699A4013003A69A0
:103C4C0013433B617B683A695A603B685B680322AB
:103C5C001340032B17D07B68DB683B617B695B00EF
:103C6C0003229A401300DA433B6913403B613B68E3
:103C7C009A687B695B009A4013003A6913433B6175
:103C8C007B683A69DA603B685B6803221340022B5D
:103C9C0023D17B69DA087B6808329200D3583B61E8
:103CAC007B69072213409B000F229A401300DA43D2
:103CBC003B6913403B613B681A697B6907210B40E8
:103CCC009B009A4013003A6913433B617B69DA0805
:103CDC007B68083292003969D1507B681B683B6164
:103CEC007B695B0003229A401300DA433B69134063
:103CFC003B613B685B6803221A407B695B009A401E
:103D0C0013003A6913433B617B683A691A603B685C
:103D1C005A68C0239B02134000D192E0504A7B6941
:103D2C009B0818339B009B583B617B690322134013
:103D3C00DB000F229A401300DA433B6913403B61CE
:103D4C007A68A023DB059A4213D07B68454A9342DC
:103D5C000DD07B68444A934207D07B68434A934218
:103D6C0001D1032306E0052304E0022302E0012332
:103D7C0000E000237A6903210A40D20093403A699B
:103D8C0013433B6136497B699B0818339B003A69A6
:103D9C005A50334B1B683B61FB68DA433B69134059
:103DAC003B613B685A6880235B03134003D03A693C
:103DBC00FB6813433B612A4B3A691A60284B5B68DA
:103DCC003B61FB68DA433B6913403B613B685A68D3
:103DDC0080239B03134003D03A69FB6813433B6178
:103DEC001F4B3A695A601E4A8423D3583B61FB68C7
:103DFC00DA433B6913403B613B685A6880239B0262
:103E0C00134003D03A69FB6813433B611449842285
:103E1C003B698B50124A8023D3583B61FB68DA43D1
:103E2C003B6913403B613B685A6880235B0213403B
:103E3C0003D03A69FB6813433B61094980223B6913
:103E4C008B507B6901337B613B681A687B69DA4074
:103E5C00131E00D0B0E6C046C046BD4606B080BDBD
:103E6C00001802400004005000080050000C0050E4
:103E7C0080B584B000AF78600A00BB1C1A807B68E8
:103E8C001B69BA1C1288134004D00F23FB180122A3
:103E9C001A7003E00F23FB1800221A700F23FB1873
:103EAC001B781800BD4604B080BD80B582B000AF51
:103EBC00786008001100BB1C021C1A807B1C0A1CB9
:103ECC001A707B1C1B78002B04D0BB1C1A887B68D7
:103EDC009A6103E0BB1C1A887B689A62C046BD4697
:103EEC0002B080BD80B584B000AF78600A00BB1C06
:103EFC001A807B685B69FB60BB1C1B88FA681340EB
:103F0C001A04FB68DB43B91C09880B401A437B6815
:103F1C009A61C046BD4604B080BD000080B584B037
:103F2C0000AF7860194B1B68194A13401900174BE6
:103F3C007A680A431A607A6880239B009A421FD1E0
:103F4C00144B1A6813005B009B185B001249180095
:103F5C00FCF7E4F803000133FB6008E0FB68002B7E
:103F6C0003D0FB68013BFB6001E0032309E0074B36
:103F7C005A698023DB001A408023DB009A42EDD083
:103F8C0000231800BD4604B080BDC0460070004040
:103F9C00FFF9FFFF4800002040420F0080B500AF42
:103FAC00034B9A68E023DB0113401800BD4680BD2B
:103FBC000010024080B588B000AF78607B68002BA1
:103FCC0001D10123FEE27B681B680122134000D162
:103FDC007CE0C34B9B6838221340BB61C04BDB6851
:103FEC00032213407B61BB69102B02D17B69032B2D
:103FFC0002D0BB69082B0BD1B94B1A6880239B02EA
:10400C00134062D07B685B68002B5ED10123D9E240
:10401C007B685A6880235B029A4207D1B04B1A68BE
:10402C00AF4B802149020A431A6020E07B685A6832
:10403C00A023DB029A420ED1A94B1A68A84B80210F
:10404C00C9020A431A60A64B1A68A54B8021490283
:10405C000A431A600BE0A24B1A68A14BA1490A4013
:10406C001A609F4B1A689E4B9F490A401A607B68E6
:10407C005B68002B14D0FEF717F903003B6108E0D6
:10408C00FEF712F902003B69D31A642B01D9032302
:10409C0098E2934B1A6880239B021340F0D015E0F2
:1040AC00FEF702F903003B6108E0FEF7FDF80200A1
:1040BC003B69D31A642B01D9032383E2884B1A681A
:1040CC0080239B021340F0D100E0C0467B681B6844
:1040DC000222134000D199E0814B9B683822134097
:1040EC00BB617F4BDB68032213407B61BB69102BE8
:1040FC0002D17B69022B02D0BB69002B35D1784BE6
:10410C001A688023DB00134005D07B68DB68002B2A
:10411C0001D1012356E2724B5B68744A13401900BB
:10412C007B685B691A026E4B0A435A60BB69002BB1
:10413C0012D16B4B1B686E4A134019007B681A69CD
:10414C00674B0A431A60664B1B68DB0A0722134055
:10415C00684ADA40684B1A60684B1B681800FEF717
:10416C0047F8031E51D001232CE27B68DB68002B3F
:10417C0030D05B4B1B685E4A134019007B681A6990
:10418C00574B0A431A60564B1A68554B802149000D
:10419C000A431A60FEF788F803003B6108E0FEF75B
:1041AC0083F802003B69D31A022B01D9032309E2DD
:1041BC004B4B1A688023DB001340F0D0484B5B68F4
:1041CC004A4A134019007B685B691A02444B0A4344
:1041DC005A601BE0424B1A68414B49490A401A602D
:1041EC00FEF762F803003B6108E0FEF75DF80200A1
:1041FC003B69D31A022B01D90323E3E1384B1A682C
:10420C008023DB001340F0D100E0C0467B681B68C4
:10421C000822134047D0324B9B6838221340182B8E
:10422C000AD12F4B1B6E022213403CD07B689B693A
:10423C00002B38D10123C5E17B689B69002B19D079
:10424C00274B1A6E264B01210A431A66FEF72CF8EF
:10425C0003003B6108E0FEF727F802003B69D31A24
:10426C00022B01D90323ADE11D4B1B6E022213401F
:10427C00F1D018E01A4B1A6E194B01218A431A66B9
:10428C00FEF712F803003B6108E0FEF70DF80200A0
:10429C003B69D31A022B01D9032393E1104B1B6EFC
:1042AC0002221340F1D17B681B680422134000D119
:1042BC00C6E01F23FB1800221A70094B9B6838229A
:1042CC001340202B1ED1064BDB6D0222134000D174
:1042DC00B6E07B689B68002B00D0B1E0012371E154
:1042EC0000100240FFFFFEFFFFFFFBFFFF80FFFF00
:1042FC00FFC7FFFF0024F400480000204C00002002
:10430C00FFFEFFFFB14BDA6B80235B05134001D13D
:10431C00012300E00023002B11D0AC4BDA6BAB4B2C
:10432C00802149050A43DA63A84BDA6B80235B05CD
:10433C001340FB60FB681F23FB1801221A70A44B6F
:10434C001A6880235B0013401AD1A14B1A68A04B4A
:10435C00802149000A431A60FDF7A6FF03003B6168
:10436C0008E0FDF7A1FF02003B69D31A022B01D92B
:10437C00032327E1964B1A6880235B001340F0D08F
:10438C007B689B68012B06D1904BDA6D8F4B01211A
:10439C000A43DA651CE07B689B68052B0CD18B4BC0
:1043AC00DA6D8A4B04210A43DA65884BDA6D874B48
:1043BC0001210A43DA650BE0844BDA6D834B012152
:1043CC008A43DA65814BDA6D804B04218A43DA65C6
:1043DC007B689B68002B14D0FDF766FF03003B61E4
:1043EC0009E0FDF761FF02003B69D31A794A934259
:1043FC0001D90323E6E0754BDB6D02221340F0D0AC
:10440C0013E0FDF751FF03003B6109E0FDF74CFFA2
:10441C0002003B69D31A6F4A934201D90323D1E0BE
:10442C006A4BDB6D02221340F0D11F23FB181B7863
:10443C00012B05D1654BDA6B644B67490A40DA6393
:10444C007B68DB69002B00D1BBE0604B9B6838229A
:10445C001340102B00D17BE07B68DB69022B56D11B
:10446C005A4B1A68594B5D490A401A60FDF71CFFFC
:10447C0003003B6108E0FDF717FF02003B69D31A0C
:10448C00022B01D903239DE0504B1A6880239B0417
:10449C001340F0D14D4BDB68514A134019007B6837
:1044AC001A6A7B685B6A1A437B689B6A1B021A4315
:1044BC007B68DB6A1A437B681B6B1A437B685B6BFC
:1044CC001A43424B0A43DA60404B1A683F4B802137
:1044DC0049040A431A603D4BDA683C4B802149057C
:1044EC000A43DA60FDF7E0FE03003B6108E0FDF7EC
:1044FC00DBFE02003B69D31A022B01D9032361E0D6
:10450C00324B1A6880239B041340F0D059E02F4B98
:10451C001A682E4B31490A401A60FDF7C5FE03009C
:10452C003B6108E0FDF7C0FE02003B69D31A022B89
:10453C0001D9032346E0254B1A6880239B041340C2
:10454C00F0D1224BDA68214B26490A40DA6038E078
:10455C007B68DB69012B01D1012333E01B4BDB684A
:10456C007B617B6903221A407B681B6A9A4226D1C5
:10457C007B6970221A407B685B6A9A421FD17A6908
:10458C00FE23DB011A407B689B6A1B029A4216D100
:10459C007A69F8239B031A407B68DB6A9A420ED136
:1045AC007A69E0231B051A407B681B6B9A4206D183
:1045BC007B695B0F5A077B685B6B9A4201D00123C6
:1045CC0000E000231800BD4608B080BD001002407A
:1045DC000070004088130000FFFFFFEFFFFFFFFE9D
:1045EC008C80C111FCFFFEEE80B584B000AF78600A
:1045FC0039607B68002B01D10123E9E0764B1B6805
:10460C00072213403A689A421ED9734B1B68072243
:10461C0093431900704B3A680A431A60FDF744FE45
:10462C000300FB6009E0FDF73FFE0200FB68D31AB4
:10463C006A4A934201D90323CAE0674B1B680722DD
:10464C0013403A689A42EED17B681B6802221340F1
:10465C0015D07B681B680422134006D0604B9A6807
:10466C005F4BE021C9010A439A605D4B9B685D4A30
:10467C00134019007B689A68594B0A439A607B680F
:10468C001B680122134057D07B685B68012B07D154
:10469C00534B1A6880239B0213402BD1012397E0C4
:1046AC007B685B68022B07D14D4B1A6880239B04F7
:1046BC0013401FD101238BE07B685B68002B07D173
:1046CC00474B1A688023DB00134013D101237FE092
:1046DC007B685B68032B06D1414B1B6E0222134097
:1046EC0008D1012374E03E4BDB6D0222134001D153
:1046FC0001236DE03A4B9B680722934319007B68BA
:10470C005A68374B0A439A60FDF7CEFD0300FB60F5
:10471C0009E0FDF7C9FD0200FB68D31A2F4A93424A
:10472C0001D9032354E02E4B9B6838221A407B6836
:10473C005B68DB009A42ECD1274B1B6807221340C5
:10474C003A689A421ED2244B1B68072293431900E5
:10475C00214B3A680A431A60FDF7A6FD0300FB6083
:10476C0009E0FDF7A1FD0200FB68D31A1B4A934236
:10477C0001D903232CE0184B1B68072213403A681D
:10478C009A42EED17B681B680422134009D0144B6B
:10479C009B68154A134019007B68DA68104B0A4372
:1047AC009A6000F029F801000D4B9B681B0A0F2240
:1047BC001A400E4B9200D3581F2213400A00DA40C5
:1047CC000B4B1A600B4B1B681800FDF711FD030017
:1047DC001800BD4604B080BD0020024088130000C4
:1047EC0000100240FFF0FFFFFF8FFFFF5495000801
:1047FC00480000204C00002080B586B000AF3C4B38
:10480C009B68382213400FD1394B1B68DB0A0722F7
:10481C00134001229A4013003B6039683548FBF77E
:10482C007DFC03003B615DE0314B9B6838221340FB
:10483C00082B02D1304B3B6154E02D4B9B68382246
:10484C001340102B38D12A4BDB6803221340FB603A
:10485C00274BDB681B09072213400133BB60FB6845
:10486C00032B0DD1B9682448FBF758FC0300190041
:10487C001F4BDB681B0A7F2213404B437B610DE00F
:10488C00B9681C48FBF74AFC03001900184BDB689D
:10489C001B0A7F2213404B437B61C046144BDB68E1
:1048AC005B0F0722134001337B6079687869FBF753
:1048BC0035FC03003B6115E00D4B9B68382213401F
:1048CC00202B03D180231B023B610BE0084B9B6820
:1048DC0038221340182B03D1FA23DB013B6101E092
:1048EC0000233B613B691800BD4606B080BDC04645
:1048FC00001002400024F40000127A0080B500AFD2
:10490C00024B1B681800BD4680BDC0464800002005
:10491C00B0B500AFFFF7F2FF0400FFF73FFB030059
:10492C001A0B054B9200D3581F221340DC40230076
:10493C001800BD46B0BDC0469495000880B586B041
:10494C0000AF78601323FB1800221A701223FB1897
:10495C0000221A707B681A6880239B02134000D1D6
:10496C00A3E011203B1800221A70C34BDA6B802392
:10497C005B05134010D1C04BDA6BBF4B802149054E
:10498C000A43DA63BC4BDA6B80235B051340BB60D4
:10499C00BB683B1801221A70B84B1A68B74B8021C0
:1049AC0049000A431A60FDF77FFC0300FB600BE033
:1049BC00FDF77AFC0200FB68D31A022B04D91323EF
:1049CC00FB1803221A7005E0AC4B1A6880235B00BD
:1049DC001340EDD01323FB181B78002B54D1A64B9E
:1049EC00DA6DC0239B0013407B617B69002B19D0CF
:1049FC007B681B6B7A699A4214D09F4BDB6DA04A83
:104A0C0013407B619C4BDA6D9B4B802149020A431E
:104A1C00DA65994BDA6D984B9A490A40DA65964BF0
:104A2C007A69DA657B690122134016D0FDF73CFCEC
:104A3C000300FB600CE0FDF737FC0200FB68D31AA7
:104A4C00914A934204D91323FB1803221A7004E0F1
:104A5C00894BDB6D02221340EDD01323FB181B781E
:104A6C00002B0AD1844BDB6D854A134019007B68FF
:104A7C001A6B814B0A43DA650CE01223FB181322E4
:104A8C00BA1812781A7005E01223FB181322BA1800
:104A9C0012781A701123FB181B78012B05D1764B59
:104AAC00DA6B754B79490A40DA637B681B68012223
:104ABC00134009D0704B5B6D0322934319007B6844
:104ACC005A686D4B0A435A657B681B680222134077
:104ADC0009D0694B5B6D0C22934319007B689A6873
:104AEC00654B0A435A657B681B681022134009D03A
:104AFC00614B5B6D664A134019007B68DA685E4B4C
:104B0C000A435A657B681A6880239B00134009D0BE
:104B1C00594B5B6D5F4A134019007B689A69564B81
:104B2C000A435A657B681A688023DB00134009D05E
:104B3C00514B5B6D584A134019007B68DA694E4B38
:104B4C000A435A657B681B682022134009D04A4BE4
:104B5C005B6D524A134019007B681A69464B0A4335
:104B6C005A657B681A688023DB01134015D0424BD1
:104B7C005B6D9B0099087B681A6A3F4B0A435A6528
:104B8C007B681A6A8023DB059A4206D13A4BDA68B5
:104B9C00394B802149020A43DA607B681A6880230A
:104BAC001B03134009D0344B5B6D40229343190017
:104BBC007B685A6A304B0A435A657B681A688023B3
:104BCC009B03134016D02C4B5B6D354A13401900D8
:104BDC007B689A6A284B0A435A657B689A6A8023D9
:104BEC00DB039A4206D1244BDA68234B802149041B
:104BFC000A43DA607B681A688023DB03134016D003
:104C0C001D4B5B6D274A134019007B68DA6A1A4BFF
:104C1C000A435A657B68DA6A80235B049A4206D1A0
:104C2C00154BDA68144B802149040A43DA607B681F
:104C3C001A6880231B01134016D00F4B5B6D1A4A68
:104C4C00134019007B685A690B4B0A435A657B6801
:104C5C005A698023DB019A4206D1074BDA68064B6E
:104C6C00802149020A43DA601223FB181B781800D2
:104C7C00BD4606B080BDC04600100240007000402A
:104C8C00FFFCFFFFFFFFFEFF88130000FFFFFFEF9D
:104C9C00FFF3FFFFFFFFF3FFFFFFCFFFFFCFFFFF90
:104CAC00FFFFBFFFFFFFFFFEFF3FFFFF80B582B09E
:104CBC0000AF78607B68002B01D101234AE07B6850
:104CCC003D229B5CDBB2002B07D17B683C22002190
:104CDC0099547B681800FCF7E5FF7B683D220221A4
:104CEC0099547B681A687B6804331900100000F033
:104CFC006FFE7B684822012199547B683E2201217A
:104D0C0099547B683F22012199547B6840220121F0
:104D1C0099547B684122012199547B6842220121DC
:104D2C0099547B684322012199547B6844220121C8
:104D3C0099547B684522012199547B6846220121B4
:104D4C0099547B684722012199547B683D220121AB
:104D5C00995400231800BD4602B080BD80B584B0C4
:104D6C0000AF78607B683D229B5CDBB2012B01D0ED
:104D7C00012342E07B683D22022199547B681B6829
:104D8C00DA687B681B6801210A43DA607B681B6860
:104D9C001C4A93420FD07B681A688023DB059A4229
:104DAC0009D07B681B68184A934204D07B681B6847
:104DBC00164A934216D17B681B689B68144A1340B1
:104DCC00FB60FB68062B16D0FA6880235B029A42C4
:104DDC0011D07B681B681A687B681B6801210A4329
:104DEC001A6008E07B681B681A687B681B680121E5
:104DFC000A431A6000E0C04600231800BD4604B008
:104E0C0080BDC046002C0140000400400040014021
:104E1C000700010080B582B000AF78607B68002B82
:104E2C0001D101234AE07B683D229B5CDBB2002B65
:104E3C0007D17B683C22002199547B681800FCF751
:104E4C0073FE7B683D22022199547B681A687B684B
:104E5C0004331900100000F0BBFD7B6848220121CF
:104E6C0099547B683E22012199547B683F22012191
:104E7C0099547B684022012199547B68412201217D
:104E8C0099547B684222012199547B684322012169
:104E9C0099547B684422012199547B684522012155
:104EAC0099547B684622012199547B684722012141
:104EBC0099547B683D220121995400231800BD466A
:104ECC0002B080BD80B584B000AF786039603B68BB
:104EDC00002B08D17B683E229B5CDBB2013B5A1E47
:104EEC009341DBB237E03B68042B08D17B683F224F
:104EFC009B5CDBB2013B5A1E9341DBB22BE03B685F
:104F0C00082B08D17B6840229B5CDBB2013B5A1E0C
:104F1C009341DBB21FE03B680C2B08D17B6841222C
:104F2C009B5CDBB2013B5A1E9341DBB213E03B6846
:104F3C00102B08D17B6842229B5CDBB2013B5A1ED2
:104F4C009341DBB207E07B6843229B5CDBB2013B05
:104F5C005A1E9341DBB2002B01D001238BE03B683E
:104F6C00002B04D17B683E220221995423E03B683C
:104F7C00042B04D17B683F22022199541BE03B682F
:104F8C00082B04D17B6840220221995413E03B6822
:104F9C000C2B04D17B684122022199540BE03B6815
:104FAC00102B04D17B6842220221995403E07B68C8
:104FBC004322022199547B681B683968012218002E
:104FCC0001F092FA7B681B682D4A93420ED07B68E5
:104FDC001B682C4A934209D07B681B682A4A93426F
:104FEC0004D07B681B68294A934201D1012300E05D
:104FFC000023002B08D07B681B685A6C7B681B68ED
:10500C00802109020A435A647B681B681C4A93423C
:10501C000FD07B681A688023DB059A4209D07B6825
:10502C001B681B4A934204D07B681B68154A934249
:10503C0016D17B681B689B68164A1340FB60FB68A3
:10504C00062B16D0FA6880235B029A4211D07B683B
:10505C001B681A687B681B6801210A431A6008E008
:10506C007B681B681A687B681B6801210A431A60FD
:10507C0000E0C04600231800BD4604B080BDC04609
:10508C00002C014000400140004401400048014018
:10509C00000400400700010080B582B000AF7860CA
:1050AC007B68002B01D101234AE07B683D229B5C8D
:1050BC00DBB2002B07D17B683C22002199547B6822
:1050CC001800FCF7A5FD7B683D22022199547B68F2
:1050DC001A687B6804331900100000F079FC7B68B7
:1050EC004822012199547B683E22012199547B6806
:1050FC003F22012199547B684022012199547B68FD
:10510C004122012199547B684222012199547B68E8
:10511C004322012199547B684422012199547B68D4
:10512C004522012199547B684622012199547B68C0
:10513C004722012199547B683D2201219954002377
:10514C001800BD4602B080BD80B584B000AF786059
:10515C007B681B68DB68FB607B681B681B69BB603A
:10516C00BB680222134021D0FB68022213401DD0E1
:10517C007B681B68032252421A617B6801221A77F2
:10518C007B681B689B690322134004D07B68180062
:10519C0000F006FC07E07B68180000F0F9FB7B6868
:1051AC00180000F005FC7B6800221A77BB6804220B
:1051BC00134022D0FB68042213401ED07B681B686E
:1051CC00052252421A617B6802221A777B681B689F
:1051DC009A69C0239B00134004D07B68180000F030
:1051EC00DFFB07E07B68180000F0D2FB7B6818003F
:1051FC0000F0DEFB7B6800221A77BB6808221340A4
:10520C0021D0FB68082213401DD07B681B68092243
:10521C0052421A617B6804221A777B681B68DB692F
:10522C000322134004D07B68180000F0B9FB07E0A0
:10523C007B68180000F0ACFB7B68180000F0B8FB32
:10524C007B6800221A77BB681022134022D0FB68BF
:10525C00102213401ED07B681B68112252421A6127
:10526C007B6808221A777B681B68DA69C0239B006D
:10527C00134004D07B68180000F092FB07E07B68B9
:10528C00180000F085FB7B68180000F091FB7B6830
:10529C0000221A77BB68012213400CD0FB68012254
:1052AC00134008D07B681B68022252421A617B684B
:1052BC00180000F065FBBB688022134004D1BA686B
:1052CC0080239B0113400BD0FB688022134007D036
:1052DC007B681B681E4A1A617B68180001F03AFA59
:1052EC00BA6880235B0013400BD0FB68802213400C
:1052FC0007D07B681B68174A1A617B68180001F09D
:10530C0031FABB68402213400CD0FB68402213409A
:10531C0008D07B681B68412252421A617B681800D6
:10532C0000F04EFBBB68202213400CD0FB682022FF
:10533C00134008D07B681B68212252421A617B689B
:10534C00180001F0FFF9C046BD4604B080BDC04650
:10535C007FDFFFFFFFFEFFFF80B586B000AFF86078
:10536C00B9607A601723FB1800221A70FB683C2284
:10537C009B5C012B01D102238CE0FB683C220121B8
:10538C0099547B68002B1BD1FB681868BB681968A3
:10539C00BB685A68BB68DB6800F002FFFB681B68DF
:1053AC009A69FB681B680C218A439A61FB681B682D
:1053BC009969BB689A68FB681B680A439A6162E04A
:1053CC007B68042B1CD1FB681868BB681968BB6828
:1053DC005A68BB68DB6800F06DFFFB681B689A6954
:1053EC00FB681B682D490A409A61FB681B68996928
:1053FC00BB689B681A02FB681B680A439A6142E00F
:10540C007B68082B1BD1FB681868BB681968BB68E4
:10541C005A68BB68DB6800F0C1FFFB681B68DA697F
:10542C00FB681B680C218A43DA61FB681B68D9692D
:10543C00BB689A68FB681B680A43DA6123E07B68E7
:10544C000C2B1CD1FB681868BB681968BB685A68C0
:10545C00BB68DB6800F0E2FFFB681B68DA69FB687D
:10546C001B680E490A40DA61FB681B68D969BB6886
:10547C009B681A02FB681B680A43DA6103E0172376
:10548C00FB1801221A70FB683C2200219954172347
:10549C00FB181B781800BD4606B080BDFFF3FFFF5C
:1054AC0080B586B000AFF860B9607A601723FB183E
:1054BC0000221A70FB683C229B5C012B01D1022359
:1054CC00E5E0FB683C22012199547B68142B00D940
:1054DC00D1E07B689A00704BD3181B689F46FB6821
:1054EC001B68BA681100180000F000FBFB681B6811
:1054FC009A69FB681B6808210A439A61FB681B6860
:10550C009A69FB681B6804218A439A61FB681B68D3
:10551C009969BB681A69FB681B680A439A61AFE01A
:10552C00FB681B68BA681100180000F069FBFB6887
:10553C001B689A69FB681B68802109010A439A6100
:10554C00FB681B689A69FB681B6854490A409A619E
:10555C00FB681B689969BB681B691A02FB681B68AE
:10556C000A439A618CE0FB681B68BA68110018004A
:10557C0000F0CAFBFB681B68DA69FB681B68082132
:10558C000A43DA61FB681B68DA69FB681B68042153
:10559C008A43DA61FB681B68D969BB681A69FB68C6
:1055AC001B680A43DA616BE0FB681B68BA68110080
:1055BC00180000F031FCFB681B68DA69FB681B689B
:1055CC00802109010A43DA61FB681B68DA69FB6810
:1055DC001B6832490A40DA61FB681B68D969BB68F1
:1055EC001B691A02FB681B680A43DA6148E0FB6816
:1055FC001B68BA681100180000F078FCFB681B6887
:10560C005A6DFB681B6808210A435A65FB681B68C6
:10561C005A6DFB681B6804218A435A65FB681B683A
:10562C00596DBB681A69FB681B680A435A6527E009
:10563C00FB681B68BA681100180000F0B7FCFB6827
:10564C001B685A6DFB681B68802109010A435A6567
:10565C00FB681B685A6DFB681B6810490A405A6549
:10566C00FB681B68596DBB681B691A02FB681B68D9
:10567C000A435A6504E01723FB1801221A70C0462E
:10568C00FB683C22002199541723FB181B78180047
:10569C00BD4606B080BDC046B4950008FFFBFFFFB9
:1056AC0080B586B000AFF860B9607A601723FB183C
:1056BC0000221A70FB683C229B5C012B01D1022357
:1056CC000EE1FB683C2201219954FB683D2202212A
:1056DC009954BB685B688022920593422FD080223C
:1056EC009205934254D8012B14D98022520593422F
:1056FC004ED1FB681B689A68FB681B687A490A40A4
:10570C009A60FB681B681A6DFB681B6801218A4351
:10571C001A6542E0FB681B689A68FB681B680821E5
:10572C008A439A60FB681B681B6D01229343190026
:10573C00BB685A68FB681B680A431A652DE0BB6896
:10574C00DB68002B09D0FB683D2201219954FB68D2
:10575C003C22002199540123C2E0FB681868BB6805
:10576C00D968BB689A68BB681B6900F09DFEFB6832
:10577C001B689A68FB681B6808210A439A60FB68DF
:10578C001B681A6DFB681B6801218A431A6504E0CB
:10579C001723FB1801221A70C0461723FB181B781D
:1057AC00002B00D091E07B68142B00D98CE07B6837
:1057BC009A004E4BD3181B689F46BB681B68002B86
:1057CC0008D0FB681B689A69FB681B6880210A4338
:1057DC009A617AE0FB681B689A69FB681B688021F8
:1057EC008A439A6171E0BB681B68002B09D0FB6887
:1057FC001B689A69FB681B68802109020A439A613D
:10580C0063E0FB681B689A69FB681B6838490A40AF
:10581C009A615AE0BB681B68002B08D0FB681B68B8
:10582C00DA69FB681B6880210A43DA614DE0FB688A
:10583C001B68DA69FB681B6880218A43DA6144E0E3
:10584C00BB681B68002B09D0FB681B68DA69FB6816
:10585C001B68802109020A43DA6136E0FB681B6889
:10586C00DA69FB681B6822490A40DA612DE0BB68E3
:10587C001B68002B08D0FB681B685A6DFB681B6803
:10588C0080210A435A6520E0FB681B685A6DFB684F
:10589C001B6880218A435A6517E0BB681B68002B84
:1058AC0009D0FB681B685A6DFB681B6880210902D4
:1058BC000A435A6509E0FB681B685A6DFB681B6854
:1058CC000B490A405A6500E0C046FB683D220121A5
:1058DC009954FB683C22002199541723FB181B7820
:1058EC001800BD4606B080BDF700FFFF0896000803
:1058FC00FF7FFFFF80B582B000AF786039607B68B6
:10590C003C229B5C012B01D1022332E07B683C22C0
:10591C00012199547B683D22022199543A687B6895
:10592C001100180000F0A6FB031E09D07B683D2275
:10593C00012199547B683C2200219954012318E0E1
:10594C007B681B68DA687B681B6840218A43DA60D5
:10595C007B681B68DA687B681B6808490A40DA6058
:10596C007B683D22012199547B683C22002199548B
:10597C0000231800BD4602B080BDC046FFBFFFFF2C
:10598C0080B582B000AF7860C046BD4602B080BD25
:10599C0080B582B000AF7860C046BD4602B080BD15
:1059AC0080B582B000AF7860C046BD4602B080BD05
:1059BC0080B582B000AF7860C046BD4602B080BDF5
:1059CC0080B582B000AF7860C046BD4602B080BDE5
:1059DC0080B584B000AF786039607B681B68FB6071
:1059EC007B683B4A934208D07A688023DB059A4255
:1059FC0003D07B68374A934208D1FB6870229343EB
:105A0C00FB603B685B68FA681343FB607B68304A59
:105A1C00934218D07A688023DB059A4213D07B68B6
:105A2C002C4A93420FD07B682B4A93420BD07B6855
:105A3C002A4A934207D07B68294A934203D07B6859
:105A4C00284A934208D1FB68274A1340FB603B6805
:105A5C00DB68FA681343FB60FB68802293431A00EF
:105A6C003B685B691343FB607B68FA681A603B68B0
:105A7C009A687B68DA623B681A687B689A627B6812
:105A8C00134A93420BD07B68144A934207D07B682D
:105A9C00134A934203D07B68124A934203D13B686A
:105AAC001A697B681A637B6801225A617B681B69DF
:105ABC0001221340012B06D17B681B690122934301
:105ACC001A007B681A61C046BD4604B080BDC04652
