:020000040800F2
:100000000090002021230008E5200008ED200008D2
:1000100000000000000000000000000000000000E0
:10002000000000000000000000000000F5200008B3
:100030000000000000000000FF2000080921000867
:100040007123000871230008712300087123000840
:100050007123000871230008712300087123000830
:10006000712300081921000871230008712300087A
:10007000C9210008712300087123000871230008BA
:10008000E1210008212200087123000871230008E3
:1000900071230008792200087123000871230008E9
:1000A00071230008712300087123000871230008E0
:0C00B00091220008712300087123000851
:1000BC0010B5064C2378002B07D1054B002B02D032
:1000CC00044800E000BF0123237010BD4001002054
:1000DC0000000000ACA50008044B10B5002B03D0A9
:1000EC000349044800E000BF10BDC04600000000FA
:1000FC0044010020ACA500080023C25C0133002A97
:10010C00FBD1581E7047000003B4714649084000EB
:10011C004900095E49008E4403BC70470022430825
:10012C008B4274D303098B425FD3030A8B4244D3B3
:10013C00030B8B4228D3030C8B420DD3FF220902F5
:10014C0012BA030C8B4202D31212090265D0030BB4
:10015C008B4219D300E0090AC30B8B4201D3CB03AA
:10016C00C01A5241830B8B4201D38B03C01A5241EC
:10017C00430B8B4201D34B03C01A5241030B8B42EE
:10018C0001D30B03C01A5241C30A8B4201D3CB02D9
:10019C00C01A5241830A8B4201D38B02C01A5241BE
:1001AC00430A8B4201D34B02C01A5241030A8B42C1
:1001BC0001D30B02C01A5241CDD2C3098B4201D3D9
:1001CC00CB01C01A524183098B4201D38B01C01A57
:1001DC00524143098B4201D34B01C01A52410309CE
:1001EC008B4201D30B01C01A5241C3088B4201D37D
:1001FC00CB00C01A524183088B4201D38B00C01A2A
:10020C00524143088B4201D34B00C01A5241411A50
:10021C0000D20146524110467047FFE701B500205D
:10022C0000F0F0F802BDC0460029F7D076E7704721
:10023C0003460B437FD4002243088B4274D303093B
:10024C008B425FD3030A8B4244D3030B8B4228D3DC
:10025C00030C8B420DD3FF22090212BA030C8B4202
:10026C0002D31212090265D0030B8B4219D300E0A2
:10027C00090AC30B8B4201D3CB03C01A5241830B27
:10028C008B4201D38B03C01A5241430B8B4201D3D7
:10029C004B03C01A5241030B8B4201D30B03C01A00
:1002AC005241C30A8B4201D3CB02C01A5241830A7A
:1002BC008B4201D38B02C01A5241430A8B4201D3A9
:1002CC004B02C01A5241030A8B4201D30B02C01AD3
:1002DC005241CDD2C3098B4201D3CB01C01A52413A
:1002EC0083098B4201D38B01C01A524143098B42C3
:1002FC0001D34B01C01A524103098B4201D30B01AC
:10030C00C01A5241C3088B4201D3CB00C01A5241D0
:10031C0083088B4201D38B00C01A524143088B4295
:10032C0001D34B00C01A5241411A00D2014652412E
:10033C00104670475DE0CA0F00D04942031000D34D
:10034C004042534000229C4603098B422DD3030AA2
:10035C008B4212D3FC22890112BA030A8B420CD3B2
:10036C00890192118B4208D3890192118B4204D3DB
:10037C0089013AD0921100E08909C3098B4201D35B
:10038C00CB01C01A524183098B4201D38B01C01A95
:10039C00524143098B4201D34B01C01A524103090C
:1003AC008B4201D30B01C01A5241C3088B4201D3BB
:1003BC00CB00C01A524183088B4201D38B00C01A68
:1003CC005241D9D243088B4201D34B00C01A52413F
:1003DC00411A00D20146634652415B10104601D3CC
:1003EC004042002B00D54942704763465B1000D356
:1003FC00404201B5002000F005F802BD0029F8D0FC
:10040C0016E770477047C046002B11D1002A0FD158
:10041C00002900D1002802D00021C943080007B4EC
:10042C00024802A14018029003BDC046D9FFFFFF4D
:10043C0003B4684601B5029800F006F8019B9E468D
:10044C0002B00CBC7047C046F0B557464E46454608
:10045C00DE46E0B504000D009246994683B08B420F
:10046C0030D82DD04946504600F0BAF82900060085
:10047C00200000F0B5F8331A9846203B34D49B4644
:10048C0053465A46934042461F00534693401E0023
:10049C00AF423BD8AF4200D179E05B46A41BBD41D3
:1004AC00002B00DA76E00022002300920193012356
:1004BC005A4693400193012342469340009329E00E
:1004CC008242CFD900220023009201930C9B002B77
:1004DC0001D01C605D600098019903B0F0BCBB4674
:1004EC00B246A946A046F0BD42469B4620239B1A25
:1004FC005246DA40414613004A468A4017004246AB
:10050C001F43534693401E00AF42C3D90022002321
:10051C00009201934346002BD8D0FB0772081A4374
:10052C0046467B080EE0AB4201D1A2420CD8A41A7D
:10053C009D41012024196D410021013E24184D419B
:10054C00002E06D0AB42EED9013E24196D41002E8F
:10055C00F8D1009801995B4600196941002B24DB06
:10056C002B005A464446D3402A00E2401C005B460E
:10057C001500002B2ADB26009E4033002600474640
:10058C00BE403200801A9941009001919EE7A3422F
:10059C00BCD882E74246202300219B1A00220091FE
:1005AC0001920122DA40019285E7424620239B1AF0
:1005BC002A0046469A402300F340444613432A003F
:1005CC00E2401C005B461500002BD4DA42462F009B
:1005DC002023260097409B1ADE403B003343CDE797
:1005EC0010B5002903D100F007F8203002E0080014
:1005FC0000F002F810BDC0461C2101231B049842D8
:10060C0001D3000C10391B0A984201D3000A083997
:10061C001B09984201D30009043902A2105C40184E
:10062C007047C046040302020101010100000000F2
:10063C0000000000F0B587B004AF78607B681B68E1
:10064C00DE4A934200D06FE2DD4B1B780A2B04D0BC
:10065C00DB4B1B780D2B00D051E2DA4B1B781A00C8
:10066C00D94B00219954D84B1B78462B41D1D74AF2
:10067C00D74B1100180009F045FBD54B180009F0B9
:10068C003BFA0200D34B1A60D24B1B68092B00DCDF
:10069C0031E2D04B1B68C82B00DD2CE2CD4B1B6824
:1006AC00002B00DA01335B10FA2292019A18C94B25
:1006BC001B6819001000FFF7BBFD03009AB2C64B74
:1006CC001A80C44B1968C44B1B889BB2C34AC448DC
:1006DC0000930B003C2109F0ABFAC14B1800FFF75B
:1006EC000BFD03009AB2BE49BE480A2307F024F959
:1006FC0001E2B54B1B784F2B17D1B44AB44B110008
:10070C00180009F0FFFAB24B180009F0F5F90200D5
:10071C00B04B1A60AF4B1B68012B00DDEBE1AD4B0E
:10072C001B68DAB2B04B1A70E5E1A74B1B78412B72
:10073C0035D1A64AA64B1100180009F0E3FAA44BD8
:10074C00180009F0D9F90200A24B1A60A14B1B68E2
:10075C003B2B00DCCFE19F4B1A68FA239B009A429B
:10076C0000DDC8E19B4B1B689AB29B4B1A80994BDE
:10077C001968994B1B889BB29C4A994800930B00B3
:10078C003C2109F055FA964B1800FFF7B5FC030015
:10079C009AB2934993480A2307F0CEF8ABE18A4BFF
:1007AC001B78432B2ED1894A894B1100180009F074
:1007BC00A9FA874B180009F09FF90200854B1A60C3
:1007CC00844B1B68132B00DC95E1824B1B68502B70
:1007DC0000DD90E17F4B1B689AB2854B1A807D4BF4
:1007EC001B68844A7E483C2109F022FA7C4B180095
:1007FC00FFF782FC03009AB279497A480A2307F082
:10080C009BF878E1704B1B78492B2FD16F4A704BBA
:10081C001100180009F076FA6D4B180009F06CF90C
:10082C0002006C4B1A606B4B1B68F92B00DC62E10D
:10083C00684B1B68704A934200DD5CE1654B1B689A
:10084C009AB26E4B1A80634B1B686D4A64483C210C
:10085C0009F0EEF9624B1800FFF74EFC03009AB258
:10086C005F4960480A2307F067F844E1564B1B7850
:10087C00442B28D1634B1B889BB21E00624B1B88F8
:10088C009BB21900614B1B889BB21C00604B1B88F0
:10089C009BB21D005F4B1B889BB25F4A5048039371
:1008AC0002950194009133003C2109F0C1F94C4BA5
:1008BC001800FFF721FC03009AB2494949480A2362
:1008CC0007F03AF817E1404B1B78542B35D1534BBA
:1008DC001B889BB25B089BB2FA2292019A184F4B71
:1008EC001B889BB219001000FFF7A2FC03009BB2FF
:1008FC001A00384B1A60374B1968484B1B889BB24F
:10090C001C003B4B1B889BB21D003C4B1B889BB2B5
:10091C00434A33480293019500940B003C2109F0A3
:10092C0087F92F4B1800FFF7E7FB03009AB22C490D
:10093C002C480A2307F000F8DDE0234B1B78582BDA
:10094C001BD1384B1968384B1B68384A128892B245
:10095C001400374A2248019400930B003C2109F003
:10096C0067F91F4B1800FFF7C7FB03009AB21C492D
:10097C001C480A2306F0E0FFBDE0134B1B78452B07
:10098C005AD1124A124B1100180009F0BBF9104B46
:10099C00180009F0B1F802000E4B1A600D4B1B68E1
:1009AC00012B00DDA7E00B4B1B68002B00DAA2E04B
:1009BC00084B1B68DAB21F4B1A709CE000440040D5
:1009CC00CB040020CA040020B4040020B50400208D
:1009DC00C00400200805002004000020C4A5000865
:1009EC00CC0400201404002016050020DCA500080F
:1009FC00B0040020F0A5000812020000AE04002094
:100A0C0000A600087A0100207C0100207E01002055
:100A1C00800100208201002014A60008A8040020F8
:100A2C0044A600088401002088010020B2040020A4
:100A3C0070A60008080000203D4B1B78502B49D1B4
:100A4C003C4A3D4B1100180009F05CF93A4B180078
:100A5C0009F052F80200394B1A60384B1B68002B16
:100A6C0026DB364B1B68692B22DC344B1B68092BAD
:100A7C0004DC334B9A8A334B1A8006E02F4B1A68EE
:100A8C002F4B5200D25A2F4B1A802C4B1B682E4ADC
:100A9C002E483C2109F0CCF82C4B1800FFF72CFB0E
:100AAC0003009AB229492A480A2306F045FF22E09E
:100ABC00284A264B3C21180009F0BAF8234B1800A1
:100ACC00FFF71AFB03009AB2204921480A2306F0CB
:100ADC0033FF10E0204A1D4B3C21180009F0A8F808
:100AEC001A4B1800FFF708FB03009AB21749184875
:100AFC000A2306F021FF194B00221A700EE0174B47
:100B0C001B78082B0AD8154B1B785A1CD1B2134AE8
:100B1C0011701A00124B1978054B995410490C4B53
:100B2C000122180006F0ACFFC046BD4603B0F0BD74
:100B3C00B4040020B5040020C004002008050020E7
:100B4C000C0000200400002090A60008CC0400201B
:100B5C0014040020A4A60008B4A60008CA040020AF
:100B6C00CB04002080B582B000AF01F0FDFBC34B7D
:100B7C003C221A80C24BD22252001A80C14B3C221A
:100B8C001A80C04B1B889BB205339AB2BD4B1A809E
:100B9C0000F038FB00F02CFF00F014FF00F0B6FB67
:100BAC0000F066FC00F094FC00F008FD00F0CAFDBB
:100BBC0000F092FE00F0B8FE00F054FE00F0BEFC17
:100BCC0000F07EFBB04BFA229200DA62AF4B1800B9
:100BDC0004F0F4FEAE4B9A69AD4B80210A439A6146
:100BEC00AB4B1A68AA4B80210A431A60A94B00210F
:100BFC00180004F097FFA74B1B685A6CA54B1B6899
:100C0C00802109020A435A64A34B0021180002F008
:100C1C0084FFA24B1B889BB29F480022002103F04B
:100C2C002FF89F4B180002F025FE9E4B1B78DBB271
:100C3C001A009D499D4B180001F03CFF9C499D4BAF
:100C4C000122180006F01CFF9B4B0421180005F034
:100C5C009BF9994B0021180005F0A6F8FB1D00220A
:100C6C001A7080231B02954A1900100003F02CFE09
:100C7C00C82001F0FFFB80231B02904A19001000D2
:100C8C0003F022FEC82001F0F5FB80231B028B4AE7
:100C9C001900100003F018FEC82001F0EBFB8023B4
:100CAC001B02864A1900100003F00EFE844B1B78C1
:100CBC00DBB2002B2BD0834B1B68002B24D0824B38
:100CCC001B6864225A437F4B1B6819001000FFF706
:100CDC0025FA03009BB201339AB27C4B1A807B4BF2
:100CEC001B889BB2042B03D8794B00221A700BE0A3
:100CFC00774B01221A70754B1B889BB21A00754BEF
:100D0C005200D25A744B1A806D4B00221A70734BDE
:100D1C001B78DBB2002B00D1A6E0704B00221A70BE
:100D2C006F4B1B78002B2CD06B4B1B889BB2190084
:100D3C00FA239801FFF77CFA03009AB2694B1B88DF
:100D4C00D3189BB20A3B9AB2674B1A80664B1B882E
:100D5C009BB21900FA239801FFF76AFA03009AB2C2
:100D6C00624B1A805F4B1B88152B03D95D4B0022FD
:100D7C001A800BE05B4B1B8801339AB2594B1A80DB
:100D8C0004E0554B1B889AB2584B1A8080239B0069
:100D9C00574A1900100003F05DFD031E05D14C4BA2
:100DAC001B78002B01D0012300E00023DAB2514B59
:100DBC001A70504B1B78DBB2002B26D04E4B1B7895
:100DCC00002B22D14D4B1B8801339AB24B4B1A800E
:100DDC004B4B1B78002B18D1284B1B889BB2632BD9
:100DEC0013D8484B1B8801339AB2464B1A80454B9B
:100DFC001B88102B09D9434B00221A801F4B1B88D0
:100E0C009BB201339AB21D4B1A803F4B1B889BB28D
:100E1C003E4A93420AD83C4B1B889AB2FA23DB0019
:100E2C009A4203D93A4B01221A7002E0384B002245
:100E3C001A70384B1B889AB2FA235B009A4203D97A
:100E4C00354B01221A7002E0334B00221A70334BDF
:100E5C001B889BB2324A934203D9324B01221A703F
:100E6C0002E0304B00221A70FB1D1B78042B00D9BA
:100E7C001CE79A002C4BD3181B689F46AC0400202F
:100E8C00AE040020B0040020001000407C030020C1
:100E9C00002C0140E40200207C020020060000200F
:100EAC004C02002000000020640100208C01002076
:100EBC00CB04002014040020300300200008005054
:100ECC00610100208401002088010020B204002070
:100EDC00080000200C00002004000020600100200D
:100EEC001605002014050020AA040020A8040020E8
:100EFC00000400505C0100200E0500200C050020B1
:100F0C0012050020100500207A010020560C00006C
:100F1C005D0100207C0100205E0100208201002088
:100F2C00280A00005F010020C8A60008A14B00227F
:100F3C001A70A14B00221A70A04B00221A80A04BF1
:100F4C003C221A8080231B029E480022190003F0C9
:100F5C009EFCA023DB0500222021180003F097FC47
:100F6C00994B1B6800225A63984B1B889AB2984B7A
:100F7C00DA62984B1B78DBB2002B00D114E1964B54
:100F8C001B78DBB2002B00D10EE1944B1B78DBB24B
:100F9C00002B00D008E1FB1D02221A7004E1904BDB
:100FAC001A78904B1B789A4203D9FB1D04221A70B5
:100FBC005FE0804B1B78002B5BD1804B1A88FA23A7
:100FCC00DB009A424CD280231B027E48002219007F
:100FDC0003F05DFC844B1B889BB2844800220021EB
:100FEC0002F04EFE764B1B889AB2774B1B685A6305
:100FFC00764B1B889AB2764BDA62A023DB05012272
:10100C002021180003F043FC8023DB016D480122F2
:10101C00190003F03CFC764B1B889AB296239B007C
:10102C009A4202D9644B01221A70714B1B889AB2F6
:10103C0096239B009A421CD9604B1A88FA239B007A
:10104C009A4216D9A023DB0500222021180003F0B8
:10105C001EFC584B01221A70FB1D01221A7008E06D
:10106C00564B1A88FA23DB009A4202D3FB1D03224B
:10107C001A70584B1B78DBB2002B00D096E0FB1D8E
:10108C0000221A7092E04B4B00221A70A023DB0551
:10109C0000222021180003F0FAFB4B4B1B680022A6
:1010AC005A6380231B02474A1900100003F00CFC02
:1010BC00642001F0DFF980231B02424A1900100062
:1010CC0003F002FC642001F0D5F980231B023D4A99
:1010DC001900100003F0F8FB642001F0CBF9802319
:1010EC001B02384A1900100003F0EEFB8023DB01D1
:1010FC0034480022190003F0CAFB3E4B1B88180031
:10110C0001F0B8F9364B1B780133DAB2344B1A7054
:10111C00FB1D00221A704CE080231B02294801227F
:10112C00190003F0B4FB8023DB01264800221900D0
:10113C0003F0ADFB304B1B889AB2254BDA622F4B78
:10114C001B889AB2204B1B685A632D4B1B889BB291
:10115C0026480022002102F093FD1E4B1B78DBB2C7
:10116C00002B04D01C4B1B78DBB2002B02D1FB1DD7
:10117C0000221A70194B1B78DBB2002B18D0FB1D08
:10118C0000221A7014E0104B1B6800225A63802353
:10119C001B020C4A1900100003F096FBFA239B006B
:1011AC00180001F067F904E0C0467FE5C0467DE514
:1011BC00C0467BE50E050020120500200C05002022
:1011CC00AC04002000080050E402002002000020C3
:1011DC00002C01405C0100205D0100205E0100201C
:1011EC0013050020E2000020060000207C020020F5
:1011FC0080010020E0000020A8040020B0040020A2
:10120C00AE04002090B593B000AF10243B19180029
:10121C0038231A00002108F041FD3B001800102370
:10122C001A00002108F03AFD80239B00180003F0FF
:10123C00A5FC3B1902221A603B1980225200DA608D
:10124C0021007B1800221A617B1840225A617B18FE
:10125C000222DA617B1802221A627B1800225A627F
:10126C007B1808229A627B18E0221203DA627B1840
:10127C00E02212051A637B18802292055A637B18B0
:10128C00180003F0C7FC031E01D000F03FFC3B002C
:10129C0007221A603B0000225A603B0000229A6031
:1012AC003B000022DA603B000021180003F0CCFF69
:1012BC00031E01D000F02AFCC046BD4613B090BD01
:1012CC0080B500AF00220021112002F0D1FB1120CB
:1012DC0002F0E3FB002200210C2002F0C9FB0C20E1
:1012EC0002F0DBFB00220021092002F0C1FB0920E7
:1012FC0002F0D3FB00220021102002F0B9FB1020D9
:10130C0002F0CBFBC046BD4680BD000080B584B06A
:10131C0000AF3B1D18000C231A00002108F0BEFC86
:10132C004D4B4E4A1A604C4BA02252035A604A4B0A
:10133C0000229A60484B0022DA60474B80229203CD
:10134C001A61454B04225A61434B00221A76424BD8
:10135C0000225A76404B01229A763F4B0522DA61E5
:10136C003D4BA822D2005A623B4B8022D2009A629B
:10137C00394B2C2201219954374B00221A63364BDE
:10138C0006225A63344B06229A63334B3C220021CB
:10139C009954314B0022DA642F4B180001F0E2F91A
:1013AC00031E01D000F0B2FB3B1D01221A603B1D55
:1013BC0000225A603B1D00229A603A1D264B1100F8
:1013CC00180001F03DFD031E01D000F09FFB3B1DFA
:1013DC00234A1A603B1D04225A603A1D1E4B110011
:1013EC00180001F02DFD031E01D000F08FFB3B1DFA
:1013FC001C4A1A603B1D08225A603A1D164B1100FC
:10140C00180001F01DFD031E01D000F07FFB3B1DF9
:10141C00154A1A603B1D0C225A603A1D0E4B1100E6
:10142C00180001F00DFD031E01D000F06FFB3B1DF9
:10143C000E4A1A603B1D10225A603A1D064B1100D1
:10144C00180001F0FDFC031E01D000F05FFBC0464C
:10145C00BD4604B080BDC0468C0100200024014074
:10146C0002000004000100200002002400040028F7
:10147C0080B500AF144B154A1A60134B00221A6149
:10148C00114B40225A61104B0022DA610E4B0022A4
:10149C009A600D4B00229A610B4B00221A620A4B88
:1014AC000022DA60084B00225A60074B00225A6275
:1014BC00054B180002F07CF8031E01D000F026FB4F
:1014CC00C046BD4680BDC0464C020020040201400F
:1014DC0080B58AB000AF3B1D180024231A000021F0
:1014EC0008F0DCFB134B144A1A60124B180002F084
:1014FC00F1FA031E01D000F009FB3B1D00221A601B
:10150C003B1D00225A603B1D02229A603B1D0122AA
:10151C00DA603B1D00221A61391D064B00221800AF
:10152C0002F0DEFB031E01D000F0F0FAC046BD460F
:10153C000AB080BD7C0200200074004080B500AF72
:10154C001B4B1C4A1A601A4B1B4A5A60184B002240
:10155C009A60174B0122DA60154B00221A61144B6A
:10156C0000225A61124B00229A61114B0022DA615F
:10157C000F4B00221A620E4B180003F0C1F9031E28
:10158C0001D000F0C3FA0A4B0021180003F05EFAF8
:10159C00031E01D000F0BAFA054B0021180003F02D
:1015AC00A1FA031E01D000F0B1FAC046BD4680BDC1
:1015BC0090020020005800405B3D300080B59CB08C
:1015CC0000AF5C23FB18180014231A00002108F04C
:1015DC0065FB5023FB1818000C231A00002108F09F
:1015EC005DFB3423FB1818001C231A00002108F0A3
:1015FC0055FB3B00180034231A00002108F04EFB69
:10160C004E4B4F4A1A604D4B00225A604B4B0022F6
:10161C009A604A4BA0225200DA60484B00221A61B1
:10162C00464B00225A61454B80229A61434B18006D
:10163C0004F020FA031E01D000F068FA5C217B183C
:10164C0001221A607B1801225A6079183B4B002248
:10165C00180005F07DF8031E01D000F057FA502158
:10166C007B1800221A607B1800225A607B1800221B
:10167C009A607A18314B1100180005F0E5FF031E33
:10168C0001D000F043FA34217B1860221A607B18D9
:10169C0000225A607B1800229A607B180022DA60C4
:1016AC007B1800221A617B1800225A617B180022D9
:1016BC009A617918214B0022180004F049FF031E8F
:1016CC0001D000F023FA3B0000221A603B000022FC
:1016DC005A603B0000229A603B000022DA603B001B
:1016EC0000221A613B00802292015A613B000022C9
:1016FC009A613B000022DA613B0000221A623B0037
:10170C00802292045A623B0000229A623B00002223
:10171C00DA623B0000221A633A00084B11001800F1
:10172C0006F000F8031E01D000F0F0F9034B18008E
:10173C0000F02CFCC046BD461CB080BDE40200206D
:10174C00002C014080B58CB000AF1C23FB18180096
:10175C0014231A00002108F0A1FA0C23FB1818001E
:10176C0010231A00002108F099FA3B0018000C23F2
:10177C001A00002108F092FA374B384A1A60364B9F
:10178C0000225A60344B00229A60334B344ADA60A0
:10179C00314B00221A61304B00229A612E4B1800FB
:1017AC0004F0AAFA031E01D000F0B0F91C217B183A
:1017BC0004221A607B1860225A607B1800229A60FF
:1017CC007B180022DA607B1800221A617A18224BEF
:1017DC001100180005F0E6F8031E01D000F096F990
:1017EC000C217B1802221A607B1802225A607B188B
:1017FC0000229A607B180022DA607918164B0022BE
:10180C00180004F001FE031E01D000F07FF90C213A
:10181C007B1800221A607B1801225A6079180E4B33
:10182C000422180004F0F0FD031E01D000F06EF944
:10183C003B0000221A603B0000229A603A00064BE3
:10184C001100180005F000FF031E01D000F05EF936
:10185C00C046BD460CB080BD3003002000040040E3
:10186C00FFFF000080B584B000AF3B1D18000C23B7
:10187C001A00002108F012FA154B164A1A60144B84
:10188C0010225A60124B00229A60114BFA229200DD
:10189C00DA600F4B00229A610D4B180004F036F8F9
:1018AC00031E01D000F032F93B1D20221A603B1DB3
:1018BC0000229A603A1D064B1100180005F0C4FE78
:1018CC00031E01D000F022F9C046BD4604B080BD15
:1018DC007C0300200010004080B500AF0F4B104A75
:1018EC001A600E4B00225A600C4B00229A600B4B74
:1018FC000C4ADA60094B00221A61084B00225A612B
:10190C00064B00229A61054B180003F0FFFF031EE3
:10191C0001D000F0FBF8C046BD4680BDC8030020D6
:10192C0000440140FFFF000080B500AF234B244A68
:10193C001A60224BE12252025A60204B00229A601C
:10194C001E4B0022DA601D4B00221A611B4B0C222D
:10195C005A611A4B00229A61184B0022DA61174B1C
:10196C0000221A62154B00225A62144B00229A6212
:10197C00124B180005F08AFF031E01D000F0C6F8C8
:10198C000E4B0021180007F0D7FF031E01D000F00A
:10199C00BDF80A4B0021180008F00EF8031E01D008
:1019AC0000F0B4F8054B180007F08CFF031E01D0B3
:1019BC0000F0ACF8C046BD4680BDC0461404002003
:1019CC000044004080B582B000AF084B9A6B074BC7
:1019DC0001210A439A63054B9B6B012213407B60E8
:1019EC007B68C046BD4602B080BDC04600100240B8
:1019FC0090B589B000AF0C243B19180014231A00C1
:101A0C00002108F04BF93D4B5A6B3C4B02210A4329
:101A1C005A633A4B5B6B02221340BB60BB68374B7B
:101A2C005A6B364B04210A435A63344B5B6B0422CA
:101A3C0013407B607B68314B5A6B304B01210A435E
:101A4C005A632E4B5B6B012213403B603B682C4965
:101A5C002C4B0022180002F01AFFA023DB050022F9
:101A6C00A021180002F013FF3B19802292001A608B
:101A7C003B1900225A603B1901229A603B19224AF9
:101A8C001900100002F082FD3B191D4A1A603B1927
:101A9C0001225A603B1900229A603B190022DA603D
:101AAC003B19184A1900100002F070FD3B19502226
:101ABC001A603B1900225A603B1900229A603A19AD
:101ACC00A023DB051100180002F060FD21007B183B
:101ADC00A0221A607B1801225A607B1800229A609F
:101AEC007B180022DA607A18A023DB05110018009D
:101AFC0002F04CFDC046BD4609B090BD001002403E
:101B0C0040C00000000800500004005080B500AF39
:101B1C0072B6C04680231B02054A1900100002F061
:101B2C00D3FEFA235B00180000F0A4FCC046F1E7DA
:101B3C000008005080B582B000AF0F4B1A6C0E4BF2
:101B4C0001210A431A640C4B1B6C012213407B606D
:101B5C007B68094BDA6B084B802149050A43DA6331
:101B6C00054BDA6B80235B0513403B603B68C0463A
:101B7C00BD4602B080BDC0460010024090B599B081
:101B8C0000AF78604C23FB18180014231A000021B6
:101B9C0008F084F818243B19180034231A0000218B
:101BAC0008F07CF87B681B68444A934200D080E0C4
:101BBC003B198022D2011A603B198022D2051A628D
:101BCC003B19180003F0EAFC031E01D0FFF79EFF3F
:101BDC003B4B1A6C3A4B802149030A431A64384B2D
:101BEC001A6C80235B0313407B617B69344B5A6B0B
:101BFC00334B01210A435A63314B5B6B0122134077
:101C0C003B613B692E4B5A6B2D4B02210A435A63A5
:101C1C002B4B5B6B02221340FB60FB684C243B1983
:101C2C0003221A603B1903225A603B1900229A6066
:101C3C003A19A023DB051100180002F0A7FC3B1990
:101C4C0007221A603B1903225A603B1900229A6042
:101C5C003B191C4A1900100002F098FC1A4B1B4A45
:101C6C001A60194B05225A60174B00229A60164BCA
:101C7C000022DA60144B80221A61134B802252002E
:101C8C005A61114B8022D2009A610F4B2022DA61EB
:101C9C000D4B00221A620C4B180002F059F9031E6E
:101CAC0001D0FFF733FF7B68074A1A65064B7A6849
:101CBC009A62C046BD4619B090BDC0460024014092
:101CCC000010024000040050F00100200800024007
:101CDC0090B589B000AF78600C243B191800142320
:101CEC001A00002107F0DAFF7B681B68104A934248
:101CFC001AD1104B5A6B0F4B02210A435A630D4BEE
:101D0C005B6B02221340BB60BB683B1910221A604C
:101D1C003B1903225A603B1900229A603B19064A70
:101D2C001900100002F032FCC046BD4609B090BD4F
:101D3C0004020140001002400004005080B584B041
:101D4C0000AF78607B681B680A4A93420DD10A4B3E
:101D5C00DA6B094B802189050A43DA63064BDA6B8F
:101D6C0080239B051340FB60FB68C046BD4604B056
:101D7C0080BDC046007400400010024090B58BB08E
:101D8C0000AF786014243B19180014231A000021AA
:101D9C0007F084FF7B681B681C4A934231D11C4BB3
:101DAC005A6B1B4B01210A435A63194B5B6B012283
:101DBC0013403B613B693B19C02252011A60210060
:101DCC007B1812225A607B1800229A607B18002222
:101DDC00DA607B1806221A617A18A023DB05110041
:101DEC00180002F0D3FB0A4BDA6B094B8021C903B4
:101DFC000A43DA63064BDA6B8023DB031340FB6088
:101E0C00FB68C046BD460BB090BDC04600580040B4
:101E1C000010024090B591B000AF78600C243B19D3
:101E2C00180034231A00002107F038FF7B681B6868
:101E3C00114A93421CD13B19802292031A603B1920
:101E4C0000229A623B19180003F0A8FB031E01D074
:101E5C00FFF75CFE094B1A6C084B802109010A4301
:101E6C001A64064B1A6C80231B011340BB60BB68C1
:101E7C00C046BD4611B090BD002C01400010024080
:101E8C0090B58BB000AF786014243B191800142364
:101E9C001A00002107F002FF7B681B681A4A934264
:101EAC002DD11A4BDA6B194B02210A43DA63174B0B
:101EBC00DB6B022213403B613B69144B5A6B134B97
:101ECC0002210A435A63114B5B6B02221340FB60E5
:101EDC00FB6821007B1820221A607B1802225A60B2
:101EEC007B1800229A607B180022DA607B18012292
:101EFC001A617B18064A1900100002F047FBC04615
:101F0C00BD460BB090BDC04600040040001002401E
:101F1C000004005080B584B000AF78607B681B680B
:101F2C00174A93420CD1174BDA6B164B10210A430C
:101F3C00DA63144BDB6B10221340FB60FB681AE076
:101F4C007B681B68104A934215D10E4B1A6C0D4BD3
:101F5C00802189020A431A640A4B1A6C80239B0263
:101F6C001340BB60BB6800220021152001F080FDEE
:101F7C00152001F092FDC046BD4604B080BDC046A0
:101F8C0000100040001002400044014090B589B0A0
:101F9C0000AF78600C243B19180014231A000021A0
:101FAC0007F07CFE7B681B68154A934223D1154BC6
:101FBC005A6B144B01210A435A63124B5B6B01227F
:101FCC001340BB60BB683B19802252001A60210091
:101FDC007B1802225A607B1800229A607B1803221D
:101FEC00DA607B1802221A617A18A023DB05110033
:101FFC00180002F0CBFAC046BD4609B090BDC046F1
:10200C00002C01400010024090B597B000AF7860F2
:10201C004423FB18180014231A00002107F03EFE7D
:10202C0010243B19180034231A00002107F036FE47
:10203C007B681B68264A934246D13B1902221A60E0
:10204C003B1900229A603B19180003F0A7FA031EF3
:10205C0001D0FFF75BFD1F4BDA6B1E4B8021890211
:10206C000A43DA631B4BDA6B80239B021340FB6041
:10207C00FB68184B5A6B174B01210A435A63154BDB
:10208C005B6B01221340BB60BB6844217B180C22A4
:10209C001A607B1802225A607B1800229A607B1807
:1020AC000022DA607B1801221A617A18A023DB0562
:1020BC001100180002F06AFA002200211C2001F025
:1020CC00D7FC1C2001F0E9FCC046BD4617B090BD02
:1020DC00004400400010024080B500AFC046FDE750
:1020EC0080B500AFC046FDE780B500AFC046BD4629
:1020FC0080BD80B500AFC046BD4680BD80B500AF89
:10210C0000F09CF9C046BD4680BD000080B582B091
:10211C0000AF214B180002F0F7F800237B6017E0AA
:10212C001E4B7A685200D35A9BB21A0013005B0004
:10213C009B181B4A796849008A5A92B29B189B10CB
:10214C0099B2164B7A685200D1527B6801337B608E
:10215C00144B1B78DBB21A007B689342E0DB0F4B0D
:10216C001B889AB2104B1A800C4B5B889AB20F4B9F
:10217C001A800A4B9B889AB20D4B1A80074BDB884E
:10218C009AB20C4B1A80054B1B899AB20A4B1A80D7
:10219C00C046BD4602B080BDF00100207001002099
:1021AC0064010020000000207A0100207C01002046
:1021BC00800100207E0100208201002080B500AF4C
:1021CC00034B180000F004FDC046BD4680BDC04660
:1021DC008C01002080B500AF0B4B180004F00CF8FC
:1021EC00094B0421180004F023FC0200074B1A6071
:1021FC00054B0021180004F01BFC0200044B1A6074
:10220C00C046BD4680BDC04630030020840100207E
:10221C008801002080B500AF0F4B180003F0ECFFD5
:10222C000E4B180001F0D0FC0D4B01221A700D4B17
:10223C001B88092B06D90B4B00221A800A4B012252
:10224C001A7005E0074B1B8801339AB2054B1A80B4
:10225C00C046BD4680BDC0467C0300207C020020E9
:10226C0060010020180500206101002080B500AF3E
:10227C00034B180003F0C0FFC046BD4680BDC046EE
:10228C00C803002080B500AF034B180005F056FCC6
:10229C00C046BD4680BDC0461404002080B586B043
:1022AC0000AF7860144A154BD31A7B617B693B6194
:1022BC00134B1B68002B02D1114B124A1A60104BA6
:1022CC001A687B68D3183A699A4207D207F0EEFC79
:1022DC0003000C221A6001235B4209E0084B1B68C7
:1022EC00FB60074B1A687B68D218054B1A60FB68B9
:1022FC001800BD4606B080BD009000200004000010
:10230C001C0500207006002080B500AFC046BD46FD
:10231C0080BD00000D488546FFF7F6FF0C480D49BF
:10232C000D4A002302E0D458C4500433C4188C4224
:10233C00F9D30A4A0A4C002301E013600432A2428A
:10234C00FBD307F0B9FCFEF70DFCFEE70090002074
:10235C00000000204001002050A90008400100208E
:10236C006C060020FEE7000080B582B000AFFB1DBC
:10237C0000221A700B4B1A680A4B802149000A4341
:10238C001A60032000F010F8031E03D0FB1D01227D
:10239C001A7001E0FFF7CEFBFB1D1B781800BD4641
:1023AC0002B080BD0020024090B585B000AF7860CF
:1023BC000F23FB1800221A701D4B1B78002B2BD0FF
:1023CC001C4B1C681A4B1B781900FA239800FDF75C
:1023DC00A5FE030019002000FDF7A0FE0300180065
:1023EC0001F06BFB031E12D17B68032B0AD87968B2
:1023FC0001235B420022180001F03AFB0E4B7A6875
:10240C001A600DE00F23FB1801221A7008E00F234D
:10241C00FB1801221A7003E00F23FB1801221A701B
:10242C000F23FB181B781800BD4605B090BDC046A5
:10243C00EC000020E4000020E800002080B500AF94
:10244C00054B1B781A00054B1B68D218034B1A60FE
:10245C00C046BD4680BDC046EC00002020050020D3
:10246C0080B500AF024B1B681800BD4680BDC0464E
:10247C002005002080B584B000AF7860FFF7F0FF36
:10248C000300BB607B68FB60FB68013305D00A4B23
:10249C001B781A00FB689B18FB60C046FFF7E0FF37
:1024AC000200BB68D31AFA689A42F7D8C046C046F5
:1024BC00BD4604B080BDC046EC00002080B582B0A3
:1024CC0000AF786039607B681B68054A1A403B682E
:1024DC001A437B681A60C046BD4602B080BDC04638
:1024EC00FFFF3FFE80B582B000AF78607B681A6852
:1024FC00E0235B0413401800BD4602B080BD80B5DC
:10250C0084B000AFF860B9607A60FB685B69BA6848
:10251C0004210A40072191400A00D2431A40BB68AB
:10252C0004210B40796899400B001A43FB685A61EF
:10253C00C046BD4604B080BD80B582B000AF7860A7
:10254C0039607B685B693A6804210A400721914035
:10255C000A001A403B6804210B40DA4013001800B3
:10256C00BD4602B080BD80B582B000AF78607B689C
:10257C00DA68C0231B01134001D1012300E00023C2
:10258C001800BD4602B080BD80B584B000AFF860C5
:10259C00B9607A60FB689B6ABA681F210A400F21F8
:1025AC0091400A00D2431A407B689B0E0F211940C0
:1025BC00BB681F20034099400B001A43FB689A62CA
:1025CC00C046BD4604B080BD80B582B000AF786017
:1025DC0039607B689A6A3B685B035B0B1A437B68C8
:1025EC009A62C046BD4602B080BD80B582B000AFD5
:1025FC00786039607B689B6A3A685203520BD2430D
:10260C001A407B689A62C046BD4602B080BD80B558
:10261C0082B000AF78607B68DB680322134018003F
:10262C00BD4602B080BD000080B584B000AFF8603C
:10263C00B9607A60FB685B69BA681202D2431A40CF
:10264C00BB681B0279680B4004490B401A43FB68BA
:10265C005A61C046BD4604B080BDC04600FFFF07AE
:10266C0080B582B000AF78607B689B68054A1340E8
:10267C00802252051A437B689A60C046BD4602B060
:10268C0080BDC046E8FFFF6F80B582B000AF7860B8
:10269C007B689A6880235B051A4080235B059A420D
:1026AC0001D1012300E000231800BD4602B080BD1B
:1026BC0080B582B000AF78607B689B68044A134099
:1026CC0001221A437B689A60C046BD4602B080BDA9
:1026DC00E8FFFF7F80B582B000AF78607B689B68B5
:1026EC00044A134002221A437B689A60C046BD46D6
:1026FC0002B080BDE8FFFF7F80B582B000AF78608C
:10270C007B689B6801221340012B01D1012300E05F
:10271C0000231800BD4602B080BD000080B582B019
:10272C0000AF78607B689B68044A134004221A430C
:10273C007B689A60C046BD4602B080BDE8FFFF7F53
:10274C0080B582B000AF78607B689B680422134030
:10275C00042B01D1012300E000231800BD4602B078
:10276C0080BD000080B588B000AF78601F23FB18D7
:10277C0000221A700023BB6100237B610023FB60E5
:10278C007B68002B01D101237FE17B689B6D002BC3
:10279C000AD17B681800FFF7F1F97B680022DA6533
:1027AC007B685422002199547B681B681800FFF742
:1027BC006BFF031E15D17B681B681800FFF750FFD9
:1027CC00B44B1B68B4491800FDF7A8FC0300013397
:1027DC005B00FB6002E0FB68013BFB60FB68002BCD
:1027EC00F9D17B681B681800FFF74EFF031E0FD151
:1027FC007B689B6D10221A437B689A657B68DB6D46
:10280C0001221A437B68DA651F23FB1801221A7018
:10281C007B681B681800FFF793FF03003B617B6824
:10282C009B6D1022134000D022E13B69002B00D09D
:10283C001EE17B689B6D994A134002221A437B6808
:10284C009A657B681B681800FFF756FF031E00D0C3
:10285C00ADE07B689A687B681B7E9B031A437B68A0
:10286C005B7EDB031A437B689B7E5B031A437B68AE
:10287C001B6B002B02D080235B0100E000231A436A
:10288C007B68DB681A437B681B69002B04DA7B6866
:10289C001B695B005B0801E080239B031A437B6888
:1028AC002C215B5C5B001343BA691343BB617B68EF
:1028BC0020229B5C012B15D17B689B7E002B05D1C4
:1028CC00BB69802252021343BB610BE07B689B6D9A
:1028DC0020221A437B689A657B68DB6D01221A43C0
:1028EC007B68DA657B685B6A002B0AD07B685A6A66
:1028FC00E0235B001A407B689B6A1343BA6913435D
:10290C00BB617B681B68DB68654A134019007B68F8
:10291C001B68BA690A43DA607B685B689B0F9A078D
:10292C007B68DB6C13437A6913437B617B683C22C5
:10293C009B5C012B11D17B685B689B0F9A077B68B2
:10294C001B6C1A437B685B6C1A437B689B6C1A4349
:10295C007B691343012213437B617B681B681B69F2
:10296C00504A134019007B681B687A690A431A6144
:10297C007B685A68C0231B069A4218D07B685A6839
:10298C008023DB059A4212D07B685A6880231B0691
:10299C009A420CD0444B1B68444A134019007B6884
:1029AC005A68F0239B031A403F4B0A431A607B681A
:1029BC0018687B685B6B1A000021FFF7A0FD7B6831
:1029CC0018687B689B6B3A491A00FFF798FD7B6887
:1029DC001B69002B09D17B681B689A6A7B681B6892
:1029EC00102149420A439A6218E07B681A698023D5
:1029FC009B039A4212D17B681B689B6A7B68DB69DC
:102A0C00013B9B001C221340102252429A401100A1
:102A1C007B681A6E7B681B680A439A627B681B682A
:102A2C0000211800FFF788FD02007B685B6B9A425F
:102A3C000BD17B680022DA657B689B6D0322934384
:102A4C0001221A437B689A651CE07B689B6D1222FD
:102A5C00934310221A437B689A657B68DB6D0122D5
:102A6C001A437B68DA651F23FB1801221A7009E0F0
:102A7C007B689B6D10221A437B689A651F23FB1899
:102A8C0001221A701F23FB181B781800BD4608B0D2
:102A9C0080BDC046E4000020400D0300FDFEFFFF9A
:102AAC000102DEFF02FCFF1F08270140FFFFC3FFEE
:102ABC0004FFFF07B0B586B000AFF860B9607A606C
:102ACC00FB681B681800FFF73BFE031E6CD1FB680C
:102ADC0054229B5C012B01D102236CE0FB68542235
:102AEC0001219954FB681B68DB680122134013D148
:102AFC00FB681B681800FFF7FFFD031E04D0FB6882
:102B0C001B681800FFF7E6FDFB681B68DA68FB68BA
:102B1C001B6801210A43DA6017257C19FB68180031
:102B2C0000F066FB030023702C003B191B78002B74
:102B3C003ED1FB689B6D224A1340802252001A43FF
:102B4C00FB689A65FB680022DA65FB681B6D1D4A01
:102B5C00DA62FB681B6D1C4A1A63FB681B6D1B4A0F
:102B6C005A63FB681B681C221A60FB685422002104
:102B7C009954FB681B685A68FB681B6810210A4350
:102B8C005A60FB68186DFB681B6840331900BA6803
:102B9C003C197B6801F066FA03002370FB681B6824
:102BAC001800FFF7BBFD03E01723FB1802221A7075
:102BBC001723FB181B781800BD4606B0B0BDC046E5
:102BCC00FEF0FFFF09330008D1330008EF33000893
:102BDC0080B586B000AF786000237B617B681B6892
:102BEC001B683B617B681B685B68FB603B6902226E
:102BFC00134017D0FB680222134013D07B689B6DE7
:102C0C001022134006D17B689B6D802212011A435F
:102C1C007B689A657B68180000F00EFC7B681B686B
:102C2C0002221A603B690422134003D0FB68042281
:102C3C00134007D13B69082213404DD0FB68082292
:102C4C00134049D07B689B6D1022134006D17B68E2
:102C5C009B6D802292001A437B689A657B681B6887
:102C6C001800FFF780FC031E2ED07B689B7E002B88
:102C7C002AD17B681B681B6808221340082B23D1C0
:102C8C007B681B681800FFF75BFD031E10D17B6887
:102C9C001B685A687B681B680C218A435A607B68E6
:102CAC009B6D564A134001221A437B689A650BE0D0
:102CBC007B689B6D20221A437B689A657B68DB6D71
:102CCC0001221A437B68DA657B68180000F098F8DB
:102CDC007B681B680C221A603B698022134012D05F
:102CEC00FB68802213400ED07B689B6D80225202C1
:102CFC001A437B689A657B68180000F091F87B6832
:102D0C001B6880221A603A6980235B00134014D040
:102D1C00FA6880235B0013400FD07B689B6D802288
:102D2C0092021A437B689A657B68180000F074FB6A
:102D3C007B681B68802252001A603A6980239B00D2
:102D4C00134014D0FA6880239B0013400FD07B688B
:102D5C009B6D8022D2021A437B689A657B681800AF
:102D6C0000F062FB7B681B68802292001A603B6952
:102D7C00102213402BD0FB681022134027D07B6805
:102D8C001B6B002B02D101237B6108E07B681B6865
:102D9C001800FFF73CFC031E01D001237B617B690B
:102DAC00012B10D17B689B6D8022D2001A437B686B
:102DBC009A657B68DB6D02221A437B68DA657B6857
:102DCC00180000F035F87B681B6810221A603A690D
:102DDC0080239B0113400DD0FA6880239B01134084
:102DEC0008D07B68180000F02FFB7B681B688022E2
:102DFC0092011A60C046BD4606B080BDFEFEFFFFC4
:102E0C0080B582B000AF7860C046BD4602B080BDD0
:102E1C0080B582B000AF7860C046BD4602B080BDC0
:102E2C0080B582B000AF7860C046BD4602B080BDB0
:102E3C0080B582B000AF7860C046BD4602B080BDA0
:102E4C0080B586B000AF786039601723FB1800227C
:102E5C001A700023FB607B6854229B5C012B01D110
:102E6C000223C0E17B685422012199547B681B68C2
:102E7C001800FFF765FC031E00D0A3E13B685B68FC
:102E8C00022B00D143E17B681A6980231B069A420E
:102E9C0004D07B681B69C14A934208D17B681A68CD
:102EAC003B681B6819001000FFF78EFBC9E07B68BC
:102EBC001A6E3B685B681F210B400F2199400B0079
:102ECC00DB43134019003B681B685B035B0B05D1AC
:102EDC003B681B689B0E1F22134098E03B681B68E5
:102EEC000122134000D091E03B681B680222134082
:102EFC0000D089E03B681B680422134000D081E0BD
:102F0C003B681B680822134000D079E03B681B68C3
:102F1C001022134000D071E03B681B682022134044
:102F2C0000D069E03B681B684022134000D061E090
:102F3C003B681B688022134000D059E03B681A683C
:102F4C0080235B00134051D13B681A6880239B009F
:102F5C00134049D13B681A688023DB00134041D1F0
:102F6C003B681A6880231B01134039D13B681A68EF
:102F7C0080235B01134031D13B681A6880239B018D
:102F8C00134029D13B681A688023DB01134021D1FF
:102F9C003B681A6880231B02134019D13B681A68DE
:102FAC0080235B02134011D13B681A6880239B027B
:102FBC00134009D13B681A688023DB02134001D00F
:102FCC00122324E0002322E0112320E010231EE032
:102FDC000F231CE00E231AE00D2318E00C2316E03F
:102FEC000B2314E00A2312E0092310E008230EE05F
:102FFC0007230CE006230AE0052308E0042306E07F
:10300C00032304E0022302E0012300E000233A68DA
:10301C0052681F20024093400A001A437B681A66CC
:10302C003B685B689B085A1C7B68DB699A4208D832
:10303C007B6818683B6859683B681B681A00FFF787
:10304C00A3FA7B6818683B6819683B689B681A0090
:10305C00FFF7EAFA3B681B68002B00DBBCE0504B27
:10306C001800FFF73FFA03003B613B681B684D4AB1
:10307C00934222D13A6980231B0413401DD13B6932
:10308C00802212041343464A19001000FFF716FA67
:10309C00454B1B6845491800FDF740F803005A1CC6
:1030AC0013005B009B189B00FB6002E0FB68013B7C
:1030BC00FB60FB68002BF9D18EE03B681B683C4A37
:1030CC0093420ED13A6980235B04134009D13B69CA
:1030DC00802252041343324A19001000FFF7EEF914
:1030EC007AE03B681B68334A934200D074E03A693B
:1030FC008023DB03134000D06EE03B698022D203B7
:10310C001343274A19001000FFF7D8F964E07B68D5
:10311C001A6980231B069A4204D07B681B691F4ADC
:10312C00934207D17B681A683B681B681900100032
:10313C00FFF75BFA3B681B68002B4DDA184B180045
:10314C00FFF7D0F903003B613B681B68154A9342BB
:10315C0008D13B69184A1340114A19001000FFF7B7
:10316C00ADF939E03B681B68114A934208D13B69C1
:10317C00124A13400A4A19001000FFF79FF92BE07E
:10318C003B681B680B4A934226D13B690C4A13409F
:10319C00034A19001000FFF791F91DE004000080AC
:1031AC0008270140001000B0E4000020400D03008F
:1031BC00004000B8002000B4FFFF7FFFFFFFFFFEC0
:1031CC00FFFFBFFF7B689B6D20221A437B689A65CB
:1031DC001723FB1801221A707B6854220021995482
:1031EC001723FB181B781800BD4606B080BDC046DF
:1031FC0080B584B000AF78600023BB607B681B682F
:10320C001800FFF779FA031E00D069E07B681B6891
:10321C009B68364A13400DD07B689B6D10221A4375
:10322C007B689A657B68DB6D01221A437B68DA65E3
:10323C00012356E07B681B681800FFF739FA2C4B0A
:10324C001800FFF74FF9020080231B0413400FD026
:10325C00284B1B6828491800FCF760FF030001335A
:10326C00BB6002E0BB68013BBB60BB68002BF9D1C3
:10327C007B685B7E012B33D0FFF7F2F80300FB6019
:10328C0027E07B681B681800FFF736FA031E04D191
:10329C007B681B681800FFF70BFAFFF7E1F80200D8
:1032AC00FB68D31A022B14D97B681B681B6801229C
:1032BC001340012B0DD07B689B6D10221A437B6849
:1032CC009A657B68DB6D01221A437B68DA65012302
:1032DC0007E07B681B681B6801221340012BD0D1CF
:1032EC0000231800BD4604B080BDC0461700008006
:1032FC0008270140E4000020400D030080B584B095
:10330C0000AF78607B689B6AFB60FB689B6D50220A
:10331C00134041D1FB689B6D802292001A43FB68DD
:10332C009A65FB681B681800FFF71DF9031E2ED069
:10333C00FB689B7E002B2AD1FB681B681B6808224C
:10334C001340082B23D1FB681B681800FFF7F8F912
:10335C00031E10D1FB681B685A68FB681B680C21A4
:10336C008A435A60FB689B6D154A134001221A432D
:10337C00FB689A650BE0FB689B6D20221A43FB6887
:10338C009A65FB68DB6D01221A43FB68DA65FB6802
:10339C001800FFF735FD0FE0FB689B6D1022134002
:1033AC0004D0FB681800FFF743FD05E0FB681B6DBC
:1033BC005B6B7A6810009847C046BD4604B080BD70
:1033CC00FEFEFFFF80B584B000AF78607B689B6A1F
:1033DC00FB60FB681800FFF71BFDC046BD4604B040
:1033EC0080BD80B584B000AF78607B689B6AFB6061
:1033FC00FB689B6D40221A43FB689A65FB68DB6D8A
:10340C0004221A43FB68DA65FB681800FFF710FD0D
:10341C00C046BD4604B080BD80B582B000AF7860B8
:10342C00C046BD4602B080BD80B582B000AF7860AA
:10343C00C046BD4602B080BD80B582B000AF78609A
:10344C00C046BD4602B080BD80B582B000AF78608A
:10345C00C046BD4602B080BD80B582B000AF78607A
:10346C00054A8023D25804497B68134380228B5031
:10347C00C046BD4602B080BD0018024080B582B087
:10348C0000AF7860064A8023D3587A68D243044947
:10349C00134080228B50C046BD4602B080BDC04652
:1034AC000018024080B582B000AF7860054A8423D2
:1034BC00D25804497B68134384228B50C046BD46C6
:1034CC0002B080BD0018024080B582B000AF7860B9
:1034DC00064A8423D3587A68D24304491340842281
:1034EC008B50C046BD4602B080BDC046001802409D
:1034FC0080B582B000AF7860044B1968034B7A68D2
:10350C000A431A60C046BD4602B080BD0018024096
:10351C0080B582B000AF7860054B1A687B68D943E0
:10352C00034B0A401A60C046BD4602B080BDC0467F
:10353C000018024080B582B000AF7860044B596827
:10354C00034B7A680A435A60C046BD4602B080BD40
:10355C000018024080B582B000AF7860054B5A6805
:10356C007B68D943034B0A405A60C046BD4602B043
:10357C0080BDC0460018024080B582B000AF7860B4
:10358C00034B7A681A61C046BD4602B080BDC04686
:10359C000018024080B582B000AF7860034B7A68A7
:1035AC00DA60C046BD4602B080BDC046001802407D
:1035BC0080B588B000AF78600023FB601F217B18BA
:1035CC0000221A707B68002B03D17B1801221A7021
:1035DC003DE17B681B681B68DB0FDA0780231B0649
:1035EC009A4204D11F23FB1801221A702FE17B6829
:1035FC0029229B5CDBB2002B0AD17B68282200219C
:10360C0099547B680022DA627B681800FEF760FB35
:10361C007B681B681B6830221340BB617B685A694E
:10362C007B681B691A437B681B6A1A437B689B691E
:10363C001A437B68DB691A437B68DB6813437B6145
:10364C007B681B681B68854A134019007B681B68E4
:10365C007A690A431A607B685A6880231B019A4274
:10366C000DD17F4B1A687E4B7E490A401A607C4B09
:10367C005A687B4B802109010A435A601FE07B6822
:10368C005A68C0235B019A420DD1754B1A68744B72
:10369C00802109010A431A60714B5A68704B7149B9
:1036AC000A405A600BE06E4B1A686D4B6D490A402C
:1036BC001A606B4B5A686A4B6A490A405A607B68BD
:1036CC009B68A022D201934217D0A022D201934230
:1036DC0030D8012B1FD08022D20193422AD1604BCB
:1036EC001A685F4B8021C9010A431A605C4B5A6807
:1036FC005B4B5D490A405A6029E0594B1A68584B9C
:10370C0059490A401A60564B5A68554B8021C901D9
:10371C000A435A601BE0524B1A68514B8021C90175
:10372C000A431A604E4B5A684D4B8021C9010A431B
:10373C005A600CE04A4B1A68494B4B490A401A60D4
:10374C00474B5A68464B48490A405A60C0467B680A
:10375C001B681B683022134016D0BB69002B13D199
:10376C00424B1B6842491800FCF7D8FC03005A1C5A
:10377C0013009B009B189B00FB6002E0FB68013B65
:10378C00FB60FB68002BF9D17B681B68344A9342C1
:10379C0002D180239B0201E08023DB023B617B682A
:1037AC005B6A0322134040D07B685B6A1022134093
:1037BC0004D03B691800FFF79BFE03E03B6918003F
:1037CC00FFF7A6FE7B685B6A2022134004D03B699E
:1037DC001800FFF7AFFE03E03B691800FFF7BAFED5
:1037EC003B691800FFF7D6FE3B691800FFF7C4FED3
:1037FC007B685B6A0222134004D03B691800FFF718
:10380C0051FE03E03B691800FFF75EFE7B685B6AC4
:10381C000122134004D03B691800FFF71DFE0CE099
:10382C003B691800FFF72AFE07E03B691800FFF719
:10383C004BFE3B691800FFF721FE7B6829229B5C3D
:10384C00DBB2002B03D17B682922012199541F2361
:10385C00FB181B781800BD4608B080BD0F7400FE25
:10386C0000020140FFF7FFFFFFBFFFFFE400002055
:10387C00400D030080B584B000AF78600023BB60BE
:10388C000F217B1800221A707B68002B03D17B1848
:10389C0001221A7035E07B681B681B68DB0FDA07A6
:1038AC0080231B069A4204D10F23FB1801221A70A5
:1038BC0027E07B6829229B5CDBB2012B1DD17B6846
:1038CC001B681A687B681B6801210A431A607B68B5
:1038DC002922022199540E4B1B680E491800FCF743
:1038EC001DFC03000133DB00BB6002E0BB68013B45
:1038FC00BB60BB68002BF9D103E00F23FB1801223E
:10390C001A700F23FB181B781800BD4604B080BD3D
:10391C00E4000020400D030080B582B000AF02002F
:10392C00FB1D1A70FB1D1B787F2B09D8FB1D1B7808
:10393C001A001F231A40044B012191400A001A60FF
:10394C00C046BD4602B080BD00E100E090B583B03A
:10395C0000AF02003960FB1D1A70FB1D1B787F2B1A
:10396C0028D82F4AFB1D1B785BB29B08C0339B00E9
:10397C009B58FA1D1278110003220A40D200FF2135
:10398C0091400A00D2431A4011003B689B01FF2270
:10399C001A40FB1D1B78180003230340DB009A40E0
:1039AC001F48FB1D1B785BB29B080A43C0339B006E
:1039BC001A5031E01B4AFB1D1B7819000F230B40DA
:1039CC00083B9B0806339B00D31804331B68FA1D75
:1039DC001278110003220A40D200FF2191400A0004
:1039EC00D2431A4011003B689B01FF221A40FB1D79
:1039FC001B78180003230340DB009A400948FB1D89
:103A0C001B781C000F232340083B9B080A430633FA
:103A1C009B00C31804331A60C046BD4603B090BD6A
:103A2C0000E100E000ED00E080B582B000AF78600E
:103A3C007B685A1E80235B049A4201D3012310E059
:103A4C000A4B7A68013A5A6001235B420321180041
:103A5C00FFF77CFF054B00229A60044B07221A608B
:103A6C0000231800BD4602B080BDC04610E000E047
:103A7C0080B584B000AFB9607A600F217B18021C4E
:103A8C001A70BA687B181B785BB211001800FFF72C
:103A9C005DFFC046BD4604B080BD80B582B000AFAE
:103AAC000200FB1D1A70FB1D1B785BB21800FFF7A0
:103ABC0033FFC046BD4602B080BD80B582B000AFBA
:103ACC0078607B681800FFF7AFFF03001800BD4655
:103ADC0002B080BD80B582B000AF78607B68002BEF
:103AEC0001D1012315E07B681B79DBB2002B06D1D9
:103AFC007B6800225A717B681800FEF71FF97B68FF
:103B0C0002221A717B6800221A617B6801221A71E9
:103B1C0000231800BD4602B080BD80B582B000AF56
:103B2C00786039607B68002B01D1012347E07B680A
:103B3C005B79012B01D1022341E07B6801225A7190
:103B4C007B6802221A717B681B6819683B6810221B
:103B5C00134001229A407B681B680A431A603B6839
:103B6C00002B0FD17B681B681B683E221340022B75
:103B7C001ED17B681B685A687B681B6801210A434D
:103B8C005A6015E07B681B681A68F8239B031A407F
:103B9C003B6810210B40022199400B009A4207D13F
:103BAC007B681B685A687B681B6802210A435A6051
:103BBC007B6801221A717B6800225A71002318005D
:103BCC00BD4602B080BD000080B584B000AF786007
:103BDC007B681B681B68FB607B681B685B6BBB604E
:103BEC00FA6880239B0113401ED0BA6880239B0186
:103BFC00134019D07B6804221A717B681B6901225F
:103C0C001A437B681A617B681B68802292015A6395
:103C1C007B681B681A687B681B6817490A401A6026
:103C2C007B68180000F053F8FA6880239B0513405A
:103C3C001ED0BA6880239B05134019D07B680422E0
:103C4C001A717B681B6902221A437B681A617B68B4
:103C5C001B68802292055A637B681B681A687B6814
:103C6C001B6806490A401A607B68180000F068F966
:103C7C00C046BD4604B080BDFFEFFFFFFFFFFFEF66
:103C8C0080B586B000AFF860B9607A603B60002305
:103C9C007B61FB68002B01D1012314E0FB681B68DE
:103CAC007B61BB68002B05D17A697B68D31808331C
:103CBC007B6104E07A697B68D31814337B617B6980
:103CCC003A681A6000231800BD4606B080BD80B566
:103CDC0082B000AF7860C046BD4602B080BD000027
:103CEC0080B588B000AFF860B9607A601F23FB180C
:103CFC0000221A70FB68002B02D0BB68002B01D18C
:103D0C00012315E1FB685B79012B01D102230FE143
:103D1C00FB6801225A71FB6802221A71BB681B688E
:103D2C00042B00D07AE0FEF79BFB0300BB617B68A1
:103D3C00002B3DD118E0FEF793FB0200BB69D31AB0
:103D4C00012B11D9FB681B685A6B80231B02134093
:103D5C000AD0FB681B6908221A43FB681A61FB68CE
:103D6C0003221A710323E3E0FB681B685A6B802360
:103D7C001B021340DFD1FB681B68BA6892691A6496
:103D8C0020E0FEF76DFB0200BB69D31A012B0FD9A3
:103D9C00FB681B685B6B002B0ADAFB681B6908224B
:103DAC001A43FB681A61FB6803221A710323BFE0F4
:103DBC00FB681B685B6B002BE3DBFB681B68BA685A
:103DCC0092695A64FB681B689B6C7A6810210A40E4
:103DDC00594991400A00D2431A401100BB68DA6974
:103DEC007B68102003409A40FB681B680A439A6466
:103DFC00FB681B68DB6C7A6810210A40FF2191403C
:103E0C000A00D2431A401100BB681A6A7B68102062
:103E1C0003409A40FB681B680A43DA64BB681B6961
:103E2C00012B1DD1FB681B689B6B7B617B6810228F
:103E3C0013401F229A401300DA437B6913407B61C5
:103E4C00BB685B693B617B68102213403A699A40FE
:103E5C0013007A6913437B61FB681B687A699A6368
:103E6C00FB681B68DB6B7B617B68102213400722AD
:103E7C009A401300DA437B6913407B61BB681A6874
:103E8C00BB689B681A43BB68DB6813433B617B6868
:103E9C00102213403A699A4013007A6913437B61EC
:103EAC00FB681B687A69DA63FB681B681A687B68B5
:103EBC0010210B408021C90199400B00D943FB68AC
:103ECC001B680A401A60FB681B681B687B617B6877
:103EDC0010221340194A9A401300DA437B691340AD
:103EEC007B61BB685B683B617B68102213403A695D
:103EFC009A4013007A6913437B61FB681B687A69EB
:103F0C001A60FB681B681A687B6810210B40C02183
:103F1C0099400B00D943FB681B680A401A60FB6888
:103F2C0001221A71FB6800225A711F23FB181B789F
:103F3C001800BD4608B080BDFF030000FE0F000056
:103F4C0080B582B000AF7860C046BD4602B080BD7F
:103F5C0080B582B000AF78607B68002B01D1012363
:103F6C0077E07B681B683D4A944663441421180033
:103F7C00FCF7D4F803009A007B681A647B6825224E
:103F8C00022199547B681B681A687B681B6834494A
:103F9C000A401A607B681B6819687B689A687B68A2
:103FAC00DB681A437B681B691A437B685B691A439D
:103FBC007B689B691A437B68DB691A437B681B6AC5
:103FCC001A437B681B680A431A607B68180000F070
:103FDC008DFA7B689A688023DB019A4202D17B6858
:103FEC0000225A607B685A687B685B6C3F210A40F0
:103FFC001A607B689B6C7A68D26C5A607B685B68D1
:10400C00002B11D07B685B68042B0DD87B681800E3
:10401C0000F098FA7B681B6D00221A607B685B6D60
:10402C007A68926D5A6008E07B6800221A657B689A
:10403C0000225A657B6800229A657B680022DA634D
:10404C007B682522012199547B68242200219954F4
:10405C0000231800BD4602B080BDC046F8FFFDBF6E
:10406C000F80FFFF80B586B000AFF860B9607A6052
:10407C003B601723FB1800221A70FB6824229B5C00
:10408C00012B01D102236FE0FB68242201219954FA
:10409C00FB6825229B5CDBB2012B57D1FB682522E8
:1040AC0002219954FB680022DA63FB681B681A68CA
:1040BC00FB681B6801218A431A603B687A68B968FF
:1040CC00F86800F0D3F9FB681B6B002B08D0FB6879
:1040DC001B681A68FB681B680E210A431A600FE004
:1040EC00FB681B681A68FB681B6804218A431A600A
:1040FC00FB681B681A68FB681B680A210A431A6074
:10410C00FB685B6C1A6880235B02134008D0FB6869
:10411C005B6C1A68FB685B6C802149000A431A606F
:10412C00FB681B6D002B08D0FB681B6D1A68FB68C5
:10413C001B6D802149000A431A60FB681B681A68D2
:10414C00FB681B6801210A431A600AE0FB688022A5
:10415C00DA63FB682422002199541723FB180122EF
:10416C001A701723FB181B781800BD4606B080BDCB
:10417C0080B582B000AF78607B68002B01D1012341
:10418C0050E07B6825229B5CDBB2022B08D07B685D
:10419C000422DA637B68242200219954012341E034
:1041AC007B681B681A687B681B680E218A431A603F
:1041BC007B685B6C1A687B685B6C1C490A401A60F4
:1041CC007B681B681A687B681B6801218A431A602C
:1041DC00174B59687B681B6C1C22134001229A40B8
:1041EC00134B0A435A607B689B6C7A68D26C5A609A
:1041FC007B681B6D002B0CD07B681B6D1A687B6871
:10420C001B6D0A490A401A607B685B6D7A68926D77
:10421C005A607B682522012199547B682422002155
:10422C00995400231800BD4602B080BDFFFEFFFF6D
:10423C000000024080B584B000AF78600F217B187D
:10424C0000221A707B6825229B5CDBB2022B06D005
:10425C007B680422DA637B1801221A7049E07B68C0
:10426C001B681A687B681B680E218A431A607B687E
:10427C001B681A687B681B6801218A431A607B687B
:10428C005B6C1A687B685B6C1D490A401A601D4B9D
:10429C0059687B681B6C1C22134001229A40194BF5
:1042AC000A435A607B689B6C7A68D26C5A607B6854
:1042BC001B6D002B0CD07B681B6D1A687B681B6D0B
:1042CC000F490A401A607B685B6D7A68926D5A6080
:1042DC007B682522012199547B6824220021995462
:1042EC007B689B6B002B04D07B689B6B7A681000FF
:1042FC0098470F23FB181B781800BD4604B080BDEF
:10430C00FFFEFFFF0000024080B584B000AF786074
:10431C00554B1B68FB607B681B681B68BB607B682C
:10432C001B6C1C22134004229A401300FA681340A1
:10433C0027D0BB680422134023D07B681B681B6802
:10434C002022134007D17B681B681A687B681B68A6
:10435C0004218A431A60444B59687B681B6C1C22ED
:10436C00134004229A40404B0A435A607B681B6BF3
:10437C00002B00D173E07B681B6B7A6810009847A8
:10438C006DE07B681B6C1C22134002229A401300C8
:10439C00FA6813402ED0BB68022213402AD07B68E7
:1043AC001B681B68202213400BD17B681B681A68A2
:1043BC007B681B680A218A431A607B6825220121CD
:1043CC009954294B59687B681B6C1C2213400222A0
:1043DC009A40254B0A435A607B6824220021995449
:1043EC007B68DB6A002B3AD07B68DB6A7A6810004A
:1043FC00984734E07B681B6C1C22134008229A40BF
:10440C001300FA6813402BD0BB680822134027D046
:10441C007B681B681A687B681B680E218A431A60CC
:10442C00114B59687B681B6C1C22134001229A406B
:10443C000D4B0A435A607B680122DA637B682522A4
:10444C00012199547B682422002199547B685B6B71
:10445C00002B05D07B685B6B7A6810009847C046D0
:10446C00C046BD4604B080BD0000024080B584B09B
:10447C0000AFF860B9607A603B60FB689B6CFA68CF
:10448C00D26C5A60FB681B6D002B04D0FB685B6D13
:10449C00FA68926D5A60144B5968FB681B6C1C22AD
:1044AC00134001229A40104B0A435A60FB681B6868
:1044BC003A685A60FB689B68102B08D1FB681B6834
:1044CC007A689A60FB681B68BA68DA6007E0FB6878
:1044DC001B68BA689A60FB681B687A68DA60C04629
:1044EC00BD4604B080BDC0460000024080B584B01B
:1044FC0000AF78607B681B6C9B08104A9446634441
:10450C009B001A007B685A647B681B681A00FF23A7
:10451C001340083B14211800FBF700FE0300FB605E
:10452C007B68074A9A64FB681F22134001229A4059
:10453C007B68DA64C046BD4604B080BD00820010C2
:10454C008008024080B584B000AF78607B685B68FF
:10455C003F221340FB60FB680A4A944663449B006D
:10456C001A007B681A657B68074A5A65FB68013B31
:10457C000322134001229A407B689A65C046BD46CF
:10458C0004B080BD3F8200104009024080B586B067
:10459C0000AF7860396000237B6147E13B681B68A2
:1045AC0001217A6991400A001340FB60FB68002BE3
:1045BC0000D138E13B685B6803221340012B05D026
:1045CC003B685B6803221340022B30D17B689B68ED
:1045DC003B617B695B0003229A401300DA433B6921
:1045EC0013403B613B68DA687B695B009A401300BF
:1045FC003A6913433B617B683A699A607B685B68F4
:10460C003B6101227B699A401300DA433B691340FA
:10461C003B613B685B681B0901221A407B699A402D
:10462C0013003A6913433B617B683A695A603B68F3
:10463C005B6803221340032B17D07B68DB683B615C
:10464C007B695B0003229A401300DA433B691340F9
:10465C003B613B689A687B695B009A4013003A693E
:10466C0013433B617B683A69DA603B685B68032201
:10467C001340022B23D17B69DA087B680832920045
:10468C00D3583B617B69072213409B000F229A4051
:10469C001300DA433B6913403B613B681A697B6941
:1046AC0007210B409B009A4013003A6913433B616E
:1046BC007B69DA087B68083292003969D1507B68D3
:1046CC001B683B617B695B0003229A401300DA4351
:1046DC003B6913403B613B685B6803221A407B6972
:1046EC005B009A4013003A6913433B617B683A695B
:1046FC001A603B685A68C0239B02134000D192E0B9
:10470C00504A7B699B0818339B009B583B617B6923
:10471C0003221340DB000F229A401300DA433B695B
:10472C0013403B617A68A023DB059A4213D07B6867
:10473C00454A93420DD07B68444A934207D07B682C
:10474C00434A934201D1032306E0052304E00223EC
:10475C0002E0012300E000237A6903210A40D20021
:10476C0093403A6913433B6136497B699B08183384
:10477C009B003A695A50334B1B683B61FB68DA4328
:10478C003B6913403B613B685A6880235B031340D1
:10479C0003D03A69FB6813433B612A4B3A691A60B0
:1047AC00284B5B683B61FB68DA433B6913403B6118
:1047BC003B685A6880239B03134003D03A69FB681B
:1047CC0013433B611F4B3A695A601E4A8423D358EA
:1047DC003B61FB68DA433B6913403B613B685A68B9
:1047EC0080239B02134003D03A69FB6813433B615F
:1047FC00144984223B698B50124A8023D3583B6165
:10480C00FB68DA433B6913403B613B685A68802381
:10481C005B02134003D03A69FB6813433B610949BF
:10482C0080223B698B507B6901337B613B681A6842
:10483C007B69DA40131E00D0B0E6C046C046BD46C8
:10484C0006B080BD00180240000400500008005063
:10485C00000C005080B584B000AF78600A00BB1C1F
:10486C001A807B681B69BA1C1288134004D00F2372
:10487C00FB1801221A7003E00F23FB1800221A7098
:10488C000F23FB181B781800BD4604B080BD80B503
:10489C0082B000AF786008001100BB1C021C1A80AB
:1048AC007B1C0A1C1A707B1C1B78002B04D0BB1CB5
:1048BC001A887B689A6103E0BB1C1A887B689A6231
:1048CC00C046BD4602B080BD80B584B000AF7860F4
:1048DC000A00BB1C1A807B685B69FB60BB1C1B88D5
:1048EC00FA6813401A04FB68DB43B91C09880B40B7
:1048FC001A437B689A61C046BD4604B080BD000077
:10490C0080B582B000AF78607B68002B01D10123A9
:10491C008FE07B6841229B5CDBB2002B07D17B686C
:10492C004022002199547B681800FDF727FA7B6818
:10493C004122242199547B681B681A687B681B6888
:10494C0001218A431A607B685A687B681B683B4963
:10495C000A401A617B681B689A687B681B68384937
:10496C000A409A607B68DB68012B08D17B689A68E7
:10497C007B681B68802109020A439A6007E07B6808
:10498C009A687B681B68842109020A439A607B68D9
:10499C00DB68022B09D17B681B685A687B681B6833
:1049AC00802109010A435A6007E07B681B685A683A
:1049BC007B681B6823490A405A607B681B685A68ED
:1049CC007B681B6820490A435A607B681B68DA685D
:1049DC007B681B681A490A40DA607B681A697B6835
:1049EC005B691A4311007B689B691A027B681B6820
:1049FC000A43DA607B68D9697B681A6A7B681B6832
:104A0C000A431A607B681B681A687B681B68012163
:104A1C000A431A607B6800225A647B684122202179
:104A2C0099547B6800221A637B68422200219954B6
:104A3C0000231800BD4602B080BDC046FFFFFFF04A
:104A4C00FF7FFFFFFFF7FFFF0080000280B582B001
:104A5C0000AF786039607B6841229B5CDBB2202B15
:104A6C0038D17B6840229B5C012B01D1022332E0C0
:104A7C007B684022012199547B684122242199545E
:104A8C007B681B681A687B681B6801218A431A6063
:104A9C007B681B681A687B681B6811490A401A609E
:104AAC007B681B6819687B681B683A680A431A6044
:104ABC007B681B681A687B681B6801210A431A60B3
:104ACC007B684122202199547B6840220021995413
:104ADC00002300E002231800BD4602B080BDC04692
:104AEC00FFEFFFFF80B584B000AF786039607B6862
:104AFC0041229B5CDBB2202B39D17B6840229B5C32
:104B0C00012B01D1022333E07B684022012199540F
:104B1C007B684122242199547B681B681A687B6846
:104B2C001B6801218A431A607B681B681B68FB6049
:104B3C00FB68114A1340FB603B681B02FA68134385
:104B4C00FB607B681B68FA681A607B681B681A68D4
:104B5C007B681B6801210A431A607B684122202173
:104B6C0099547B68402200219954002300E00223D1
:104B7C001800BD4604B080BDFFF0FFFF80B584B0C7
:104B8C0000AF7860194B1B68194A13401900174B7A
:104B9C007A680A431A607A6880239B009A421FD174
:104BAC00144B1A6813005B009B185B001249180029
:104BBC00FBF7B4FA03000133FB6008E0FB68002B41
:104BCC0003D0FB68013BFB6001E0032309E0074BCA
:104BDC005A698023DB001A408023DB009A42EDD017
:104BEC0000231800BD4604B080BDC04600700040D4
:104BFC00FFF9FFFFE400002040420F0080B500AF3A
:104C0C00034B9A68E023DB0113401800BD4680BDBE
:104C1C000010024080B588B000AF78607B68002B34
:104C2C0001D10123FEE27B681B680122134000D1F5
:104C3C007CE0C34B9B6838221340BB61C04BDB68E4
:104C4C00032213407B61BB69102B02D17B69032BC0
:104C5C0002D0BB69082B0BD1B94B1A6880239B027D
:104C6C00134062D07B685B68002B5ED10123D9E2D4
:104C7C007B685A6880235B029A4207D1B04B1A6852
:104C8C00AF4B802149020A431A6020E07B685A68C6
:104C9C00A023DB029A420ED1A94B1A68A84B8021A3
:104CAC00C9020A431A60A64B1A68A54B8021490217
:104CBC000A431A600BE0A24B1A68A14BA1490A40A7
:104CCC001A609F4B1A689E4B9F490A401A607B687A
:104CDC005B68002B14D0FDF7C3FB03003B6108E0BD
:104CEC00FDF7BEFB02003B69D31A642B01D90323E9
:104CFC0098E2934B1A6880239B021340F0D015E086
:104D0C00FDF7AEFB03003B6108E0FDF7A9FB0200D9
:104D1C003B69D31A642B01D9032383E2884B1A68AD
:104D2C0080239B021340F0D100E0C0467B681B68D7
:104D3C000222134000D199E0814B9B68382213402A
:104D4C00BB617F4BDB68032213407B61BB69102B7B
:104D5C0002D17B69022B02D0BB69002B35D1784B79
:104D6C001A688023DB00134005D07B68DB68002BBE
:104D7C0001D1012356E2724B5B68744A134019004F
:104D8C007B685B691A026E4B0A435A60BB69002B45
:104D9C0012D16B4B1B686E4A134019007B681A6961
:104DAC00674B0A431A60664B1B68DB0A07221340E9
:104DBC00684ADA40684B1A60684B1B681800FDF7AC
:104DCC00F3FA031E51D001232CE27B68DB68002B25
:104DDC0030D05B4B1B685E4A134019007B681A6924
:104DEC00574B0A431A60564B1A68554B80214900A1
:104DFC000A431A60FDF734FB03003B6108E0FDF742
:104E0C002FFB02003B69D31A022B01D9032309E2C1
:104E1C004B4B1A688023DB001340F0D0484B5B6887
:104E2C004A4A134019007B685B691A02444B0A43D7
:104E3C005A601BE0424B1A68414B49490A401A60C0
:104E4C00FDF70EFB03003B6108E0FDF709FB0200D8
:104E5C003B69D31A022B01D90323E3E1384B1A68BF
:104E6C008023DB001340F0D100E0C0467B681B6858
:104E7C000822134047D0324B9B6838221340182B22
:104E8C000AD12F4B1B6E022213403CD07B689B69CE
:104E9C00002B38D10123C5E17B689B69002B19D00D
:104EAC00274B1A6E264B01210A431A66FDF7D8FAD6
:104EBC0003003B6108E0FDF7D3FA02003B69D31A0B
:104ECC00022B01D90323ADE11D4B1B6E02221340B3
:104EDC00F1D018E01A4B1A6E194B01218A431A664D
:104EEC00FDF7BEFA03003B6108E0FDF7B9FA0200DA
:104EFC003B69D31A022B01D9032393E1104B1B6E90
:104F0C0002221340F1D17B681B680422134000D1AC
:104F1C00C6E01F23FB1800221A70094B9B6838222D
:104F2C001340202B1ED1064BDB6D0222134000D107
:104F3C00B6E07B689B68002B00D0B1E0012371E1E7
:104F4C0000100240FFFFFEFFFFFFFBFFFF80FFFF93
:104F5C00FFC7FFFF0024F400E4000020E80000205D
:104F6C00FFFEFFFFB14BDA6B80235B05134001D1D1
:104F7C00012300E00023002B11D0AC4BDA6BAB4BC0
:104F8C00802149050A43DA63A84BDA6B80235B0561
:104F9C001340FB60FB681F23FB1801221A70A44B03
:104FAC001A6880235B0013401AD1A14B1A68A04BDE
:104FBC00802149000A431A60FDF752FA03003B6155
:104FCC0008E0FDF74DFA02003B69D31A022B01D918
:104FDC00032327E1964B1A6880235B001340F0D023
:104FEC007B689B68012B06D1904BDA6D8F4B0121AE
:104FFC000A43DA651CE07B689B68052B0CD18B4B54
:10500C00DA6D8A4B04210A43DA65884BDA6D874BDB
:10501C0001210A43DA650BE0844BDA6D834B0121E5
:10502C008A43DA65814BDA6D804B04218A43DA6559
:10503C007B689B68002B14D0FDF712FA03003B61D0
:10504C0009E0FDF70DFA02003B69D31A794A934245
:10505C0001D90323E6E0754BDB6D02221340F0D03F
:10506C0013E0FDF7FDF903003B6109E0FDF7F8F9EA
:10507C0002003B69D31A6F4A934201D90323D1E052
:10508C006A4BDB6D02221340F0D11F23FB181B78F7
:10509C00012B05D1654BDA6B644B67490A40DA6327
:1050AC007B68DB69002B00D1BBE0604B9B6838222E
:1050BC001340102B00D17BE07B68DB69022B56D1AF
:1050CC005A4B1A68594B5D490A401A60FDF7C8F9EA
:1050DC0003003B6108E0FDF7C3F902003B69D31AFA
:1050EC00022B01D903239DE0504B1A6880239B04AB
:1050FC001340F0D14D4BDB68514A134019007B68CB
:10510C001A6A7B685B6A1A437B689B6A1B021A43A8
:10511C007B68DB6A1A437B681B6B1A437B685B6B8F
:10512C001A43424B0A43DA60404B1A683F4B8021CA
:10513C0049040A431A603D4BDA683C4B802149050F
:10514C000A43DA60FDF78CF903003B6108E0FDF7D8
:10515C0087F902003B69D31A022B01D9032361E0C2
:10516C00324B1A6880239B041340F0D059E02F4B2C
:10517C001A682E4B31490A401A60FDF771F9030089
:10518C003B6108E0FDF76CF902003B69D31A022B76
:10519C0001D9032346E0254B1A6880239B04134056
:1051AC00F0D1224BDA68214B26490A40DA6038E00C
:1051BC007B68DB69012B01D1012333E01B4BDB68DE
:1051CC007B617B6903221A407B681B6A9A4226D159
:1051DC007B6970221A407B685B6A9A421FD17A699C
:1051EC00FE23DB011A407B689B6A1B029A4216D194
:1051FC007A69F8239B031A407B68DB6A9A420ED1CA
:10520C007A69E0231B051A407B681B6B9A4206D116
:10521C007B695B0F5A077B685B6B9A4201D0012359
:10522C0000E000231800BD4608B080BD001002400D
:10523C000070004088130000FFFFFFEFFFFFFFFE30
:10524C008C80C111FCFFFEEE80B584B000AF78609D
:10525C0039607B68002B01D10123E9E0764B1B6898
:10526C00072213403A689A421ED9734B1B680722D7
:10527C0093431900704B3A680A431A60FDF7F0F833
:10528C000300FB6009E0FDF7EBF80200FB68D31AA2
:10529C006A4A934201D90323CAE0674B1B68072271
:1052AC0013403A689A42EED17B681B680222134085
:1052BC0015D07B681B680422134006D0604B9A689B
:1052CC005F4BE021C9010A439A605D4B9B685D4AC4
:1052DC00134019007B689A68594B0A439A607B68A3
:1052EC001B680122134057D07B685B68012B07D1E8
:1052FC00534B1A6880239B0213402BD1012397E058
:10530C007B685B68022B07D14D4B1A6880239B048A
:10531C0013401FD101238BE07B685B68002B07D106
:10532C00474B1A688023DB00134013D101237FE025
:10533C007B685B68032B06D1414B1B6E022213402A
:10534C0008D1012374E03E4BDB6D0222134001D1E6
:10535C0001236DE03A4B9B680722934319007B684D
:10536C005A68374B0A439A60FDF77AF80300FB60E2
:10537C0009E0FDF775F80200FB68D31A2F4A934237
:10538C0001D9032354E02E4B9B6838221A407B68CA
:10539C005B68DB009A42ECD1274B1B680722134059
:1053AC003A689A421ED2244B1B6807229343190079
:1053BC00214B3A680A431A60FDF752F80300FB6070
:1053CC0009E0FDF74DF80200FB68D31A1B4A934223
:1053DC0001D903232CE0184B1B68072213403A68B1
:1053EC009A42EED17B681B680422134009D0144BFF
:1053FC009B68154A134019007B68DA68104B0A4306
:10540C009A6000F029F801000D4B9B681B0A0F22D3
:10541C001A400E4B9200D3581F2213400A00DA4058
:10542C000B4B1A600B4B1B681800FCF7BDFF0300FD
:10543C001800BD4604B080BD002002408813000057
:10544C0000100240FFF0FFFFFF8FFFFFDCA60008FB
:10545C00E4000020E800002080B586B000AF3C4B93
:10546C009B68382213400FD1394B1B68DB0A07228B
:10547C00134001229A4013003B6039683548FAF713
:10548C004DFE03003B615DE0314B9B6838221340BD
:10549C00082B02D1304B3B6154E02D4B9B683822DA
:1054AC001340102B38D12A4BDB6803221340FB60CE
:1054BC00274BDB681B09072213400133BB60FB68D9
:1054CC00032B0DD1B9682448FAF728FE0300190004
:1054DC001F4BDB681B0A7F2213404B437B610DE0A3
:1054EC00B9681C48FAF71AFE03001900184BDB6860
:1054FC001B0A7F2213404B437B61C046144BDB6875
:10550C005B0F0722134001337B6079687869FAF7E7
:10551C0005FE03003B6115E00D4B9B6838221340E0
:10552C00202B03D180231B023B610BE0084B9B68B3
:10553C0038221340182B03D1FA23DB013B6101E025
:10554C0000233B613B691800BD4606B080BDC046D8
:10555C00001002400024F40000127A0080B500AF65
:10556C00024B1B681800BD4680BDC046E4000020FD
:10557C00B0B500AFFFF7F2FF0400FFF73FFB0300ED
:10558C001A0B054B9200D3581F221340DC4023000A
:10559C001800BD46B0BDC0461CA7000880B586B03B
:1055AC0000AF78601323FB1800221A701223FB182B
:1055BC0000221A707B681A6880239B02134000D16A
:1055CC00A3E011203B1800221A70C34BDA6B802326
:1055DC005B05134010D1C04BDA6BBF4B80214905E2
:1055EC000A43DA63BC4BDA6B80235B051340BB6068
:1055FC00BB683B1801221A70B84B1A68B74B802154
:10560C0049000A431A60FCF72BFF0300FB600BE018
:10561C00FCF726FF0200FB68D31A022B04D91323D4
:10562C00FB1803221A7005E0AC4B1A6880235B0050
:10563C001340EDD01323FB181B78002B54D1A64B31
:10564C00DA6DC0239B0013407B617B69002B19D062
:10565C007B681B6B7A699A4214D09F4BDB6DA04A16
:10566C0013407B619C4BDA6D9B4B802149020A43B2
:10567C00DA65994BDA6D984B9A490A40DA65964B84
:10568C007A69DA657B690122134016D0FCF7E8FED3
:10569C000300FB600CE0FCF7E3FE0200FB68D31A8E
:1056AC00914A934204D91323FB1803221A7004E085
:1056BC00894BDB6D02221340EDD01323FB181B78B2
:1056CC00002B0AD1844BDB6D854A134019007B6893
:1056DC001A6B814B0A43DA650CE01223FB18132278
:1056EC00BA1812781A7005E01223FB181322BA1894
:1056FC0012781A701123FB181B78012B05D1764BED
:10570C00DA6B754B79490A40DA637B681B680122B6
:10571C00134009D0704B5B6D0322934319007B68D7
:10572C005A686D4B0A435A657B681B68022213400A
:10573C0009D0694B5B6D0C22934319007B689A6806
:10574C00654B0A435A657B681B681022134009D0CD
:10575C00614B5B6D664A134019007B68DA685E4BDF
:10576C000A435A657B681A6880239B00134009D052
:10577C00594B5B6D5F4A134019007B689A69564B15
:10578C000A435A657B681A688023DB00134009D0F2
:10579C00514B5B6D584A134019007B68DA694E4BCC
:1057AC000A435A657B681B682022134009D04A4B78
:1057BC005B6D524A134019007B681A69464B0A43C9
:1057CC005A657B681A688023DB01134015D0424B65
:1057DC005B6D9B0099087B681A6A3F4B0A435A65BC
:1057EC007B681A6A8023DB059A4206D13A4BDA6849
:1057FC00394B802149020A43DA607B681A6880239E
:10580C001B03134009D0344B5B6D402293431900AA
:10581C007B685A6A304B0A435A657B681A68802346
:10582C009B03134016D02C4B5B6D354A134019006B
:10583C007B689A6A284B0A435A657B689A6A80236C
:10584C00DB039A4206D1244BDA68234B80214904AE
:10585C000A43DA607B681A688023DB03134016D096
:10586C001D4B5B6D274A134019007B68DA6A1A4B93
:10587C000A435A657B68DA6A80235B049A4206D134
:10588C00154BDA68144B802149040A43DA607B68B3
:10589C001A6880231B01134016D00F4B5B6D1A4AFC
:1058AC00134019007B685A690B4B0A435A657B6895
:1058BC005A698023DB019A4206D1074BDA68064B02
:1058CC00802149020A43DA601223FB181B78180066
:1058DC00BD4606B080BDC0460010024000700040BE
:1058EC00FFFCFFFFFFFFFEFF88130000FFFFFFEF31
:1058FC00FFF3FFFFFFFFF3FFFFFFCFFFFFCFFFFF24
:10590C00FFFFBFFFFFFFFFFEFF3FFFFF80B582B031
:10591C0000AF78607B68002B01D101234AE07B68E3
:10592C003D229B5CDBB2002B07D17B683C22002123
:10593C0099547B681800FCF7EDFA7B683D22022134
:10594C0099547B681A687B6804331900100001F0C5
:10595C00CBF87B684822012199547B683E220121B7
:10596C0099547B683F22012199547B684022012184
:10597C0099547B684122012199547B684222012170
:10598C0099547B684322012199547B68442201215C
:10599C0099547B684522012199547B684622012148
:1059AC0099547B684722012199547B683D2201213F
:1059BC00995400231800BD4602B080BD80B584B058
:1059CC0000AF78607B683D229B5CDBB2012B01D081
:1059DC00012342E07B683D22022199547B681B68BD
:1059EC00DA687B681B6801210A43DA607B681B68F4
:1059FC001C4A93420FD07B681A688023DB059A42BD
:105A0C0009D07B681B68184A934204D07B681B68DA
:105A1C00164A934216D17B681B689B68144A134044
:105A2C00FB60FB68062B16D0FA6880235B029A4257
:105A3C0011D07B681B681A687B681B6801210A43BC
:105A4C001A6008E07B681B681A687B681B68012178
:105A5C000A431A6000E0C04600231800BD4604B09B
:105A6C0080BDC046002C01400004004000400140B5
:105A7C000700010080B582B000AF78607B68002B16
:105A8C0001D101234AE07B683D229B5CDBB2002BF9
:105A9C0007D17B683C22002199547B681800FCF7E5
:105AAC00B9F97B683D22022199547B681A687B689E
:105ABC0004331900100001F017F87B68482201210B
:105ACC0099547B683E22012199547B683F22012125
